:100000000C94D6040C94F3040C94F3040C94F304B1
:100010000C94F3040C94F3040C94F3040C94F30484
:100020000C94F3040C94370B0C94F3040C94F30429
:100030000C94F3040C94F3040C94F3040C94F30464
:100040000C94F3040C94F3040C94E7200C94F30444
:100050000C94F3040C94F3040C94F3040C94F30444
:100060000C94F3040C94F304190CBF0BD50BDC0BAC
:10007000E30BEA0BF10BF80BFF0B060C0D0C000069
:100080000000000000000000000000000000000070
:100090000000000000C0C030303030303030303030
:1000A0003030303030303030303030303030303050
:1000B000303030303030303030C0C0000000000010
:1000C0000000000000000000000000000000000030
:1000D0000000000000000000000000000000000020
:1000E00000000000000000FFFF00000000000030E2
:1000F0003000000000000000000C0C0000C0C0CC6C
:10010000CC000000000000C0C0000000000000FFA4
:10011000FF0000C0C0C0C0000000000000000000E0
:10012000000000000000000000000000000000FCD3
:10013000FCCCCC0C0C3C3CF0F0C0C0FFFF0000003D
:100140000000000000C0C00000030300000000FF2A
:10015000FF0000000003030C0C3030303030303032
:100160003030300F0F030300000000FFFF000000DD
:10017000000000000000000000000000000000007F
:10018000000000000003030F0F3C3C3030F3F3FF8E
:10019000FF000000000C0C00000000C0C0000303C2
:1001A00000FFFF00008080000030303C3C00000079
:1001B0000000003030000030303C3C008080000007
:1001C00000FFFF0000000000000000000000000031
:1001D000000000000000000000000000000000C05F
:1001E000C030303F3F3030C0C0C0C0C3C3C0C0C04B
:1001F000C0C0C0C0C0C3C3CCCCF1F1C0C0C0C0CF70
:10020000CFCCCCCCCCCFCFCCCCCCCCCFCFC0C0C043
:10021000C131300C0C03030000000000000000009E
:1002200000000000000000000000000000000000CE
:100230000000000F0F0C0C0C0C0F0F030300000F3D
:100240000F0C0C0C0C030300000000000000000366
:10025000030C0C0C0C0F0F000003030C0C0C0C0314
:10026000030000000000000000000000000000008B
:10027000000000000000000000000000002F00004F
:100280000007000700147F147F14242A7F2A1232EB
:100290003408162636495522500005030000001C7C
:1002A0002241000041221C0014083E081408083EA8
:1002B000080800005030001010101010006060009E
:1002C0000020100804023E5149453E00427F400094
:1002D00042615149462141454B311814127F102784
:1002E000454545393C4A49493001710905033649BC
:1002F000494936064949291E00363600000056365F
:100300000000081422410014141414140041221493
:10031000080201510906324959513E7E1111117EE0
:100320007F494949363E414141227F4141221C7F5C
:10033000494949417F090909013E4149497A7F08F4
:1003400008087F00417F41002040413F017F0814A1
:1003500022417F404040407F020C027F7F04081012
:100360007F3E4141413E7F090909063E4151215EE0
:100370007F09192946464949493101017F01013F59
:100380004040403F1F2040201F3F4038403F631403
:1003900008146307087008076151494543007F410D
:1003A000410004081020400041417F000402010286
:1003B0000440404040400001020000205454547862
:1003C0007F484444383844444420384444487F38C3
:1003D00054545418087E0901020C5252523E7F08B0
:1003E00004047800447D40002040443D007F1028F4
:1003F000440000417F40007C041804787C08040419
:100400007838444444387C14141408081414187CB4
:100410007C080404084854545420043F4440203CC1
:100420004040207C1C2040201C3C4030403C442864
:100430001028440C5050503C4464544C4408083636
:10044000414100007F0000414136080802010202DC
:100450000100000000003E3E3E3E3E007F3E1C0884
:10046000081C3E7F00087C7E7C08103E7E3E10000B
:100470007E7F7E00007E7B7E00007E737E00007E9D
:10048000637E00007E437E0000003E0000201008D6
:1004900004020808080808020408102067657D05A2
:1004A0000708221C413E0502050000403C101C20AC
:1004B000552A552A550007050700000000000000D6
:1004C000000000000000000000000000000000002C
:1004D000000000000000000000000000000000001C
:1004E000000000000000000000000000000000000C
:1004F00000000000000000000000000000000000FC
:1005000000000000000000000000000000000000EB
:1005100000000000000000000000000000000000DB
:1005200000000000000000000000000000000000CB
:1005300000000000000000000000000000000000BB
:1005400000000000000000000000000000000000AB
:10055000000000000000000000000000000000009B
:10056000000000000000000000000000000000008B
:10057000000000000000000000000000000000007B
:10058000000000000000000000000000000000006B
:100590000000000000007C1211127C7F49494931A3
:1005A0007F494949367F01010101603F213F607F5A
:1005B0004949494177087F087722414949367F10E8
:1005C00008047F7E1009047E7F08142241403E010A
:1005D000017F7F020C027F7F0808087F3E41414176
:1005E0003E7F0101017F7F090909063E4141412209
:1005F00001017F0101074848483F0E117F110E633A
:10060000140814633F20203F60070808087F7F40DC
:100610007E407F3F203F207F017F4848307F483029
:10062000007F007F484830224149493E7F083E41D3
:100630003E462919097F20545454783C4A4A4A318D
:100640007C545428007C04040C00603C243C60383A
:10065000545454186C107C106C00445454287C2062
:1006600010087C7C2112097C7C102844004038044E
:10067000047C7C0810087C7C1010107C38444444B6
:10068000387C0404047C7C1414140838444444006A
:1006900004047C04040C5050503C08147C1408449E
:1006A000281028443C20203C600C1010107C7C401A
:1006B0007C407C3C203C207C047C5050207C5020A2
:1006C000007C007C50502028445454387C1038441E
:1006D00038485434147C43616E2774206F70656E03
:1006E000206B6579730D0A00204F686D0D0A00209C
:1006F000CEEC005761697420666F722061206B65D3
:10070000790D0A00C6E4F320EAEBFEF7208E0055CF
:100710005342004B542D3031206973207265636F52
:10072000726465640D0A004B542D303120E7E0EF10
:10073000E8F1E0ED00CFEEE4EAEBFEF7E8F2E520C9
:10074000F9F3EF007435353537206973207265632E
:100750006F726465640D0A00743535353720E7E043
:10076000EFE8F1E0ED0053446361726420696E6963
:1007700074204552524F520D0A00CAD22D3031001A
:10078000CCE5F2E0EAEEEC00D6E8F4F0E0EB00CFE6
:10079000F0EEEAF1E800C4E0EBEBE0F1006379662B
:1007A00072616C006D6574616B6F6D006B742D30E0
:1007B0003100726669640064616C6C617300777209
:1007C00069746500726561640020697320726563F5
:1007D0006F726465640D0A0020E7E0EFE8F1E0ED78
:1007E00000746D3230303400746D32303034007447
:1007F0006D3038763200746D3038763200525731B1
:1008000039393000525731393930005772697465BF
:10081000206572726F720D0A00CEF8E8E1EAE020FE
:10082000E7E0EFE8F1E8004B657920616C72656103
:100830006479207265636F726465640D0A008E20AE
:10084000F3E6E520E7E0EFE8F1E0ED0057726974C8
:10085000696E672E2E2E0D0A00C7E0EFE8F1FBE26D
:10086000E0FE000D0A00F2E0E9ECF1EBEEF2200010
:100870003A435243202046414D3A000D0A0052654A
:10088000736973746F7200D0E5E7E8F1F2EEF0007F
:1008900043796672616C2E54432D303100D6E8F4F2
:1008A0002E54432D30310043796672616C2E323004
:1008B00039342E3100D6E8F42E3230393400437901
:1008C0006672616C00D6E8F4F0E0EB004D6574618F
:1008D0006B6F6D2E454C4300CCE5F22E454C43002A
:1008E0004D6574616B6F6D2E4D4B00CCE5F22E4D56
:1008F0004B004D6574616B6F6D00CCE5F2E0EAEE84
:10090000EC004B542D303100CAD22D30310052460C
:10091000494400CFF0EEEAF1E80044616C6C617389
:1009200000C4E0EBEBE0F100547970653A2000D2AE
:10093000E8EF3A20000F0B07030E0A06020D090527
:10094000010C0804005E003E0059004120410034C3
:1009500032312F2D002D2F31323400200040008005
:10096000000001000200040008001000007177BFC1
:10097000706B6A7064CD5E7B597554B74F3E4B0403
:10098000470943453FB83B5F3835353832672FBE9E
:100990002C3B2ADC279F2583238521A31FDD1D2FC8
:1009A0001C9B1A1C19B4175F161D150011241FBEBD
:1009B000CFEFD8E0DEBFCDBF11E0A0E0B1E0E8ECC2
:1009C000F3E402C005900D92AA30B107D9F722E0F6
:1009D000AAE0B1E001C01D92A439B207E1F70E947C
:1009E000F80F0C94E2210C9400000F931F93CF9307
:1009F000DF93FC01DC0108961D92A817B907E1F707
:100A000080E020E0880FA22FA695A695A695B0E0DD
:100A1000AB5EBE4F4C9150E0922F977002C055953F
:100A200047959A95E2F740FD81608F70813021F4FF
:100A3000233010F0235003C02F5F203719F7A0E0B8
:100A4000B0E030E089010C5D1F4FA8014A0F5B1F29
:100A5000CA01D3E095958795DA95E1F78B5E9E4FB5
:100A6000EC01888190E04770552702C095958795E5
:100A70004A95E2F781709927BD01620F731FAB01A0
:100A8000C3E055954795CA95E1F74B5E5E4FEA0185
:100A9000488150E06770772702C0559547956A9561
:100AA000E2F7417055278417950709F055C0119654
:100AB000A432B10551F680E062E070E0A0E0B0E061
:100AC00090E02C5F3F4F990F89010A0F1B1FA8016F
:100AD000C3E055954795CA95E1F74B5E5E4FEA0135
:100AE000488150E0E801C770DD2702C05595479561
:100AF000CA95E2F740FD91601196A430B10519F74F
:100B00009B3069F020F4973039F540E009C09D3002
:100B100021F09E3009F540EC03C040E801C040E4FC
:100B2000982F92959F70DB01A91BB109AE0FBF1FD3
:100B300050E0982F9F70969502C0559547959A95CD
:100B4000E2F79C91492B4C938C5F803209F0B6CF31
:100B500081E0838380E001C081E0DF91CF911F912C
:100B60000F910895CF93DF93EC0180E680937C0092
:100B70003AE63A95F1F700C0E5E1F1E08EE08E0F3C
:100B800011928E13FDCF24E680E090E03091790041
:100B9000830F911D45E34A95F1F700002150B1F70D
:100BA00064E670E00E948C21262F34E680E040E06D
:100BB00050E090E060917900621730F4882321F0D2
:100BC000490F511D80E011C060917900261730F463
:100BD000811104C0490F511D81E007C065E16A958C
:100BE000F1F700009F5F983C29F7315011F7CA01D7
:100BF00064E670E00E948C21862F65506331E0F539
:100C000090E061E070E030E040917900241748F016
:100C100045E14A95F1F700003F5F3739A9F730E029
:100C20000AC03639E1F728C045E14A95F1F70000DE
:100C30003F5F373941F0409179004217A8F73639C4
:100C4000D9F0831788F4E92FE695E695E695F0E06C
:100C5000EB5EFE4F392F3770AB0101C0440F3A9560
:100C6000EAF73081432B40839F5F903761F6CE01D6
:100C7000DF91CF910C94F50481E0DF91CF9108953D
:100C8000389A0895409838980895862798E03CE867
:100C9000282F269580FF03C0822F832701C0822F33
:100CA0009150B1F70895EF92FF920F931F93CF9356
:100CB000DF93EC017C0188E0E80EF11C8E0180E0FE
:100CC000F80161918F010E9445060E151F05C1F7BD
:100CD00090E0299121119F5FCE15DF05D1F799236F
:100CE00021F0882321F082E003C081E001C080E090
:100CF000DF91CF911F910F91FF90EF900895811197
:100D000002C00C944006389808950E94400685E081
:100D10008A95F1F7000081E00E947F068FEF90E056
:100D20000197F1F700C00000089581110C94850629
:100D30000E9440068FEE90E00197F1F700C000009E
:100D400081E00E947F0695E39A95F1F700000895EF
:100D50000E94400685E08A95F1F7000081E00E943C
:100D60007F06E0E3EA95F1F786B1EBEDF0E031972D
:100D7000F1F700C0000081700895CF93DF93D82F62
:100D8000C8E08D2F81700E949506D695C150C9F795
:100D9000DF91CF910895CF93DF93D82FD095C8E0FE
:100DA0008D2F81700E949506D6958FE39CE901975F
:100DB000F1F700C00000C15099F7DF91CF9108957D
:100DC0008FE599E00197F1F700C000000E948506C9
:100DD0009FEF20E782E0915020408040E1F700C083
:100DE00000000895CF93DF93D8E0C0E0C6950E943D
:100DF000A8068111C068D150C9F78C2FDF91CF911F
:100E000008950E9440068FE09EE00197F1F700C030
:100E1000000081E00E947F0695E39A95F1F70000BB
:100E2000309B12C0E7E1F1E03197F1F700C000001C
:100E300096B1892F817090FD09C0E7E6F6E0319701
:100E4000F1F700C00000089581E0089582E0089560
:100E50000E9440068FE09EE00197F1F700C000007D
:100E600081E00E947F0695E39A95F1F700009AE0F1
:100E70000000000000000000000000000000000072
:100E800000000000309B03C09F5F943689F7E7E6BF
:100E9000F6E03197F1F700C0000026B1822F817093
:100EA00020FF05C0933610F080E00895892F089543
:100EB000CF92DF92EF92FF920F931F93CF93DF9326
:100EC000EC010E942807809323018A3010F481E00E
:100ED0002AC083E30E94BD068E016E0188E0C80E21
:100EE000D11C7E010E94F206F70181937F01EC156F
:100EF000FD05C1F7CE010E9453068823A1F00E9490
:100F00002807809323018A3010F383E30E94BD06F3
:100F1000F801C1918F010E94F206C813D8CF0C15B9
:100F20001D05B1F782E0DF91CF911F910F91FF90E6
:100F3000EF90DF90CF900895EF92FF920F931F9361
:100F4000CF93DF938C010E940107882311F0C1E049
:100F500041C08DE10E94BD060E9485068FE39CE999
:100F60000197F1F700C000000E9401078111EFCF47
:100F700085ED0E94BD06E801780198E0E90EF11CBC
:100F8000F80181918F010E94CB060E151F05C1F754
:100F90000E9401078111DBCF83E30E94BD061991F6
:100FA0000E94F206181315C0CE15DF05C1F70E9486
:100FB0000107C82F8111CBCF8DE10E94BD0680E0D3
:100FC0000E9495068FE39CE90197F1F700C00000AD
:100FD00001C0C2E08C2FDF91CF911F910F91FF9044
:100FE000EF900895EF92FF920F931F93CF93DF93AB
:100FF0008C010E940107882311F0C1E041C081EDFE
:101000000E94BD0680E00E9495068FE39CE901974F
:10101000F1F700C000000E9401078111EECF85EDBD
:101020000E94BD06E801780198E0E90EF11CF80184
:1010300081918F010E94CB060E151F05C1F70E94FA
:1010400001078111DACF83E30E94BD0619910E9446
:10105000F206181314C0CE15DF05C1F70E94010770
:10106000C82F8111CACF81ED0E94BD060E9485065E
:101070008FE39CE90197F1F700C0000001C0C2E0D6
:101080008C2FDF91CF911F910F91FF90EF900895DA
:10109000CF92DF92FF920F931F93CF93DF93F82E9F
:1010A000092F0E940107182F81112BC08CE30E9489
:1010B000BD0680E00E94BD0680E00E94BD06CF2DE7
:1010C000D02FF12C05E66E0188810E94BD06688153
:1010D000802F0E944506082F0E94F206801711F00B
:1010E00012E010C00E94E0060E94F2062196F6016E
:1010F00090818913F5CF01E00F0D083019F0F02E23
:10110000E2CF11E0812FDF91CF911F910F91FF90DE
:10111000DF90CF900895389A089540983898419874
:10112000399A0895FC0180E03BE0615070F09191A4
:10113000892798E0282F269580FF03C0822F8327D8
:1011400001C0822F9150B1F7F0CF0895CF93DF9374
:10115000EC0160E10E949208282FFE01AE01405F81
:101160005F4FDE0190E08D9181119F5FA417B5075D
:10117000D1F72896DE0131918D9138130AC0EC1712
:10118000FD07C9F781E0992329F0211103C080E010
:1011900001C081E0DF91CF910895811102C00C94CC
:1011A0008B0838980895CF93DF93D82FC8E0D0FFED
:1011B00007C00E948B088AE18A95F1F700C008C039
:1011C0000E948B0887E691E00197F1F700C00000CC
:1011D00081E00E94CD088FE19BEC0197F1F700C000
:1011E0000000D695C15019F7DF91CF910895CF93A4
:1011F000DF93D8E0C0E00E948B0885E38A95F1F781
:10120000000081E00E94CD08E5E8EA95F1F70000D2
:1012100086B1EBEBF2E03197F1F700C00000C69524
:1012200080FDC068D15039F78C2FDF91CF910895A0
:101230000E948B088FE99FE00197F1F700C0000042
:1012400081E00E94CD08EFE3F1E03197F1F700C0B3
:101250000000309B14C096E126B1822F817020FFE0
:1012600007C0915071F0F5E3FA95F1F70000F4CF63
:10127000EFEBF3E03197F1F700C00000089581E053
:10128000089582E008958F929F92AF92BF92CF927D
:10129000DF92EF92FF920F931F93CF93DF93CDB71F
:1012A000DEB760970FB6F894DEBF0FBECDBF982EA5
:1012B000A92E0E941809811123C08E010F5F1F4FB4
:1012C0006801B02EE12EF02E80E1882E800E0E9463
:1012D000F708D6018D936D018A12F9CFE92DFA2D09
:1012E00028E02F0DD8018D918D0181932A13FACF1B
:1012F0008B2D9E2D0E94A608882319F082E001C044
:1013000081E060960FB6F894DEBF0FBECDBFDF91CF
:10131000CF911F910F91FF90EF90DF90CF90BF90F2
:10132000AF909F908F900895CF92DF92EF92FF92AF
:101330000F931F93CF93DF93EC010E94180988232A
:1013400011F011E03BC0419A2FE782E392E0215077
:1013500080409040E1F700C000006E017E01E8E0AF
:10136000EE0EF11C8E01F80181918F010E94D308CD
:101370000E151F05C1F78E01F80181918F010E94A2
:10138000D3080E151F05C1F741980E941809182FA0
:101390008111D7CF0E94F7089991891711F012E0B7
:1013A0000DC0CE15DF05B1F70E94F708F601919147
:1013B0006F018913F4CFEE15FF05B1F7812FDF918F
:1013C000CF911F910F91FF90EF90DF90CF900895F4
:1013D00090E0019746E0489F9001499F300D11240D
:1013E00070E06150710944E5469FC001479F900D30
:1013F0001124820F931F9093250180932401089557
:1014000090E0019770E06150710944E5469F9001BA
:10141000479F300D1124820F931F909325018093D5
:10142000240108959AB190639AB95B98613011F4E0
:101430005C9A01C05C9827E030E090E0AC01022E9D
:1014400002C0559547950A94E2F740FF02C05D9AA5
:1014500001C05D985F9A5F982150310978F75B9AD7
:101460008AB18F7C8AB98BB180638BB90895CF9391
:10147000C82F60E081E20E94120A60E08C2F806831
:101480000E94120A60E080E2CF910C94120AEF925F
:10149000FF920F931F93CF93E12CF12CC0E06C2FA0
:1014A00080E00E94000A00E010E0F801EE0DFF1D50
:1014B000E258FF4F849161E00E94120A0F5F1F4FB4
:1014C0000435110591F7CF5F84E5E80EF11CC630B5
:1014D00031F7CF911F910F91FF90EF900895CF9327
:1014E00064E570E00E948C21C62F60E080680E9455
:1014F000120A60E08C2F8064CF910C94120ACF9373
:10150000DF93109225011092240180E090E00E9468
:101510006F0AC8EFD1E061E080E00E94120A2197D3
:10152000D1F7DF91CF9108955A9A8AB18C6B8AB91D
:101530008FE59AEE0197F1F700C000005A985A9A89
:101540005B9A60E081E20E94120A60E088EC0E94EF
:10155000120A60E086E00E94120A60E083E10E94C5
:10156000120A60E080E20E94120A60E08CE00E94B1
:10157000120A0C947F0A0F931F93CF93DF93C82F07
:1015800080912401909125010E946F0A85E0C89FF7
:10159000E001112400E010E0C05AD109FE01E00F83
:1015A000F11FEA58FD4F849161E0880F0E94120AF2
:1015B0000F5F1F4F0530110589F761E080E00E9441
:1015C000120A80912401909125010696909325019D
:1015D00080932401DF91CF911F910F910895CF93B4
:1015E000DF93EC018991882319F00E94BB0AFACF9E
:1015F000DF91CF910895CF93DF93FC018491EF01A8
:101600002196882321F00E94BB0AFE01F7CFDF91CB
:10161000CF910895CF93C82F82958F708A3010F4A0
:10162000805D01C0895C0E94BB0A8C2F8F708A305C
:1016300010F4805D01C0895CCF910C94BB0A80914D
:101640002401909125010E946F0A61E084E40E94C8
:10165000120A61E080E00E94120A809124019091B8
:1016600025010296909325018093240108951F92ED
:101670000F920FB60F9211242F933F934F935F93C6
:101680006F937F938F939F93AF93BF93CF93EF937A
:10169000FF9382E691E00E945021811103C081E016
:1016A00080935001189B09C010920B0180910F018B
:1016B000823029F510920F0122C0C0910B011899B8
:1016C0000CC0C13051F482E080930B0187E499E0B3
:1016D0000E94B620C0930F0112C0CD3368F0CD3305
:1016E00071F48EE380930B0185E499E00E94B620AB
:1016F00082E080930F0103C0CF5FC0930B01FF9185
:10170000EF91CF91BF91AF919F918F917F916F9109
:101710005F914F913F912F910F900FBE0F901F90AF
:1017200018952098289A1092B00087E08093B10015
:1017300081E0809370007894089583EE80937A001E
:1017400010927B0080E680937C00089561E081E048
:101750000E94E8098FE299E00E94FB0A88E299E082
:101760000E944121E0910E018E2F90E08B30910577
:1017700008F05BC0FC01EC5CFF4F0C94C22181E2DD
:1017800099E00E94FB0A8AE199E00E94412183EEE0
:1017900091E00E945306882309F447C080E90E9423
:1017A000BB0A8AE20E94192140C083E199E00E94AD
:1017B000FB0A8EE099E037C088E099E00E94FB0ABE
:1017C00082E099E030C08AEF98E00E94FB0A82EF45
:1017D00098E029C08BEE98E00E94FB0A80EE98E02A
:1017E00022C088ED98E00E94FB0A8CEC98E01BC0B8
:1017F00085EC98E00E94FB0A8EEB98E014C085EB24
:1018000098E00E94FB0A87EA98E00DC08DE998E015
:101810000E94FB0A80E998E006C087E898E00E94F1
:10182000FB0A8EE798E00E9441218BE798E00C9438
:10183000412108950F931F93CF93DF9362E081E0DE
:101840000E94E80980910E01982F9D7F913039F018
:1018500098EF980F923018F085508230D0F5809133
:10186000EA010E940A0B80E798E00E94FB0A80913F
:10187000E3010E940A0B80912301882351F180919A
:101880000E01833031F164E081E00E94E80986E6D0
:1018900098E00E94FB0A8091230164E60E94802167
:1018A000892FCAE06C2F0E948021805D0E94BB0AB4
:1018B000809123016C2F0E94802180E3890F0E9478
:1018C000BB0A81E90E94BB0A83E70E94BB0A10920F
:1018D000230163E081E00E94E80909EE11E0E801DC
:1018E00088810E940A0B802F8C1B853011F00E948A
:1018F0001F0B219781E0C33ED80791F7CBEED1E0D3
:101900001C2F11508A910E942021812F8C1B87301F
:1019100019F08AE30E94192181E0C33ED80791F7AC
:1019200083E698E0DF91CF911F910F910C944121B4
:101930000E947F0A63E084E00E94E80989E598E05C
:101940000E94FB0A8CE498E00C9441210E947F0ADB
:1019500063E081E00E94E8098EE398E00E94FB0AC0
:1019600087E298E00E94412189E499E00E94B62034
:101970002FEF83ED90E3215080409040E1F700C0CD
:10198000000008950E947F0A63E081E00E94E80958
:1019900089E198E00E94FB0A8BE098E00E944121D7
:1019A0008BE499E00E94B6202FEF83ED90E3215065
:1019B00080409040E1F700C00000089582E08093ED
:1019C0000901A3EEB1E0EAE5F1E088E08E0F919124
:1019D0009D938E13FCCF85E599E00C94B6201F9360
:1019E000CF93DF931F92CDB7DEB78AE591E00E94D7
:1019F00058078130A1F189830E94980CA3EEB1E0D1
:101A0000EAE5F1E098E09E0F898131912D91321342
:101A100081E09E13FACF813019F00E94A60C60C0BD
:101A200014E083EE91E00E9448088823F9F08130A9
:101A300009F456C083EE91E00E94F2078823C1F0BA
:101A4000813009F44DC083EE91E00E949C07882309
:101A500089F0813009F444C0115019F702C011E037
:101A600040C08230F1F50E94C20C3BC012E003C0BE
:101A700011E001C010E00E947F0A63E081E00E9453
:101A8000E809111107C084E098E00E94FB0A8DEF7D
:101A900097E00FC0113039F486EF97E00E94FB0AFF
:101AA0008FEE97E006C088EE97E00E94FB0A81EE79
:101AB00097E00E94412188ED97E00E94FB0A89ECA3
:101AC00097E00E9441218FE499E00E94B6202FEF19
:101AD00083ED90E3215080409040E1F700C000008A
:101AE00010E0812F0F90DF91CF911F9108952F92D9
:101AF0003F924F925F926F927F928F929F92AF929E
:101B0000BF92CF92DF92EF92FF920F931F93CF93EA
:101B1000DF938C0180E680937C008FE891E0019751
:101B2000F1F700C00000809179008E3F08F092C06C
:101B300080910A01883008F489C020E080E090E0BC
:101B4000DC01409178005091790076E056954795F8
:101B50007A95E1F7840F951FA11DB11DE5E3EA9584
:101B6000F1F700002F5F203861F76C017D0167E01D
:101B7000F694E794D794C7946A95D1F7F801C80111
:101B800008961192E817F907E1F7A8EEB3E0A7016C
:101B900096010E94C821812C54E0952EA12CB12CD5
:101BA000A50194012C193D094E095F090E94A0214D
:101BB000CA01B901213335474105510528F02AE210
:101BC000F8012083C1E001C0C0E0CF5FD1E0332441
:101BD000339420EA822E26E8922EAA24A394B12CD4
:101BE00030E1432E37E2532E612C712C40E2242E3B
:101BF000A50194010E94A0216B017C01A301920127
:101C00000E94A0218FEF8C0F90E021153105410536
:101C1000510551F4F1E03F1207C0D53029F0F80129
:101C2000E80FF91F208206C0F801E80FF91F205DB8
:101C30002083312CAAE0B0E0A70196010E94C821C0
:101C4000DF5FCF5FD630A1F680E007C08F5F809363
:101C50000A0102C010920A0181E0DF91CF911F9129
:101C60000F91FF90EF90DF90CF90BF90AF909F903B
:101C70008F907F906F905F904F903F902F9008953E
:101C8000CF93DF93DC0190E0292F30E0FB01E20FDE
:101C9000F31F4491442359F0ED01C20FD31F288153
:101CA000222339F0E4912E1306C09F5FEDCF80E030
:101CB00003C082E001C081E0DF91CF9108951F93BE
:101CC000CF93DF93EC011092500164EC77E00E9417
:101CD000400E811103C0249611E00BC06EEB77E03B
:101CE000CE010E94400E811103C0259612E001C072
:101CF00010E0CE01EC01019628812032D9F367EB88
:101D000077E0CE010E94400E811103C0269621E0AB
:101D100029C062EB77E0CE010E94400E811103C022
:101D2000249622E01FC06CEA77E0CE010E94400EAC
:101D3000811103C0259623E015C064EA77E0CE0147
:101D40000E94400E811103C0279624E00BC06DE96C
:101D500077E0CE010E94400E882311F020E002C0FF
:101D6000269627E0DE0121968C918032D9F3CAE5D0
:101D7000D1E0FE015C2F585F11925E13FDCF40E071
:101D80008D91882321F1403111F1E42FE695F0E0A7
:101D9000E65AFE4F30813295307F803310F4308325
:101DA00014C08A3310F490ED05C08134C0F3873439
:101DB00028F499EC980F832F892B06C09FE9980F80
:101DC000963068F78755832B80834F5FD9CF1123D7
:101DD00059F0123039F01093090120930E0187E475
:101DE00099E004C0211107C08BE499E0DF91CF9105
:101DF0001F910C94B620E3EEF1E0899181935C137E
:101E0000FCCFE9CF86EE80937C008FE99FE00197BD
:101E1000F1F700C00000809179000895EF92FF92E1
:101E20000F931F93CF93DF9300D01F92CDB7DEB7F0
:101E300060910C0170910D0180E090E00E94521CB5
:101E4000AE014F5F5F4F60E870E082E691E00E9474
:101E5000801B29813A812115310529F0E2E6F1E064
:101E600080E090E00BC010920D0110920C010E94D6
:101E70000E0FB4C001968217930799F041914D302F
:101E8000C9F7FC01EE59FE4F108220910C013091F0
:101E90000D012E5F3F4F820F931F90930D01809392
:101EA0000C01E2E6F1E090E030E020E067E070E075
:101EB00010C08032A9F4DB01A21BB109AD51BE4FA5
:101EC0009C932F5F8B3389F0283078F490E040E0CA
:101ED000342F8F010256114081918111EACF05C044
:101EE0008B3349F3323099F4E6CF0F5F1F4F1092D6
:101EF0000E01C8018E599E4F7C0166E977E00E9471
:101F0000400E811117C081E080930E0113C041E0A3
:101F1000430F313011F49295907F8A3310F480533F
:101F200007C0873410F4875303C0873688F6875577
:101F3000982BCECF6FE877E0C7010E94400E811149
:101F400003C082E080930E0168E877E0C7010E9439
:101F5000400E811103C087E080930E0160E877E0B6
:101F6000C7010E94400E811103C084E080930E01DE
:101F70006AE777E0C7010E94400E811103C083E049
:101F800080930E01F801EE59FE4F80810F5F1F4FC5
:101F90008B33C1F70E947F0A109223010E94A60B87
:101FA0000E941A0C65E081E00E94E8090E591E4F5C
:101FB00090E0F80181918F01882381F09C3170F4C9
:101FC0008B3329F09B830E94BB0A9B8105C066E08E
:101FD00081E00E94E8099DE09F5FEBCF0F900F909A
:101FE0000F90DF91CF911F910F91FF90EF90089587
:101FF000CF93DF931F92CDB7DEB70E94940A84E49B
:102000000E94370A0E94470A0E94910B0E949D0B72
:102010000E940A210E94AE200E9442060E94701D6A
:102020000E948D0814E686E291E00E944D1880938C
:10203000E201882331F01150B1F786E697E00E9463
:1020400041212FEF39E648E1215030404040E1F78F
:1020500000C0000000E117E258EE652E53E0752E37
:1020600064E6E62EF12C83EE91E077E0D72ED80ED1
:1020700080910901823039F480910E01811108C0EC
:1020800081E08093090137E0C32E42E0942E54C2D0
:102090008130E1F40E947F0A0E94A60B0E941A0C74
:1020A00080910F01813029F410920F018093090172
:1020B0000DC080915001813029F482E691E00E94A8
:1020C0005F0E04C00E94EF0C8111EACF80910E01D7
:1020D000823009F044C00E947F0A0E94A60B0E9431
:1020E0001A0C8AE591E028E0C22EC80E80910F01FB
:1020F000813029F410920F018093090130C0809142
:102100005001813029F482E691E00E945F0E27C0E1
:102110008AE591E00E941F2081110FC0A3EEB1E07B
:10212000EAE5F1E021919D91291381E0CE12FACFE9
:10213000811103C00E94A60C12C024E083EE91E03E
:1021400029830E942F202981882309F4FAC2813033
:1021500069F2215099F7823049F60E94C20C8091B1
:102160000E01833009F050C00E947F0A0E94A60B26
:102170000E941A0C64E081E00E94E80985E397E080
:102180000E94FB0A8AE591E098E0C92EC80E809172
:102190000F01813029F410920F018093090134C09E
:1021A00080915001813029F482E691E00E945F0E17
:1021B0002BC08AE591E00E944309813041F3898375
:1021C0000E94980CA3EEB1E0EAE5F1E0898121914B
:1021D0009D91291381E0CE12FACF813019F00E942F
:1021E000A60C12C0B4E0BB2E83EE91E00E949409CD
:1021F000882309F4C2C2813039F0BA94B110F4CF07
:10220000823029F60E94C20C80910E018430B1F513
:102210000E947F0A0E94A60B0E941A0C80910F0157
:102220008130D1F410920F0195E090930E018093CC
:10223000E3011092E8011092E901A3EEAA2EA1E0B9
:10224000BA2E80E0F50161915F010E944506DA1027
:10225000F9CF8093EA0112C080910F01823031F4EE
:1022600081E08093090110920F0108C08091500114
:102270008130A1F682E691E00E945F0E80910E010E
:102280008550823008F058C00E947F0A0E94A60B39
:102290000E941A0C80910F018130B9F510920F0144
:1022A00040910E012091E4013091E7018091E50118
:1022B0009091E6014530E9F446E040930E013093F9
:1022C000E4012093E7019093E5018093E601F3EEAA
:1022D000AF2EF1E0BF2E20E030E0F50161915F010B
:1022E000822F0E944506282FDA10F7CF8093EA014B
:1022F00023C044E040930E013093E4012093E701B2
:102300009093E5018093E60117C080910F01823020
:1023100031F481E08093090110920F010DC080918A
:102320005001813029F482E691E00E945F0E04C0E2
:102330000E94EF0C8111AECF80910E018730A9F57C
:102340000E947F0A0E94A60B0E941A0C80910F0126
:102350008130C9F410920F0198E090930E018093A0
:10236000E301E3EEAE2EE1E0BE2E20E030E0F50129
:1023700061915F01822F0E944506282FDA10F7CF66
:102380008093EA0112C080910F01823031F481E024
:102390008093090110920F0108C080915001813093
:1023A000A9F682E691E00E945F0E80910E018850AE
:1023B000823008F0AEC00E947F0A0E94A60B0E94E5
:1023C0001A0C20910F01213009F08CC010920F01DE
:1023D00080910E01883009F04AC089E080930E0197
:1023E0009091E401E92FEF70F0E0EB5CF64F24915F
:1023F000E92FF0E054E0F695E7955A95E1F7EB5CAC
:10240000F64FE491F0E1EF9FC0011124822B8093FD
:10241000E4019091E501E92FEF70F0E0EB5CF64FFD
:102420002491E92FF0E064E0F695E7956A95E1F7ED
:10243000EB5CF64FE49130E1E39FC0011124822B65
:102440008093E50180E88093E60173EEA72E71E0AA
:10245000B72E20E030E0F50161915F01822F0E94EC
:102460004506282FDA10F7CF8093EA0152C0893051
:1024700009F038C087E080930E019091E401E92FC4
:10248000EF70F0E0EB5CF64F3491E92FF0E094E070
:10249000F695E7959A95E1F7EB5CF64FE491F0E15C
:1024A000EF9FC0011124832B8093E4019091E501FB
:1024B000E92FEF70F0E0EB5CF64F3491E92FF0E09C
:1024C00044E0F695E7954A95E1F7EB5CF64FE49129
:1024D00040E1E49FC0011124832B8093E501209308
:1024E000E60117C080910F01823031F481E08093C2
:1024F000090110920F010DC080915001813029F423
:1025000082E691E00E945F0E04C00E94EF0C8111F0
:1025100058CF80910E018A3008F4AACD81E08093D3
:102520000901A6CD8AE591E00E945C1F81114EC091
:1025300090920E010E94DE0C80910901813009F019
:10254000A2C00E947F0A61E08BE00E94E8090E941D
:10255000020F92EA899F50011124A114B10429F4B9
:102560008FE097E00E94FB0A1CC0C501B8010E94E1
:102570008C21B3010E948C2180E3860F0E94BB0A4C
:102580008CE20E94BB0AC501B3010E948C21B701F5
:102590000E948C2180E3860F0E94BB0A82EE0E947B
:1025A000BB0A63E084E00E94E80984E097E00E94AF
:1025B000FB0A83EF96E00E9441218AE591E00E94A8
:1025C0005807813009F4AECF81E007C08AE591E079
:1025D0000E944309811104C083E080930E01AACFB9
:1025E0008AE591E00E948014811102C084E0F5CF59
:1025F0008AE591E00E94B205811103C0C0920E01EC
:1026000099CF8AE591E00E94770D811121C00E9447
:102610007F0A0E94A60B63E084E00E94E8098AE535
:1026200091E00E94EF0A8AE591E00E9435218FEE49
:1026300096E00E94FB0A88EE96E00E94412185E523
:1026400099E00E94B62080910F018823E1F374CFB6
:1026500080910F01813031F410920F0183E080935B
:1026600009016ACF80910F01823019F410920F0195
:1026700063CF80915001813009F09FCF82E691E0D5
:102680000E945F0E59CFCC24C39482E0B82E809173
:102690000901833009F04EC080E091E00E94D61914
:1026A0008093E201882341F086ED96E00E9441216B
:1026B00081E0809309013EC010920D0110920C013F
:1026C000C0920F0180E090E00196EFE3FCE93197C2
:1026D000F1F700C00000853FF1E09F0738F0B092AD
:1026E000090185E599E00E94B620D1CF20910F0124
:1026F000213031F410920F010E940E0F80E090E023
:1027000020910F01223069F40E940E0F2FEF33EC5D
:1027100049E0215030404040E1F700C0000080E037
:1027200090E020915001213079F682E691E00E94FC
:102730005F0EADCF809109018150823008F0EECE5E
:1027400097CC0E947F0A63E081E00E94E80988E557
:1027500097E00E94FB0A84E497E00E9441218FE405
:1027600099E00E94B6208FEF93EDE0E38150904016
:10277000E040E1F700C00000F2CC0E947F0A63E075
:1027800081E00E94E80987E297E00E94FB0A83E16A
:1027900097E00E9441218FE499E00E94B620FFEF6C
:1027A00023ED30E3F15020403040E1F700C000005D
:1027B0002BCDEF92FF920F931F93CF93DF939C014A
:1027C000285F3F4FFC011192E217F307E1F7E09118
:1027D00051012E2F207E203409F08AC020E030E005
:1027E000F0E0D9019396ED0163E0D595C7956A9520
:1027F000E1F7CF5ADE4F488150E0A770BB2702C0F7
:10280000440F551FAA95E2F7DF01022E02C0AA0F5E
:10281000BB1F0A94E2F74A275B2747FD69C02F5F79
:102820003F4F28303105E9F623E030E0A0E8B0E082
:10283000C4E0D0E04DEF420FF90153E0F595E79584
:102840005A95E1F7EF5AFE4FE0810E2F10E0F901A3
:10285000E770FF277D0102C0F594E794EA95E2F75F
:10286000F701E023F123EF2BA1F0542F5695569555
:102870005695FE01E51BF109E80FF91F47708D0120
:1028800002C0159507954A95E2F7A8015081452B9E
:1028900040832F5F3F4F2332310561F6FC013496B0
:1028A00000E810E0FF24F3943081C32FD0E040E033
:1028B00050E020E0D801042E02C0B595A7950A94F7
:1028C000E2F7AC23BD23AB2B09F02F254F5F5F4F01
:1028D0004730510579F7632F617070E030E062177F
:1028E000730731F43197E817F907F1F680E001C07A
:1028F00081E0DF91CF911F910F91FF90EF900895AC
:10290000CF93DF93EC0180E680937C003AE63A9522
:10291000F1F700C0E1E5F1E089E08E0F11928E132E
:10292000FDCF24E680E090E030917900830F911D87
:1029300065E36A95F1F700002150B1F764E670E0B5
:102940000E948C21262F34E680E040E050E090E0A9
:1029500060917900621730F4882321F0490F511DEE
:1029600080E011C060917900261730F4811104C015
:10297000490F511D81E007C065E16A95F1F700003C
:102980009F5F983C29F7315011F7CA0164E670E067
:102990000E948C21762F6550633108F057C09FEF5D
:1029A00085E38A95F1F7000080917900821718F08D
:1029B0009150B1F74BC080E035E33A95F1F7000054
:1029C00030917900231720F08F5F8436A9F702C079
:1029D000781770F790E0A0E8B0E030E080917900DF
:1029E000821740F065E16A95F1F700003F5F3739E3
:1029F000A9F704C0363951F1731790F4E92FE69521
:102A0000E695E695F0E0EF5AFE4F892F8770AD010D
:102A100002C0559547958A95E2F78081482B4083FF
:102A200030E080917900281778F085E18A95F1F7F8
:102A300000003F5F3739A9F79F5F963471F6CE01EA
:102A4000DF91CF910C94D9133639B1F781E0DF9142
:102A5000CF9108958FEF8EBD0DB407FEFDCF8EB5DB
:102A60000895CF92DF92EF92FF92CF93C82F6A0121
:102A70007B0187FF09C040E050E0BA0187E70E9470
:102A800031158230D0F5CF772A9A0E942A152A98DC
:102A90000E942A15CEBD0DB407FEFDCF8F2D9927BC
:102AA000AA27BB278EBD0DB407FEFDCFC701AA27FD
:102AB000BB278EBD0DB407FEFDCFBB27AF2D9E2DCE
:102AC0008D2D8EBD0DB407FEFDCFCEBC0DB407FE1F
:102AD000FDCFC03421F0C83421F487E803C085E974
:102AE00001C081E08EBD0DB407FEFDCFCAE00E949B
:102AF0002A1587FF02C0C150D1F7CF91FF90EF9008
:102B0000DF90CF90089584B18C6284B9249885B108
:102B10008C6385B980E58CBD81E08DBD0895DF9221
:102B2000EF92FF920F931F93CF93DF9300D000D0CB
:102B3000CDB7DEB70E9483152A9A1AE00E942A15A3
:102B40001150E1F740E050E0BA0180E40E943115F5
:102B5000813009F083C04AEA51E060E070E088E427
:102B60000E943115813071F58E010F5F1F4F780182
:102B700024E0D22ED00E0E942A15F70181937F0106
:102B8000DE12F9CF8B81813009F068C08C818A3ADE
:102B900009F064C090E1E92E97E2F92E40E050E0A0
:102BA00060E070E489EE0E943115882379F18FE8A6
:102BB00091E00197F1F700C0000091E0E91AF108F7
:102BC00069F74CC040E050E0BA0189EE0E9431152F
:102BD000823018F011E001E402C012E009EE80E159
:102BE000E82E87E2F82E40E050E0BA01802F0E94E4
:102BF0003115882351F18FE891E00197F1F700C07A
:102C0000000091E0E91AF10871F728C040E050E0B7
:102C1000BA018AE70E943115811120C00E942A154D
:102C2000F80181938F01DE12F9CF898186FD02C000
:102C300014E001C01CE0109310012A9A0E942A158A
:102C400081E0112369F080E00BC040E052E060E0D9
:102C500070E080E50E943115882369F310E0EBCF26
:102C60000F900F900F900F90DF91CF911F910F91C8
:102C7000FF90EF90DF900895CF92DF92EF92FF9256
:102C80000F931F93CF93DF937C0169018091100113
:102C900083FD07C089E0440F551F661F771F8A9583
:102CA000D1F781E50E943115882311F0C1E02BC0D6
:102CB000C0E4DCE90E942A158F3F19F42197D1F76F
:102CC000F5CF8E3F99F7C2E0D2E0C01BD10BCC19F3
:102CD000DD09C114D10421F4E114F10439F40EC06A
:102CE0000E942A1581E0C81AD108F3CF0E942A1544
:102CF000F70181937F0101501109C1F70E942A1544
:102D00002197E1F7C0E02A9A0E942A158C2FDF91C3
:102D1000CF911F910F91FF90EF90DF90CF9008958A
:102D20000F931F93E0911101F09112019B01AC01EF
:102D3000225031094109510986819781A085B185C9
:102D40000297A109B109281739074A075B0768F4F8
:102D5000A281B0E00E94C8210289138924893589A3
:102D6000600F711F821F931F03C060E070E0CB01F2
:102D70001F910F9108950F931F93CF93DF93DC0161
:102D8000E0911101F091120111961C921E9214967D
:102D90006D917D918D919C911797613071058105A1
:102DA000910561F1068117812085318560177107D2
:102DB0008207930718F5611571058105910539F4AE
:102DC0002081233021F46685778580899189ED0102
:102DD000688779878A879B876115710581059105C9
:102DE00019F00E94901604C06685778580899189C4
:102DF0006C877D878E879F8780E001C081E0DF91AF
:102E0000CF911F910F9108954F925F926F927F9291
:102E1000AF92BF92CF92DF92EF92FF920F931F93E8
:102E2000CF93DF9300D000D0CDB7DEB76B017C012C
:102E3000A0901101B090120182E0C816D104E10403
:102E4000F10408F4C0C0F50186819781A085B185A1
:102E5000C816D906EA06FB0608F0B5C080818230A4
:102E600009F456C0833009F473C0813009F0ABC057
:102E70002601569447944C0C5D1C92013170452CF0
:102E800055244694612C712C428553856485758543
:102E9000440D551D661D771D2F3FF1E03F0729F0BA
:102EA00002E010E0CE0101961BC001E010E02FEF20
:102EB00031E0CE0101960E943C16811184C0F501DB
:102EC00042855385648575854F5F5F4F6F4F7F4F98
:102ED000440D551D661D771D20E030E0CE010296A1
:102EE0000E943C1681116FC08A8190E0982F88273C
:102EF0002981822BC0FE07C0BC0184E076956795CE
:102F00008A95E1F702C0BC017F7080E090E05FC06D
:102F100096013327220F331F77276F2D5E2D4D2DFE
:102F2000F50182859385A485B585480F591F6A1FD1
:102F30007B1F02E010E0CE0101960E943C16811139
:102F400042C06A8170E0762F66278981682BDDCFC9
:102F500096012F773327220F331F220F331FA7E04D
:102F6000F694E794D794C794AA95D1F7F5014285D2
:102F70005385648575854C0D5D1D6E1D7F1D04E0B8
:102F800010E0CE0101960E943C1681111CC02C81DC
:102F90006B81862F90E0A0E0B0E0DC0199278827C4
:102FA000B22B2981AC01BD01422B8A8190E0982F80
:102FB0008827A0E0B0E0842B952BA62BB72BBC0173
:102FC000CD019F7004C061E070E080E090E00F9060
:102FD0000F900F900F90DF91CF911F910F91FF9065
:102FE000EF90DF90CF90BF90AF907F906F905F9009
:102FF0004F900895CF92DF92EF92FF920F931F931D
:10300000CF93DF93EC016A017B0102E010E02EEF29
:1030100031E00E943C16811132C0898190E0982FE6
:1030200088272881822B85359A4A59F526E330E096
:10303000B701A601CE010E943C1681110BC0898107
:1030400090E0982F88272881822B8634914411F4B0
:1030500080E01AC002E010E022E530E0B701A601EE
:10306000CE010E943C1681110EC0898190E0982FFC
:1030700088272881822B8634914429F4E9CF83E084
:1030800003C082E001C081E0DF91CF911F910F91D9
:10309000FF90EF90DF90CF9008954F925F926F92E4
:1030A0007F928F929F92AF92BF92DF92EF92FF92A8
:1030B0000F931F93CF93DF93CDB7DEB7E0970FB693
:1030C000F894DEBF0FBECDBF109212011092110115
:1030D000009709F452C17C010E948F1580FD4FC1F9
:1030E00040E050E0BA01CE0101960E94FA1781300B
:1030F000A1F500E110E02EEB31E040E050E0BA0134
:10310000CE0101960E943C16882311F081E038C15F
:103110008D81811102C087E033C18C858B84912C15
:10312000A12CB12C540199248824B82A89859501B1
:103130008401082BD901C8018A84912C982C8824F9
:10314000A12CB12C882A992AAA2ABB2AB501A4014C
:10315000CE0101960E94FA1703C0812C912C5401D4
:103160008330A1F28111D7CF04E210E02DE030E0EE
:10317000B501A401CE0101960E943C168111C6CF73
:103180002B8530E0322F22278A85282B2115310507
:1031900019F040E050E018C08B8D2A8D422F50E08E
:1031A00060E070E0BA0155274427782B888D482BC2
:1031B000898D90E0982F8827A0E0B0E09A01AB01BC
:1031C000282B392B4A2B5B2BAC81B0E00E94C82105
:1031D0002B013C016B8170E0762F66278A81682B7A
:1031E0009B0140E050E029A73AA74BA75CA7820EBD
:1031F000931EA41EB51ED7011A968D929D92AD9274
:10320000BC921D97D9801296DC9212974E8150E0A5
:10321000542F44272D81422B15965C934E9314977F
:10322000288530E0322F2227EF812E2B2115310502
:1032300021F0890120E030E022C0FF89EE890E2FC5
:1032400010E020E030E09801112700273F2BEC89A7
:10325000C901B8016E2B6DA77EA78FA798ABED892A
:10326000AE2FB0E0FA2FEE27CF01A0E0B0E00DA521
:103270001EA52FA538A9082B192B2A2B3B2B74E050
:10328000569547957A95E1F7BA0180E090E06DA3F5
:103290007EA38FA398A7D901C80149A55AA56BA5FC
:1032A0007CA5841B950BA60BB70B84199509A60961
:1032B000B709BC01CD010DA11EA12FA138A5601B2E
:1032C000710B820B930B2D2D30E040E050E00E94FB
:1032D000A021DA01C9010296A11DB11DF701868363
:1032E0009783A087B187873FFFE09F07A105B105BE
:1032F00038F0873F9F4FA105B10520F083E003C060
:1033000081E001C082E0D7018C938330B1F42BA11E
:103310008AA190E0A0E0B0E0DC0199278827B22BD9
:1033200028A1822B49A150E0542F442760E070E08F
:10333000842B952BA62BB72B06C0D301C201880D79
:10334000991DAA1DBB1DF70186879787A08BB18B9E
:103350000DA11EA12FA138A5800E911EA21EB31E85
:10336000480C591C6A1C7B1C428A538A648A758AE1
:103370001182F0921201E092110180E001C082E01E
:10338000E0960FB6F894DEBF0FBECDBFDF91CF91B0
:103390001F910F91FF90EF90DF90BF90AF909F90A3
:1033A0008F907F906F905F904F9008954F925F92B3
:1033B0006F927F929F92AF92BF92CF92DF92EF92E5
:1033C000FF920F931F93CF93DF93CDB7DEB7EC97A8
:1033D0000FB6F894DEBF0FBECDBFE0901101F090A4
:1033E0001201E114F10409F465C1D70111961C9290
:1033F0009E012F5C3F4F3CA32BA3FC012E2F9F2F40
:1034000081918032D9F3C22ED92E8F3219F4BFEFB9
:10341000CB1ADB0A1DA21EA21FA218A6F6018081EC
:10342000813238F0A0E29A2E5E01FCE0AF0EB11CB2
:1034300069C0CE0181960E94BB161982882309F4C7
:10344000F5C048C190E080E028E031E0380FD601B7
:10345000A80FB11D8C91813208F05FC0C30ED11C42
:1034600091E0813208F090E09387CE0181960E942E
:10347000BB168111D1C029A13AA12F703327F5E0E5
:10348000220F331FFA95E1F74DA55EA56FA578A928
:1034900000E210E0CE0101960E943C1681110EC19F
:1034A0008981882309F4BBC04C8543FD54C06BA1BE
:1034B0007CA1FE0131969B01EA15FB0509F042C093
:1034C000DB011B968C918111B1C044FFFBC08E893A
:1034D00090E0982F88272D89822BA0E0B0E0DC01B6
:1034E000992788274C8D50E0542F44272B8D422B51
:1034F00060E070E0842B952BA62BB72B8DA39EA3A9
:10350000AFA3B8A7EBA1FCA1DF01CF010B96A817D1
:10351000B90709F497CF9D92FACF8F3209F49ECF65
:103520008E3209F4D1C0921708F098CF4FE9480FB6
:103530004A3108F48052DF01A90FB11D8C939F5FBF
:10354000832F83CF8191D9015D919D0190E0851BEF
:10355000910909F4B1CF609011017090120109A195
:103560001AA10F5F1F4F09F456C08DA59EA5AFA5E8
:10357000B8A90097A105B10509F44DC098012F70B5
:103580003327232B09F044C00196A11DB11D8DA73F
:103590009EA7AFA7B8AB69A57AA58BA59CA5611519
:1035A00071058105910539F4F3018481958108172E
:1035B000190788F52DC0D30112962C9130E0A9018E
:1035C000415051099801E4E036952795EA95E1F7D5
:1035D00024233523232BE1F40E9404176230710564
:1035E0008105910508F468C0F30146805780608426
:1035F0007184641575058605970568F469A77AA72F
:103600008BA79CA70E9490166DA77EA78FA798AB4B
:103610001AA309A330CF83E0833009F05BC0EBA18C
:10362000FCA18385882309F44DC04AC08981882381
:1036300009F446C08C8584FD43C08E8990E0982FA4
:1036400088272D89822BA0E0B0E0DC01992788270C
:103650004C8D50E0542F44272B8D422B60E070E0BE
:10366000842B952BA62BB72BF701868F978FA0A3C2
:10367000B1A328A18F8D90E0A0E0B0E0DC019927F4
:103680008827B22B2D8D822B4E8D50E0542F44274E
:1036900060E070E0842B952BA62BB72B828F938F45
:1036A000A48FB58F168A178A108E118E81E08183C0
:1036B00080E010C086E00EC081E0AECF81E00AC09D
:1036C00083E008C084E006C0283009F0C7CE98E047
:1036D0002BE036CFEC960FB6F894DEBF0FBECDBF11
:1036E000DF91CF911F910F91FF90EF90DF90CF90DE
:1036F000BF90AF909F907F906F905F904F90089594
:103700004F925F926F927F928F929F92AF92BF92F1
:10371000CF92DF92EF92FF920F931F93CF93DF939D
:103720004C016B015A01C0911101D0911201FA01B3
:1037300011821082209709F4A1C0898180FFA0C066
:103740008A8D9B8DAC8DBD8D4E895F89688D798DFD
:10375000841B950BA60BB70BA60160E070E08417E5
:103760009507A607B70708F46C013401412C32E035
:10377000532EC114D10409F47CC08E899F89A88D71
:10378000B98DAC01BD01517066277727452B462BBB
:10379000472BE1F5FA80FA94AC01BD0129E076955A
:1037A0006795579547952A95D1F7F422C9F4892B47
:1037B0008A2B8B2B29F46E8D7F8D88A199A106C051
:1037C0006AA17BA18CA19DA10E94041762307105A2
:1037D0008105910508F44FC06AA37BA38CA39DA328
:1037E0006AA17BA18CA19DA10E9490166115710513
:1037F0008105910509F43FC0DC01CB018F0D911DBE
:10380000A11DB11D8EA39FA3A8A7B9A72E893F898B
:103810003170C201821B930B76018C159D0508F453
:103820007C014EA15FA168A579A58114910411F0D6
:10383000C30102C080E090E087010E943C16811124
:103840001AC08E899F89A88DB98D8E0D9F1DA11DCF
:10385000B11D8E8B9F8BA88FB98F6E0C7F1CCE18DD
:10386000DF08F50180819181E80EF91EF182E08286
:1038700080CF80E006C0198281E003C086E001C0ED
:1038800085E0DF91CF911F910F91FF90EF90DF9036
:10389000CF90BF90AF909F908F907F906F905F90F0
:1038A0004F9008954F925F926F927F928F929F9266
:1038B000AF92BF92CF92DF92EF92FF920F931F933E
:1038C000CF93DF9300D000D0CDB7DEB7362F272FB0
:1038D00000911101109112010115110509F4E6C0C2
:1038E000D80111964C91119740FFE2C05A964D9124
:1038F0005D916D917C915D97C32ED22E7C014C150C
:103900005D056E057F0510F46A017B01F8014688AC
:103910005788608C718C168A178A108E118EC1148C
:10392000D104E104F10409F4C5C08280912CA12CDA
:10393000B12C39E0880C991CAA1CBB1C3A95D1F714
:10394000411451046104710409F43FC0B1E04B1A01
:10395000510861087108C701B601615071098109F8
:103960009109A50194010E94A02129833A834B83E8
:103970005C83C301B201A50194010E94A021898149
:103980009A81AB81BC8182179307A407B507E8F041
:1039900088279927DC0188199909AA09BB094822B7
:1039A00059226A227B22D80156964D925D926D92E1
:1039B0007C925997C418D508E608F70892966D913D
:1039C0007D918D919C91959731C0F801668D778D91
:1039D00080A191A162A373A384A395A327C00E9491
:1039E0000417623071058105910508F45AC0F80189
:1039F0004680578060847184641575058605970537
:103A000008F04FC062A373A384A395A34688578888
:103A1000608C718C480C591C6A1C7B1C468A578A26
:103A2000608E718EC818D908EA08FB088C149D04B2
:103A3000AE04BF04A0F2D80156968D909D90AD9033
:103A4000BC905997C80CD91CEA1CFB1CF801C68A0B
:103A5000D78AE08EF18E0E9490166115710581055E
:103A60009105F9F029E0F694E794D794C7942A9544
:103A7000D1F7D80112962C9130E02150310949013B
:103A8000330FAA08BB08C820D920EA20FB20C60EA5
:103A9000D71EE81EF91EF801C6A2D7A2E0A6F1A61D
:103AA00009C0D80111961C9281E005C086E003C0D0
:103AB00085E001C080E00F900F900F900F90DF9194
:103AC000CF911F910F91FF90EF90DF90CF90BF901B
:103AD000AF909F908F907F906F905F904F900895E0
:103AE00082E484BD81E085BD8FE387BD569A3B9A11
:103AF0003A98439A0895882331F087EE93E001972E
:103B0000F1F700C000008FEC92E00197F1F700C0E0
:103B10000000569843988FE792E00197F1F700C0B4
:103B20000000569A439A0895CF92DF92EF92FF9247
:103B30001F93CF93DF931F92CDB7DEB7F82E162FCA
:103B400056984398EFEBF3E03197F1F700C000008F
:103B5000569A439A81E099830E947B1D80E00E94DF
:103B60007B1D80E00E947B1DCF2C9981D92E760190
:103B7000F0E2EF0EF11CF60181916F010E947B1DB6
:103B8000CE14DF04C1F7812F84700E947B1D812F2A
:103B900082700E947B1D812F81700E947B1DFFEF30
:103BA00026E781E0F15020408040E1F700C00000AE
:103BB0000F90DF91CF911F91FF90EF90DF90CF900A
:103BC0000895AF92BF92CF92DF92EF92FF920F9340
:103BD0001F93CF93DF93EBEEF1E031E029E02E0F5E
:103BE00031932E13FDCFE0E0F0E060E070E0D0E82C
:103BF000AD2EB12CEE24E39440E050E0F12CDB013B
:103C0000A551BE4F9A012E0F3F1F890137FF02C0F9
:103C1000095F1F4FC3E015950795CA95E1F76C0141
:103C2000C01AD10A27703327E50102C0D595C79580
:103C30002A95E2F79E01E6013D8123238D01040FC1
:103C4000151FE80129872111FE244F5F5F4F443083
:103C50005105C1F61D96FC926B5F7F4F349662331F
:103C6000710551F6E6E2F2E031E064E06E0F80E0CB
:103C700090E020E0AF014B535109DA01A80FB91FC2
:103C800019967C9171112327059682339105A9F726
:103C900021936E13ECCF10922A02DF91CF911F91E6
:103CA0000F91FF90EF90DF90CF90BF90AF9008956D
:103CB000CF93DF9300D000D0CDB7DEB7198284E177
:103CC0008A8380E88B8380E48C83EBEEF1E080E0F4
:103CD00060E870E091E0282F269526952695A1E0D2
:103CE000B0E0AC0FBD1FA20FB11D2C91422F50E0D0
:103CF000282F2770DB0102C0B595A7952A95E2F71A
:103D00009D0124233523232B11F0908301C01082C1
:103D10008F5F31968032F9F60F900F900F900F90D1
:103D2000DF91CF9108952091790081E09091530225
:103D3000921708F080E00895CF92DF92EF92FF9201
:103D40000F931F93CF93DF93E0E0F0E061E070E02A
:103D5000A0E0D12CB0E0CF0123E0969587952A957D
:103D6000E1F7855D9D4FEC01888190E09F01277010
:103D7000332702C0959587952A95E2F78170992798
:103D80009B0143E0369527954A95E1F7255D3D4F28
:103D9000E901488150E09B012770332702C0559507
:103DA00047952A95E2F7417055276F5F7F4F9B013A
:103DB000C3E036952795CA95E1F7255D3D4FE901AA
:103DC000288130E07B01D7E0ED22FF2402C0359549
:103DD0002795EA94E2F7217033274115510519F42C
:103DE000892BC9F422C02130B1F0841301C0A82F5F
:103DF0008B2F90E085519E4FEC01A883BF5FB034BC
:103E000090F4D8E0DD1538F0A13011F4D39403C05C
:103E1000A0E0D12CB0E031966F3381E0780709F053
:103E20009ACF82E006C080E004C0232BA1F3A0E07B
:103E3000DFCFDF91CF911F910F91FF90EF90DF9037
:103E4000CF90089580E090E020E030E040E0FC0179
:103E5000E551FE4FDF01A20FB31F19965C91452774
:103E60002F5F3F4F24303105A9F72585241322C049
:103E700005968233910541F7E6E2F2E034E03E0F29
:103E800080E090E020E0AF014B535109DA01A80F28
:103E9000B91F19966C912627059682339105B1F7C3
:103EA0008191821307C03E13EBCF80912A028111CA
:103EB00001C0089582E00895CF92DF92FF920F93A0
:103EC0001F93CF93DF931F92CDB7DEB78C0182E6AD
:103ED00080937C0024E680E090E030917900830FAD
:103EE000911D3AE63A95F1F700C02150B1F764E62A
:103EF00070E00E948C2160935302EBE2F2E088E2D2
:103F00008E0F11928E13FDCFC12CD12C0E94931EC7
:103F1000F82E95E065E36A95F1F7000099830E9419
:103F2000931E9981F81639F0E7ECF0E03197F1F73C
:103F300000C0000003C09F5F963461F787EF890FD0
:103F4000883308F070C02F2D30E0F60143E0F6957D
:103F5000E7954A95E1F7E55DFD4FA60147705527C6
:103F6000B90102C0660F771F4A95E2F7AB01808165
:103F7000482B40839632A8F07FEFC71AD70AF60184
:103F800083E0F695E7958A95E1F7E55DFD4FC6017B
:103F90008770992701C0220F8A95EAF78081282B24
:103FA00020838FEFC81AD80A90E4C91691E0D90689
:103FB00008F4ACCF0E949C1E811137C00E94221FC2
:103FC000811133C0F8011082369660E070E01292E1
:103FD000DB01AC50BE4F27E030E04D91022E01C016
:103FE000440F0A94EAF79081492B4083215031090C
:103FF0002330310591F7DB01A750BE4F4D91022EC2
:1040000001C0440F0A94EAF79081492B4083215064
:104010003109A0F7665F7F4F62337105C1F6F80181
:104020001682178203C081E001C082E00F90DF9109
:10403000CF911F910F91FF90DF90CF9008950F9334
:104040001F93CF938C01C0E1C8010E945C1F88239D
:1040500011F0C150C9F7CF911F910F910895CF92E0
:10406000DF92EF92FF920F931F93CF93DF93CDB721
:10407000DEB728970FB6F894DEBF0FBECDBF8C0118
:104080000E94581E60E08BEE91E00E94941DC801D2
:104090000E94E11D61E08BEE91E00E94941D62E0C0
:1040A0008BE092E00E94941D569843982FEF89EF81
:1040B00090E0215080409040E1F700C00000569A07
:1040C000439AEFEFF9EF20E0E150F0402040E1F7B4
:1040D00000C0000078018FEFE81AF80A6E0192E044
:1040E000C90ED11C0A5F1F4FD601F701919190951F
:1040F0009D93E017F107D1F7CE0101960E941F2092
:1041000081110EC0F70191917F01F60181916F013C
:10411000981305C0E016F106A9F780E001C082E01F
:1041200028960FB6F894DEBF0FBECDBFDF91CF91BA
:104130001F910F91FF90EF90DF90CF90089520E0B6
:1041400030E02817390749F0EFE9FFE03197F1F740
:1041500000C000002F5F3F4FF4CF08951092800001
:1041600089E080938100219A299808951F93CF9325
:10417000DF93EC0110E4FE012491222321F1E22FD0
:10418000EF71229526952770EE2379F0F0E0EE0F7F
:10419000FF1FAF014559564FFA01859194919093B5
:1041A0008900809388001093800030E0220F331F35
:1041B000255A364FF901859194910E949F201092C3
:1041C00080002196D8CFDF91CF911F9108951F9243
:1041D0000F920FB60F9211248F939F93EF93FF933B
:1041E000809113019091C600E82FF0E0EC5AFD4F4A
:1041F00090838F5F803419F08093130102C0109276
:104200001301FF91EF919F918F910F900FBE0F902F
:104210001F901895519A50981092C50080E1809394
:10422000C40086E08093C20088E98093C10078943E
:1042300008959091C00095FFFCCF8093C60008952B
:10424000CF93C82F82958F708A3010F4805D01C0A3
:10425000895C0E9419218C2F8F708A3010F4805D48
:1042600001C0895CCF910C941921CF93DF93EC01AD
:104270008991882319F00E941921FACFDF91CF91FB
:104280000895CF93DF93FC018491EF012196882359
:1042900021F00E941921FE01F7CFDF91CF910895FF
:1042A000AC01F8942091140190E08091130128173B
:1042B00091F0203409F420E0A22FB0E0AC5ABD4FB9
:1042C0008C91FA01E90FF11D80839F5F8C918A30F8
:1042D00011F02F5FEACF992341F0E92FF0E03197F9
:1042E000E40FF51F80818A3019F0789481E00895F9
:1042F00010828091130180931401789480E00895D6
:10430000991B79E004C0991F961708F0961B881F27
:104310007A95C9F780950895AA1BBB1B51E107C088
:10432000AA1FBB1FA617B70710F0A61BB70B881F45
:10433000991F5A95A9F780959095BC01CD010895D4
:10434000A1E21A2EAA1BBB1BFD010DC0AA1FBB1F99
:10435000EE1FFF1FA217B307E407F50720F0A21B0B
:10436000B30BE40BF50B661F771F881F991F1A9478
:1043700069F760957095809590959B01AC01BD01A2
:10438000CF010895EE0FFF1F0590F491E02D0994E1
:104390000E94D321A59F900DB49F900DA49F800DE6
:1043A000911D11240895A29FB001B39FC001A39F46
:1043B000700D811D1124911DB29F700D811D11245E
:0843C000911D0895F894FFCF50
:0A43C8006B6579732E6373760001B4
:00000001FF
