:100000000C949C050C94B9050C94B9050C94B90595
:100010000C94B9050C94B9050C94B9050C94B90568
:100020000C94B9050C9438200C94B9050C94B905BE
:100030000C94B9050C94B9050C94B9050C94B90548
:100040000C94B9050C94B9050C9434380C94B9058A
:100050000C94B9050C94B9050C94B9050C94B90528
:100060000C94B9050C94B9056022FF2115221C22BD
:100070002A22312238223F2246224D2254220000D9
:100080000000000000000000000000000000000070
:100090000000000000C0C030303030303030303030
:1000A0003030303030303030303030303030303050
:1000B000303030303030303030C0C0000000000010
:1000C0000000000000000000000000000000000030
:1000D0000000000000000000000000000000000020
:1000E00000000000000000FFFF00000000000030E2
:1000F0003000000000000000000C0C0000C0C0CC6C
:10010000CC000000000000C0C0000000000000FFA4
:10011000FF0000C0C0C0C0000000000000000000E0
:10012000000000000000000000000000000000FCD3
:10013000FCCCCC0C0C3C3CF0F0C0C0FFFF0000003D
:100140000000000000C0C00000030300000000FF2A
:10015000FF0000000003030C0C3030303030303032
:100160003030300F0F030300000000FFFF000000DD
:10017000000000000000000000000000000000007F
:10018000000000000003030F0F3C3C3030F3F3FF8E
:10019000FF000000000C0C00000000C0C0000303C2
:1001A00000FFFF00008080000030303C3C00000079
:1001B0000000003030000030303C3C008080000007
:1001C00000FFFF0000000000000000000000000031
:1001D000000000000000000000000000000000C05F
:1001E000C030303F3F3030C0C0C0C0C3C3C0C0C04B
:1001F000C0C0C0C0C0C3C3CCCCF1F1C0C0C0C0CF70
:10020000CFCCCCCCCCCFCFCCCCCCCCCFCFC0C0C043
:10021000C131300C0C03030000000000000000009E
:1002200000000000000000000000000000000000CE
:100230000000000F0F0C0C0C0C0F0F030300000F3D
:100240000F0C0C0C0C030300000000000000000366
:10025000030C0C0C0C0F0F000003030C0C0C0C0314
:10026000030000000000000000000000000000008B
:10027000000000000000000000000000002F00004F
:100280000007000700147F147F14242A7F2A1232EB
:100290003408162636495522500005030000001C7C
:1002A0002241000041221C0014083E081408083EA8
:1002B000080800005030001010101010006060009E
:1002C0000020100804023E5149453E00427F400094
:1002D00042615149462141454B311814127F102784
:1002E000454545393C4A49493001710905033649BC
:1002F000494936064949291E00363600000056365F
:100300000000081422410014141414140041221493
:10031000080201510906324959513E7E1111117EE0
:100320007F494949363E414141227F4141221C7F5C
:10033000494949417F090909013E4149497A7F08F4
:1003400008087F00417F41002040413F017F0814A1
:1003500022417F404040407F020C027F7F04081012
:100360007F3E4141413E7F090909063E4151215EE0
:100370007F09192946464949493101017F01013F59
:100380004040403F1F2040201F3F4038403F631403
:1003900008146307087008076151494543007F410D
:1003A000410004081020400041417F000402010286
:1003B0000440404040400001020000205454547862
:1003C0007F484444383844444420384444487F38C3
:1003D00054545418087E0901020C5252523E7F08B0
:1003E00004047800447D40002040443D007F1028F4
:1003F000440000417F40007C041804787C08040419
:100400007838444444387C14141408081414187CB4
:100410007C080404084854545420043F4440203CC1
:100420004040207C1C2040201C3C4030403C442864
:100430001028440C5050503C4464544C4408083636
:10044000414100007F0000414136080802010202DC
:10045000017F7F7F7F7F3E3E3E3E3E007F3E1C0809
:10046000081C3E7F00087C7E7C08103E7E3E10000B
:100470007E7F7E00007E7B7E00007E737E00007E9D
:10048000637E00007E437E0000003E0000201008D6
:1004900004020808080808020408102067657D05A2
:1004A0000708221C413E0502050000403C101C20AC
:1004B000552A552A5500070507007F7F7F7E7C005F
:1004C000000000000000000000000000000000002C
:1004D000000000000000000000000000000000001C
:1004E000000000000000000000000000000000000C
:1004F00000000000000000000000000000000000FC
:1005000000000000000000000000000000000000EB
:1005100000000000000000000000000000000000DB
:1005200000000000000000000000000000000000CB
:1005300000000000000000000000000000000000BB
:1005400000000000000000000000000000000000AB
:10055000000000000000000000000000000000009B
:10056000000000000000000000000000000000008B
:10057000000000000000000000000000000000007B
:10058000000000000000000000000000000000006B
:100590000000000000007C1211127C7F49494931A3
:1005A0007F494949367F01010101603F213F607F5A
:1005B0004949494177087F087722414949367F10E8
:1005C00008047F7E1009047E7F08142241403E010A
:1005D000017F7F020C027F7F0808087F3E41414176
:1005E0003E7F0101017F7F090909063E4141412209
:1005F00001017F0101074848483F0E117F110E633A
:10060000140814633F20203F60070808087F7F40DC
:100610007E407F3F203F207F017F4848307F483029
:10062000007F007F484830224149493E7F083E41D3
:100630003E462919097F20545454783C4A4A4A318D
:100640007C545428007C04040C00603C243C60383A
:10065000545454186C107C106C00445454287C2062
:1006600010087C7C2112097C7C102844004038044E
:10067000047C7C0810087C7C1010107C38444444B6
:10068000387C0404047C7C1414140838444444006A
:1006900004047C04040C5050503C08147C1408449E
:1006A000281028443C20203C600C1010107C7C401A
:1006B0007C407C3C203C207C047C5050207C5020A2
:1006C000007C007C50502028445454387C1038441E
:1006D00038485434147CCBEEE320EEF7E8F9E5ED2E
:1006E000210043616E2774206F70656E206C6F6708
:1006F0000D0A0043616E2774206F70656E206C6F69
:10070000670D0A0043616E2774206F70656E206B61
:100710006579730D0A00204F686D0D0A0020CEEC3C
:10072000005761697420666F722061206B65790DD6
:100730000A00C6E4F320EAEBFEF7208E0055534290
:100740000053440043616E2774206F70656E206B08
:100750006579730D0A004B542D3031206973207276
:1007600065636F726465640D0A004B542D3031204F
:10077000E7E0EFE8F1E0ED00CFEEE4EAEBFEF7E8CA
:10078000F2E520F9F3EF0074353535372069732031
:100790007265636F726465640D0A005435353537D0
:1007A00020E7E0EFE8F1E0ED00454D34333035204F
:1007B0006973207265636F726465640D0A00454D4C
:1007C0003433303520E7E0EFE8F1E0ED003B0D0A8F
:1007D000003BD6E8F4F0E0EB3B003BCCE5F2E0EA8E
:1007E000EEEC3B003BCAD22D30313B003BCFF0EE6C
:1007F000EAF1E83B003BC4E0EBEBE0F13B00CAD29E
:100800002D303100CCE5F2E0EAEEEC00D6E8F4F071
:10081000E0EB00CFF0EEEAF1E800C4E0EBEBE0F152
:100820000063796672616C006D6574616B6F6D0059
:100830006B742D303100726669640064616C6C61A8
:100840007300777269746500726561640020697372
:10085000207265636F726465640D0A0020E7E0EF43
:10086000E8F1E0ED00746D3230303400746D3230F8
:10087000303400746D3038763200746D3038763232
:100880000052573139393000525731393930005719
:1008900072697465206572726F720D0A00CEF8E895
:1008A000E1EAE020E7E0EFE8F1E8004B657920615C
:1008B0006C7265616479207265636F726465640D42
:1008C0000A008E20F3E6E520E7E0EFE8F1E0ED0036
:1008D00057726974696E672E2E2E0D0A00C7E0EFFD
:1008E000E8F1FBE2E0FE0020CEF7E8F1F2E8F2FCEE
:1008F00020EBEEE3200020D1ECEEF2F0E5F2FC205C
:10090000EBEEE3200020D0E0EDE4EEEC20CFF0EEC3
:10091000EAF1E80020D0E0EDE4EEEC20C4E0EBEBFF
:10092000E0F10020D1EFE8F1EEEA202020202020A5
:1009300020000D0A00F2E0E9ECF1EBEEF220003AC3
:10094000435243202046414D3A000D0A0052657340
:100950006973746F7200D0E5E7E8F1F2EEF00043DE
:10096000796672616C2E54432D303100D6E8F42E36
:1009700054432D30310043796672616C2E32303928
:10098000342E3100D6E8F42E323039340043796603
:1009900072616C00D6E8F4F0E0EB004D6574616BB9
:1009A0006F6D2E454C4300CCE5F22E454C43004D77
:1009B0006574616B6F6D2E4D4B393900CCE5F22EAD
:1009C0004D4B3939004D6574616B6F6D00CCE5F2AC
:1009D000E0EAEEEC004B542D303100CAD22D30311C
:1009E000005246494400CFF0EEEAF1E80044616C61
:1009F0006C617300C4E0EBEBE0F100547970653A90
:100A00002000D2E8EF3A20006572726F72206F709A
:100A1000656E696E672066696C653A206B657973EF
:100A20002E6373760D0A006572726F72206F7065A7
:100A30006E696E672066696C653A206C6F672E631D
:100A400073760D0A006F70656E696E6720726F6F46
:100A500074206469726563746F7279206661696C71
:100A600065640D0A006F70656E696E672066696C5B
:100A70006573797374656D206661696C65640D0AD0
:100A8000006F70656E696E67207061727469746959
:100A90006F6E206661696C65640D0A004D4D432FD1
:100AA000534420696E697469616C697A6174696F15
:100AB0006E206661696C65640D0A000F0B07030EFA
:100AC0000A06020D0905010C080400594D40594D54
:100AD000003B003E005900412041003432312F2DAF
:100AE000002D2F3132340020004000800000010032
:100AF0000200040008001000007177BF706B6A707C
:100B000064CD5E7B597554B74F3E4B04470943454E
:100B10003FB83B5F3835353832672FBE2C3B2ADC77
:100B2000279F2583238521A31FDD1D2F1C9B1A1CB6
:100B300019B4175F161D150011241FBECFEFD8E0A2
:100B4000DEBFCDBF11E0A0E0B1E0E2EFF5E702C00B
:100B500005900D92A632B107D9F725E0A6E2B1E0E3
:100B600001C01D92A034B207E1F70E9498270C94AF
:100B7000F73A0C940000FC01218130E0322F22274B
:100B80008081A901482BCA010895FC01238162815B
:100B9000862F90E0A0E0B0E0DC0199278827B22BF7
:100BA0002081822B2181BC01CD01722B0895FC0193
:100BB000718360830895FC01738362835183408352
:100BC00008950F931F93CF93DF93FC01DC010896E8
:100BD0001D92A817B907E1F780E020E0880FA22F47
:100BE000A695A695A695B0E0A55DBB4F4C9150E0AB
:100BF000922F977002C0559547959A95E2F740FD60
:100C000081608F70813021F4233010F0235003C0B5
:100C10002F5F203719F7A0E0B0E030E089010C5DCC
:100C20001F4FA8014A0F5B1FCA01D3E09595879516
:100C3000DA95E1F7855D9B4FEC01888190E0477084
:100C4000552702C0959587954A95E2F781709927B7
:100C5000BD01620F731FAB01C3E055954795CA955F
:100C6000E1F7455D5B4FEA01488150E06770772707
:100C700002C0559547956A95E2F74170552784174C
:100C8000950709F055C01196A432B10551F680E0E0
:100C900062E070E0A0E0B0E090E02C5F3F4F990F81
:100CA00089010A0F1B1FA801C3E055954795CA95F6
:100CB000E1F7455D5B4FEA01488150E0E801C7700C
:100CC000DD2702C055954795CA95E2F740FD916032
:100CD0001196A430B10519F79B3069F020F49730D4
:100CE00039F540E009C09D3021F09E3009F540EC17
:100CF00003C040E801C040E4982F92959F70DB014B
:100D0000A91BB109AE0FBF1F50E0982F9F70969599
:100D100002C0559547959A95E2F79C91492B4C93C3
:100D20008C5F803209F0B6CF81E0838380E001C020
:100D300081E0DF91CF911F910F910895CF93DF93C1
:100D4000EC0180E680937C003AE63A95F1F700C02A
:100D5000EBE2F4E08EE08E0F11928E13FDCF24E6CD
:100D600080E090E030917900830F911D45E34A9532
:100D7000F1F700002150B1F764E670E00E94E93815
:100D8000262F34E680E040E050E090E0609179006A
:100D9000621730F4882321F0490F511D80E011C003
:100DA00060917900261730F4811104C0490F511D5C
:100DB00081E007C065E16A95F1F700009F5F983C0C
:100DC00029F7315011F7CA0164E670E00E94E93852
:100DD000862F65506331E0F590E061E070E030E02F
:100DE00040917900241748F045E14A95F1F7000059
:100DF0003F5F3739A9F730E00AC03639E1F728C03C
:100E000045E14A95F1F700003F5F373941F04091E5
:100E100079004217A8F73639D9F0831788F4E92FFB
:100E2000E695E695E695F0E0E55DFB4F392F3770E6
:100E3000AB0101C0440F3A95EAF73081432B408360
:100E40009F5F903761F6CE01DF91CF910C94E10561
:100E500081E0DF91CF910895389A089540983898AD
:100E60000895862798E03CE8282F269580FF03C048
:100E7000822F832701C0822F9150B1F70895EF92FE
:100E8000FF920F931F93CF93DF93EC017C0188E0D7
:100E9000E80EF11C8E0180E0F80161918F010E9443
:100EA00031070E151F05C1F790E0299121119F5FB1
:100EB000CE15DF05D1F7992321F0882321F082E0B8
:100EC00003C081E001C080E0DF91CF911F910F91BD
:100ED000FF90EF900895811102C00C942C07389870
:100EE00008950E942C0785E08A95F1F7000081E0C3
:100EF0000E946B078FEF90E00197F1F700C00000B0
:100F0000089581110C9471070E942C078FEE90E0D8
:100F10000197F1F700C0000081E00E946B0795E3A4
:100F20009A95F1F7000008950E942C0785E08A95B4
:100F3000F1F7000081E00E946B07E0E3EA95F1F72A
:100F400086B1EBEDF0E03197F1F700C00000817061
:100F50000895CF93DF93D82FC8E08D2F81700E9422
:100F60008107D695C150C9F7DF91CF910895CF93EE
:100F7000DF93D82FD095C8E08D2F81700E94810714
:100F8000D6958FE39CE90197F1F700C00000C150AE
:100F900099F7DF91CF9108958FE599E00197F1F7E7
:100FA00000C000000E9471079FEF20E782E091508F
:100FB00020408040E1F700C000000895CF93DF9308
:100FC000D8E0C0E0C6950E9494078111C068D15056
:100FD000C9F78C2FDF91CF9108950E942C078FE0E5
:100FE0009EE00197F1F700C0000081E00E946B07CE
:100FF00095E39A95F1F70000309B12C0E7E1F1E02C
:101000003197F1F700C0000096B1892F817090FDF3
:1010100009C0E7E6F6E03197F1F700C00000089557
:1010200081E0089582E008950E942C078FE09EE001
:101030000197F1F700C0000081E00E946B0795E383
:101040009A95F1F700009AE000000000000000000F
:10105000000000000000000000000000309B03C002
:101060009F5F943689F7E7E6F6E03197F1F700C025
:10107000000026B1822F817020FF05C0933610F04A
:1010800080E00895892F0895BF92CF92DF92EF926A
:10109000FF920F931F93CF93DF93EC0110923904CB
:1010A0000E941408182F8A3010F481E031C083E3C5
:1010B0000E94A9076E0188E0C80ED11C7E010E9423
:1010C000DE07F70181937F01EC15FD05C1F7CE0125
:1010D0000E943F078823D1F018E00E941408082FCF
:1010E0008A3018F383E30E94A9077E01F701B190CB
:1010F0007F010E94DE07B812D8CFEC14FD04B1F7CF
:10110000115059F70093390482E002C0109339045A
:10111000DF91CF911F910F91FF90EF90DF90CF90D3
:10112000BF900895EF92FF920F931F93CF93DF9399
:101130008C010E94ED07882311F0C1E041C08DE1D0
:101140000E94A9070E9471078FE39CE90197F1F7BC
:1011500000C000000E94ED078111EFCF85ED0E94D5
:10116000A907E801780198E0E90EF11CF8018191E6
:101170008F010E94B7070E151F05C1F70E94ED07EA
:101180008111DBCF83E30E94A90719910E94DE073A
:10119000181315C0CE15DF05C1F70E94ED07C82F43
:1011A0008111CBCF8DE10E94A90780E00E948107C9
:1011B0008FE39CE90197F1F700C0000001C0C2E095
:1011C0008C2FDF91CF911F910F91FF90EF90089599
:1011D000EF92FF920F931F93CF93DF938C010E94A6
:1011E000ED07882311F0C1E041C081ED0E94A907FD
:1011F00080E00E9481078FE39CE90197F1F700C02E
:1012000000000E94ED078111EECF85ED0E94A90735
:10121000E801780198E0E90EF11CF80181918F0155
:101220000E94B7070E151F05C1F70E94ED07811137
:10123000DACF83E30E94A90719910E94DE071813F1
:1012400014C0CE15DF05C1F70E94ED07C82F81112C
:10125000CACF81ED0E94A9070E9471078FE39CE924
:101260000197F1F700C0000001C0C2E08C2FDF91B0
:10127000CF911F910F91FF90EF900895CF92DF9241
:10128000FF920F931F93CF93DF93F82E092F0E94A5
:10129000ED07182F81112BC08CE30E94A90780E075
:1012A0000E94A90780E00E94A907CF2DD02FF12C22
:1012B00005E66E0188810E94A9076881802F0E943F
:1012C0003107082F0E94DE07801711F012E010C0CE
:1012D0000E94CC070E94DE072196F60190818913B7
:1012E000F5CF01E00F0D083019F0F02EE2CF11E03C
:1012F000812FDF91CF911F910F91FF90DF90CF90C1
:1013000008956F927F928F929F92AF92BF92CF92E9
:10131000DF92EF92FF920F931F93CF93DF9300D052
:1013200000D0CDB7DEB74C01892B09F477C042302D
:1013300051056105710508F471C0CB01BA01D401F2
:10134000ED91FC912085608071802B3089F524E03F
:1013500030E040E050E00E949D39F401A284B38463
:10136000C484D584E684F784008911890E94E63913
:10137000F4E0EF2EF12C8E010F5F1F4FF301099562
:10138000882309F44BC009811A812B813C81011506
:1013900011052105310509F441C0D901C801805F5B
:1013A0009F4FAF4FBF404097A105B105A0F536C094
:1013B00022E030E040E050E00E949D39D4011A96CE
:1013C000AC901A971B96BC901B971C96CC901C97C0
:1013D0001D96DC901D971E96EC901E971F96FC9014
:1013E0001F9750960C91509751961C910E94E63988
:1013F000E2E0EE2EF12C8E010F5F1F4FF3010995F5
:10140000882361F089819A818C0120E030E0019786
:101410008F3E9F4F18F4B801C90104C060E070E02E
:1014200080E090E00F900F900F900F90DF91CF91A0
:101430001F910F91FF90EF90DF90CF90BF90AF90F2
:101440009F908F907F906F9008952F923F924F9230
:101450005F926F927F928F929F92AF92BF92CF9244
:10146000DF92EF92FF920F931F93CF93DF93CDB74D
:10147000DEB762970FB6F894DEBF0FBECDBF1C017A
:101480002A013B01892B09F4F9C04230510561055D
:10149000710508F4F3C0D1011A96BC91BD83F10126
:1014A000F385FE83D1011C96BC91BF83F101F585C4
:1014B000F887D1011E96BC91B987F101F785FA87AB
:1014C000D1015096BC91BB87F101F189FC87D10114
:1014D000ED91FC9180858B3009F0A4C0C301B2016D
:1014E00024E030E040E050E00E949D39AD80BE80B5
:1014F000CF80D884E984FA840B851C850E94E63964
:101500002D873E876A016F87788B898B9A8BD101F3
:10151000ED91FC910190F081E02D44E0E42EF12C5E
:101520008E010F5F1F4FA6010995882309F4A7C0FC
:1015300089809A80AB80BC8081149104A104B1049D
:1015400009F49AC0D501C401805F9F4FAF4FBF40DF
:101550000897A105B10508F491C0D501C401885FC1
:101560009F4FAF4FBF400897A105B10518F4812CDC
:10157000912C5401F10186A597A5A0A9B1A9892BA9
:101580008A2B8B2B21F446A657A660AA71AA198232
:101590001A821B821C82D101ED91FC910480F5819D
:1015A000E02D24E0E22EF12C8E010F5F1F4F2D85E0
:1015B0003E85A6016F85788989899A890995811464
:1015C0009104A104B10409F457C02401350186CF68
:1015D000C980DA80C114D10409F44EC0C601409616
:1015E000089708F44BC0B8EFCB16BFEFDB0610F03E
:1015F000C12CD12C1A821982D101ED91FC91048069
:10160000F581E02D82E0E82EF12C8E010F5F1F4F57
:101610009201A301B401C50109952601612C712C29
:10162000CD2851F1C301B20122E030E040E050E0AA
:101630000E949D39AD80BE80CF80D884E984FA8431
:101640000B851C850E94E63929013A014B015C019A
:10165000D101ED91FC910190F081E02D92E0E92E15
:10166000F12C8E010F5F1F4F9201A301B401C50140
:1016700009958111ADCF03C081E001C080E0629681
:101680000FB6F894DEBF0FBECDBFDF91CF911F9193
:101690000F91FF90EF90DF90CF90BF90AF909F9011
:1016A0008F907F906F905F904F903F902F90089514
:1016B0002F923F924F925F926F927F928F929F9262
:1016C000AF92BF92CF92DF92EF92FF920F931F9350
:1016D000CF93DF93CDB7DEB7A9970FB6F894DEBFEF
:1016E0000FBECDBF4C014CA35DA36EA37FA30B87A0
:1016F0001C872D873E87009709F436C1DC01ED91E8
:10170000FC9111972081318139A728A74481558107
:101710005A8B498B1A965C911A975B8B1B968C910E
:101720001B978C8B1C969C911C979D8B1D96AC9146
:10173000AE8BD4011E96BC91BF8BD4011F96BC9179
:10174000B88FD4015096BC91B98FD4015196BC91F9
:10175000BA8FD4019E964D905D906D907C90D197FC
:10176000B1E0BBA32085F40182899389A489B5895E
:101770002B3041F01BA29C01AD0156954795379542
:10178000279509C09C01AD0192E056954795379584
:1017900027959A95D1F72B8F3C8F4D8F5E8FD40173
:1017A0009E961D921D921D921C92D1972B8D3C8D61
:1017B0004D8D5E8D2F8F38A349A35AA31F821886A3
:1017C00019861A868F8D98A1A9A1BAA1892B8A2B77
:1017D0008B2B09F463C032E0431651046104710499
:1017E00048F08B8D9C8DAD8DBE8D481659066A06CE
:1017F0007B0628F082E0482E512C612C712C9BA195
:10180000992331F1C301B20124E030E040E050E01F
:101810000E949D39AB88BC88CD88DE88EF88F88C23
:10182000098D1A8D0E94E639D22EC32EB42EA52E14
:101830006F87788B382E292E04E0E02EF12C8E0154
:101840000F5F1F4FE8A5F9A50995811192C08CC0C3
:10185000C301B20122E030E040E050E00E949D3937
:10186000AB88BC88CD88DE88EF88F88C098D1A8D0E
:101870000E94E639D22EC32EB42EA52E6F87788B08
:10188000382E292E12E0E12EF12C8E010B5F1F4F16
:10189000E8A5F9A509958111BCC066C02B853C85DA
:1018A0004D855E85232B242B252B09F056C08CA15A
:1018B0009DA1AEA1BFA10297A105B10528F46F813A
:1018C000788589859A85E3C09BA1992319F12F8199
:1018D000388549855A8529833A834B835C836CA17B
:1018E0007DA18EA19FA124E030E040E050E00E9465
:1018F0009D39AB88BC88CD88DE88EF88F88C098D4F
:101900001A8D0E94E639F4E0EF2EF12C8E010F5F64
:101910001F4F1EC02F8138853E832D836CA17DA172
:101920008EA19FA122E030E040E050E00E949D396E
:10193000AB88BC88CD88DE88EF88F88C098D1A8D3D
:101940000E94E639E2E0EE2EF12C8E010B5F1F4F74
:10195000E989FA8909958111B2CF4F815885698546
:101960007A85C4010E94250A60E070E080E090E082
:101970008EC089819A81AB81BC81892B8A2B8B2B6C
:1019800009F05BC02B853C854D855E85232B242B80
:10199000252B09F44AC02F81388549855A85232B88
:1019A000242B252B49F48FEF9FEFAFEFBFE0898306
:1019B0009A83AB83BC8308C02F81388549855A85BB
:1019C00029833A834B835C83B4E0EB2EF12C8E01A8
:1019D0000F5F1F4F2D2D3C2D4B2D5A2D6F85788974
:1019E000832D922DE989FA890995882309F4B5CFC9
:1019F0002B853C854D855E85215031094109510972
:101A00002B873C874D875E874F82588669867A860A
:101A100014C08D819E81892B81F48B859C85AD8539
:101A2000BE85892B8A2B8B2BD1F4D4019E964D92A7
:101A30005D926D927C92D1973ACF2F8D38A149A1BA
:101A40005AA121503109410951092F8F38A349A3C7
:101A50005AA33FEF431A530A630A730AB3CE2F8186
:101A6000388549855A85232B242B252B29F44FEFC4
:101A70005FEF5E834D8304C08F8198859E838D8345
:101A8000A2E0EA2EF12C8E010B5F1F4FA3CFA99687
:101A90000FB6F894DEBF0FBECDBFDF91CF911F917F
:101AA0000F91FF90EF90DF90CF90BF90AF909F90FD
:101AB0008F907F906F905F904F903F902F90089500
:101AC00080E190E00895AF92BF92CF92DF92EF92C3
:101AD000FF920F931F93CF93DF93EC01892BE1F0DB
:101AE0004230510561057105B8F0CB01BA01625071
:101AF000710981099109288D398D40E050E00E94DB
:101B00009D39AA8CBB8CCC8CDD8CEE8CFF8C08A113
:101B100019A10E94E63908C020E030E040E050E022
:101B200060E070E080E090E0DF91CF911F910F9135
:101B3000FF90EF90DF90CF90BF90AF9008959C0101
:101B4000FC018191A901455F5F4F90E8899F900159
:101B50001124982F9695922B2191892F820FE417AB
:101B6000F50799F708954F925F926F927F928F9247
:101B70009F92AF92BF92CF92DF92EF92FF920F931C
:101B80001F93CF93DF93CDB7DEB72D970FB6F894A1
:101B9000DEBF0FBECDBFF701C080D180A281B3816F
:101BA0009096B383A283DC01FC90B5EEFB1611F096
:101BB000F11002C014824EC0DC011B96FC90BFE005
:101BC000FB124AC0F480FF2029F0DC011D96EC9046
:101BD000FE1499F0A1E3FA2ED6011D92FA94E9F7CA
:101BE000DC011D96FC90F482F60101A712A723A741
:101BF00034A745A756A767A770ABDC012C912F73BC
:101C000030E0215031096DE0629FA001639F500DCB
:101C10001124E7E1F1E0DE01119601900D926A9541
:101C2000E1F7C40ED51EFE0131964E1B5F0B6DE031
:101C30006E0F9A012E0F3F1F2F31310558F421915D
:101C40008C01020F111DD8012C91D6012D936D012D
:101C50006E13EFCF81E0B1C07F01572E662E752E37
:101C6000442E49015C01F6018081882349F0C501B9
:101C70000E949F0DD70114969C91981709F468C093
:101C800081E3F60111928A95E9F7D60199960C93B2
:101C900099979A961C939A979B968C929B979C9651
:101CA0009C929C979D964C929D979E967C929E9717
:101CB0009F966C929F97D0965C92D501A60180E08A
:101CC0009C91903299F0FA019083F501248523FFCD
:101CD00007C02C9121542A3118F4905EFA019083A8
:101CE0008F5F11964F5F5F4F883051F7D6019C91FF
:101CF000953011F495EE9C93F5019085903221F189
:101D000091E0980FF601E80FF11D2EE22083F50116
:101D100038968C5F20812032B1F0A601490F511D09
:101D2000DA012C93D5011C963C9134FF07C0308119
:101D300031543A3118F4205EDA012C939F5F3196CA
:101D40009813E8CF01C0892FF601E80FF11D10822A
:101D5000F5018385D60190968C93C5014A960E9421
:101D6000BB05A0E0B0E0F60181A392A3A3A3B4A3B6
:101D7000C50144960E94BB05A0E0B0E0DC019927B4
:101D80008827F60141A152A163A174A1842B952B50
:101D9000A62BB72B81A392A3A3A3B4A3C5014C96F2
:101DA0000E94C505D60195966D937D938D939C9366
:101DB000989781E0F701858380E02D960FB6F8941F
:101DC000DEBF0FBECDBFDF91CF911F910F91FF906E
:101DD000EF90DF90CF90BF90AF909F908F907F90CB
:101DE0006F905F904F9008952F923F924F925F9225
:101DF0006F927F928F929F92AF92BF92CF92DF921B
:101E0000EF92FF920F931F93CF93DF93CDB7DEB77F
:101E1000A5970FB6F894DEBF0FBECDBF009711F4A3
:101E200080E049C161157105D9F34B01FC010190B6
:101E3000F081E02D848195819DA38CA3DB0199968F
:101E4000BC91B9A3FB01F2A5FAA3DB019B96BC915F
:101E5000BBA3FB0164A455A446A437A420A8019009
:101E60000020E9F731976F01C61AD70A1C2DC60169
:101E700099270C966DE070E00E94FD38762E4BE0BD
:101E800050E060E270E0CE0101960E948D3A6EE271
:101E900070E0C4010E94C53A0097E1F0DC011196A0
:101EA0002C912223B9F0BC016F5F7F4FFB010190A1
:101EB0000020E9F73197E61BF70B4FEF4C0D142F7D
:101EC0001E1BE43008F0E3E04E2F50E0CE010996EF
:101ED0000E94843A193098F4412F50E0B401CE01A9
:101EE00001960E94843AF40180818E3219F5818135
:101EF0008E3209F4828181111DC0712C1BC088E0D3
:101F0000F401DE01119601900D928A95E1F7D4015A
:101F100091968C91982F92959F70803A10F4905DD5
:101F200001C09F599F838F708A3010F4805D01C07B
:101F30008F5988878981853E11F485E08983FE0168
:101F40003C9685E1DF011D928A95E9F7F40180A1B5
:101F50008C8781A192A1A3A1B4A1BD018827992753
:101F6000CE0145960E94D705D40191966D917C9142
:101F70009297CE014B960E94D705F40145A156A138
:101F800067A170A5CE014D960E94DB05F0E27F9E11
:101F9000A00111249A0140E050E060E070E080E090
:101FA00090E0A9A0BAA0CBA0D62CE52CF42C032D50
:101FB000122D0E94E639E0E2EE2EF12C8E010F5F29
:101FC0001F4FECA1FDA10995882309F429CFC80171
:101FD0000E949F0DC82ED72C9DE0B92E2FE0A22E77
:101FE000DD2009F467C040E250E06FEF70E0CE0101
:101FF00001960E948D3A8D2D90E00197B89EF001D8
:10200000B99EF00D1124E80DF91D81E091E0980FC3
:10201000BF01408121E030E02C0F3D1F280F311D12
:10202000D9014C938E5F21E030E02C0F3D1F290F2A
:10203000311DD9011C928B3021F08A3119F48CE1C9
:1020400001C08EE03196DB019C91992311F08F3114
:10205000E8F2D982D71003C08D2D80648983AC86C5
:10206000CE861D861B8E1C8E80E2E82EF12C8E0102
:102070000F5F1F4F29A13AA14BA1562D652D742D3D
:10208000832D922DECA1FDA1099529A13AA14BA187
:10209000562D652D742D832D922DA0E20E94EF39CF
:1020A00029A33AA34BA3652E562E472E382E292E50
:1020B000DA9496CF81E0A5960FB6F894DEBF0FBEF6
:1020C000CDBFDF91CF911F910F91FF90EF90DF90E7
:1020D000CF90BF90AF909F908F907F906F905F90C8
:1020E0004F903F902F900895AF92BF92CF92DF9282
:1020F000EF92FF920F931F93CF93DF93CDB7DEB78D
:1021000060970FB6F894DEBF0FBECDBF42305105C9
:1021100061057105F0F07C010E94630D8E010F5F77
:102120001F4FE0E1D8011D92EA95E9F7D701ED9143
:10213000FC9111975896ED90FC9059970680F78185
:10214000E02DA12CB12CA0E6CA2EADE0DA2E099527
:1021500001C080E060960FB6F894DEBF0FBECDBF21
:10216000DF91CF911F910F91FF90EF90DF90CF9073
:10217000BF90AF9008952F923F924F925F926F92CF
:102180007F928F929F92AF92BF92CF92DF92EF9207
:10219000FF920F931F93CF93DF93CDB7DEB7A09736
:1021A0000FB6F894DEBF0FBECDBFFC019B01892B9B
:1021B00009F453C14115510509F44FC1DA010D90DD
:1021C0000020E9F7CD01841B950B0B966DE070E0C4
:1021D0000E94E9386F5F68A3D9014D915D916D91BF
:1021E0007C914C875D876E877F87A081B18118962F
:1021F0008C91452B462B472B21F58B3049F402A5BA
:1022000013A524A535A50C871D872E873F8719C0E8
:1022100042A053A064A075A086A097A020A431A4DA
:10222000128D188F238D298F348D3A8F458D4B8FCA
:10223000568D5C8F678D6D8F70A17E8F81A18F8F82
:1022400010C0188E198E1A8E1B8E1C8E1D8E1E8E1F
:102250001F8E412C512C612C712C812C912C212C06
:10226000312CFB83EA83488A598A6A8A7B8A8C8A62
:102270009D8A2E8A3F8A1C829201A301B401C1016A
:10228000A88CB98CCA8CDB8CEC8CFD8C0E8D1F8DD0
:102290000E94043A09F099C00C851D852E853F8562
:1022A000012B022B032B09F4D8C09201A0E00E945D
:1022B0000D3A09F44DC04C855D856E857F858A8118
:1022C0009B810E9481096115710581059105E1F5E8
:1022D00001E010E020E030E04C855D856E857F8573
:1022E0008A819B810E94580B2B013C01611571056D
:1022F0008105910509F4B1C0625071098109910904
:10230000AA81BB8158962D913C91599740E050E0AD
:102310000E949D39EA81FB81A28CB38CC48CD58C40
:10232000E68CF78C00A111A10E94E639288B398B2D
:102330004A8B5B8B6C8B7D8B8E8B9F8BB301A20149
:10234000CF010E94741080C06C877D878E879F8725
:102350004C855D856E857F858A819B810E94630D9A
:1023600029013A014B011C01AA81BB8158968D912C
:102370009C9159978C0120E030E040E050E0BA0198
:102380001D832E833F83488759876A877B87920105
:10239000A301B401C1015801C12CD12CE12CF12CB5
:1023A00000E010E00E94E639288F398F4A8F5B8F5A
:1023B0006C8F7D8F8E8F9F8F488A598A6A8A7B8A1D
:1023C0008C8A9D8A2E8A3F8A1C82AA81BB81ED91CC
:1023D000FC910190F081E02DEE24E394F12C8E012C
:1023E0000F5F1F4F9201A301B401C101099588231A
:1023F000A1F18981853E11F0811112C0BC81BF5FBE
:10240000BC83E8A1BE1700F59201A301B401C1018C
:10241000A0E20E94EF3929013A014B011C012CCFA7
:102420009201A301B401C101A0E20E94EF39288BFF
:10243000398B4A8B5B8B6C8B7D8B8E8B9F8B2901B1
:102440003A014B011C0117CF288939894A895B89D8
:102450006C897D898E899F8908C020E030E040E04A
:1024600050E060E070E080E090E0A0960FB6F89455
:10247000DEBF0FBECDBFDF91CF911F910F91FF90B7
:10248000EF90DF90CF90BF90AF909F908F907F9014
:102490006F905F904F903F902F9008952F923F92B2
:1024A0004F925F926F927F928F929F92AF92BF9264
:1024B000CF92DF92EF92FF920F931F93CF93DF9310
:1024C000CDB7DEB7C954D1090FB6F894DEBF0FBE41
:1024D000CDBF009709F42EC2DC0114962D913C91DA
:1024E0001597232B09F426C216962D913C91179728
:1024F000232B09F41FC22091D7013091D801232B3F
:1025000009F018C29FA38EA3E7EDF1E082E3DF019B
:102510001D928A95E9F7EEA1FFA1F093D801E0930F
:10252000D701618572858385948520E032E040E0A3
:1025300050E00E949D3959016A01962E872E382E4F
:10254000292EABE00E94EF39AEA1BFA1ED91FC9125
:10255000A5E2EA2EF12C8E010F5F1F4F0995811124
:1025600005C01092D8011092D701E4C1CE010196A6
:102570000E94BB059BAB8AABCE0104960E94BB05B3
:102580007C01BB81BEAFEE81EFAFCE0107960E940A
:10259000BB0522969FAF8EAF2297CE0109960E946F
:1025A000BB058C01CE010C960E94BB0599AF88AF8C
:1025B000CE0146960E94C5052B013C01CE014A96EC
:1025C0000E94C5056CAB7DAB8EAB9FABCE018296F6
:1025D0000E94C5052A966CAF7DAF8EAF9FAF2A973C
:1025E000411451046104710439F40115110509F411
:1025F000B8CF2801612C712C08AD19AD011511055A
:1026000041F0980140E050E02CAB3DAB4EAB5FABEE
:1026100009C08CA99DA9AEA9BFA9892B8A2B8B2B98
:1026200009F49FCF1FAD012F10E020E030E0269687
:102630000CAF1DAF2EAF3FAF26972CA93DA94EA9D9
:102640005FA926966CAD7DAD8EAD9FAD26970E949D
:10265000CD38A30192012E193F0941095109261BCA
:10266000370B480B590B2EA73FA748AB59AB229607
:102670008EAD9FAD2297B5E0880F991FBA95E1F70F
:102680004AA95BA941505109840F951F6AA97BA9EA
:102690000E94E9380EA51FA528A939A9061B170B0A
:1026A00021093109C901B8014EAD042F10E020E025
:1026B00030E0A90198010E9411392EA73FA748AB2D
:1026C00059AB253F8FE038074105510508F449CF44
:1026D000253F3F4F4105510530F486E0AEA1BFA133
:1026E00018968C9304C08BE0EEA1FFA180878CE24A
:1026F000E9EDF1E0DF011D928A95E9F72AA93BA9EE
:10270000890120E030E00AAF1BAF2CAF3DAFC30121
:10271000B201A90198010E949D392093D9013093FB
:10272000DA014093DB015093DC016093DD0170938B
:10273000DE018093DF019093E001B70180E090E03B
:102740002AAD3BAD4CAD5DAD0E949D39E92CF82C16
:10275000032D122D0E94E63919012A013B014C017B
:102760002093E1013092E2014093E3015092E401B1
:102770006093E5017092E6018093E7019092E80191
:102780006EA57FA588A999A96E5F7F4F8F4F9F4F38
:10279000AEA1BFA118962C91263029F024E030E09C
:1027A00040E050E004C022E030E040E050E00E9411
:1027B000CD386093E9017093EA018093EB01909327
:1027C000EC01EAA9FBA9F093EE01E093ED01AEACB8
:1027D000AE9EC001AF9E900D11249093F0018093A6
:1027E000EF01AEA1BFA118968C91863009F057C0B9
:1027F000E8ADF9AD9F0140E050E06AAD7BAD8CAD36
:102800009DAD0E949D39AFACB12CC12CD12CE12CD7
:10281000F12C00E010E00E94443951016201730183
:1028200084010E94E63919012A013B014C012093E1
:10283000F9013092FA014093FB015092FC01609340
:10284000FD017092FE018093FF019092000222969A
:10285000AEACBFAC2297B50180E090E020E230E062
:1028600040E050E00E949D3959016A017B018C01D2
:102870009101A201B301C4010E94E6392093F10144
:102880003093F2014093F3015093F4016093F5010A
:102890007093F6018093F7019093F80148C0CAA89D
:1028A000DBA8B60180E090E026962CAD3DAD4EADA4
:1028B0005FAD26970E949D39CCA8DDA8EEA8FFA8A1
:1028C00056016701E12CF12C8701AEA2BFA2C8A678
:1028D000D9A6EAA6FBA60CA71DA7E12CF12C00E0C7
:1028E00010E00E94443951016201730184010E9489
:1028F000E6392093F1013093F2014093F3015093B4
:10290000F4016093F5017093F6018093F7019093C1
:10291000F8012A96ECACFDAC0EAD1FAD2A97E09203
:102920000102F0920202009303021093040287ED69
:1029300091E002C080E090E0C75BDF4F0FB6F894F3
:10294000DEBF0FBECDBFDF91CF911F910F91FF90E2
:10295000EF90DF90CF90BF90AF909F908F907F903F
:102960006F905F904F903F902F9008950097C9F11E
:1029700061157105B1F1FB0120A124FD32C0209148
:10298000980130919901232B61F521E3FB01AAE91C
:10299000B1E001900D922A95E1F79093990180930F
:1029A00098011092CB011092CC011092CD0110929F
:1029B000CE011092CF011092D0011092D10110924D
:1029C000D201FB0181A192A1A3A1B4A18093D30163
:1029D0009093D401A093D501B093D60188E991E0FA
:1029E000089580E090E00895009719F0FC011182AD
:1029F000108208952F923F924F925F926F927F9232
:102A00008F929F92AF92BF92CF92DF92EF92FF92FE
:102A10000F931F93CF93DF93CDB7DEB76A970FB6AF
:102A2000F894DEBF0FBECDBF988F8F8B7C8B6B8BE6
:102A30005A8B498B892B19F48FEF9FEF7EC1AB889E
:102A4000BC88AB28C9F3C988DA88C114D104A1F3C2
:102A5000AF89B88DD396BC91B983EF89F88DF4A96D
:102A6000FA83AF89B88DD596BC91BB83EF89F88D79
:102A7000F6A9FC83AF89B88DD796BC91BD83EF8949
:102A8000F88DF0ADFE83AF89B88DD996BC91BF8328
:102A9000EF89F88DF2ADF887AF89B88D97964D9094
:102AA0005D906D907C909A97960140E050E060E0D8
:102AB00070E080E090E0A980BA80CB80DC80ED807F
:102AC000FE800F8118850E94E63963015201E12CD6
:102AD000F12C87014986BA86CB86DC86ED86FE8698
:102AE0000F87188BE12CF12C00E010E00E94043AD3
:102AF00059F050F06201E980FA80CE18DF08DA8AD6
:102B0000C98ACD2809F417C1AF89B88DED91FC9120
:102B10001197A08CB18CBA86A986DB964D905D90FA
:102B20006D907C90DE97411451046104710409F0AA
:102B30004DC093964D905D906D907C90969741140A
:102B4000510461047104A9F4E1E0F0E029813A81C3
:102B50004B815C816D817E818F819885A0E00E9490
:102B60000D3A11F4E0E0F0E0882799278E1B9F0BC7
:102B7000E4C029813A814B815C816D817E818F81A6
:102B80009885A0E00E940D3A09F189809A80AB8077
:102B9000BC8009851A856801E12CF12C8C149D04F8
:102BA000AE04BF0498F08C189D08AE08BF08B301AE
:102BB000A201AF89B88D8D919C910E9481092B0152
:102BC0003C01672B682B692B49F736CF89859A859D
:102BD0000197E981FA81E823F923FA83E9832988B7
:102BE0003A88AF89B88DAD90BC90B301A201C50100
:102BF0000E94630D2D8B3E8B6A017B018C018984C1
:102C00009A84E981FA818E1A9F0A2814390408F4FB
:102C10004101D5010D90BC91A02DBA8FA98FE981FA
:102C2000FA819F0140E050E060E070E080E090E0D9
:102C3000AD88BE880E94E639A98DBA8DED91FC91D0
:102C400074010B891C890995882309F460C0EB89FC
:102C5000FC89E80DF91DFC8BEB8B281839089401D1
:102C600040E050E060E070E080E090E0AF89B88D37
:102C7000D396AC90D397D496BC90D497D596CC905D
:102C8000D597D696DC90D697D796EC90D797D896CE
:102C9000FC90D897D9960C91D997DA961C91DA972F
:102CA0000E94E639D3962C93D397D4963C93D4972D
:102CB000D5964C93D597D6965C93D697D7966C932A
:102CC000D797D8967C93D897D9968C93D997DA963C
:102CD0009C93DA97E981FA818E0E9F1EA984BA84AB
:102CE0008A149B04D8F0B301A2018D919C910E949B
:102CF00081092B013C01672B682B692B69F4AF8993
:102D0000B88DDB961D921D921D921C92DE978989CB
:102D10009A898219930911C01A821982EF89F88D54
:102D200043AE54AE65AE76AE2114310409F059CFEE
:102D300089899A8902C080E090E06A960FB6F8947B
:102D4000DEBF0FBECDBFDF91CF911F910F91FF90DE
:102D5000EF90DF90CF90BF90AF909F908F907F903B
:102D60006F905F904F903F902F9008952F923F92D9
:102D70004F925F926F927F928F929F92AF92BF928B
:102D8000CF92DF92EF92FF920F931F93CF93DF9337
:102D9000CDB7DEB765970FB6F894DEBF0FBECDBFD7
:102DA0009B8B8A8B7E876D87588B4F87892B19F475
:102DB0008FEF9FEFF7C1ED84FE84EF28C9F30F85F5
:102DC0001889012BA9F3AA89BB89D396BC91B98331
:102DD000EA89FB89F4A9FA83AA89BB89D596BC91B3
:102DE000BB83EA89FB89F6A9FC83AA89BB89D796AC
:102DF000BC91BD83EA89FB89F0ADFE83AA89BB89BA
:102E0000D996BC91BF83EA89FB89F2ADF887EA893C
:102E1000FB8987A190A5A1A5B2A51C012D0129813F
:102E20003A814B815C816D817E818F8198855101D2
:102E30006201E12CF12C00E010E00E94043A11F054
:102E400008F0B6CF0190F081E02DE08CF18CFC868B
:102E5000EB86AA89BB89DB964D905D906D907C9046
:102E6000DE97C7010197E980FA80E822F922FA8605
:102E7000E986411451046104710409F079C0939604
:102E80004D905D906D907C90969741145104610433
:102E9000710411F58F819885A0E00E940D3A09F028
:102EA00087CF01E010E020E030E040E050E0BA01E0
:102EB000CF010E94580B2B013C01AA89BB89939634
:102EC0006D937D938D939C939697672B682B692BBD
:102ED00019F480E090E066C1EA89FB8913A9B4A9DE
:102EE00005A9F6A867A970AD212F3B2F402F5F2DB4
:102EF00081AD92ADA0E00E940D3AD1F1812E932ECA
:102F0000A02EBF2C0B851C856801E12CF12C8C14A4
:102F10009D04AE04BF0460F18C189D08AE08BF0884
:102F2000B301A201AA89BB898D919C910E9481095C
:102F30006115710581059105C1F481149104A10405
:102F4000B10409F035CF01E010E020E030E0B3013A
:102F5000A201EA89FB89808191810E94580B611549
:102F600071058105910509F4B4CF2B013C01CFCF48
:102F70002F843888AA89BB89ED90FC90B301A20107
:102F8000C7010E94630D59016A016983798B8C0125
:102F90008B849C84E985FA858E1A9F0A281439044B
:102FA00008F44101D7010D90BC91A02DBD8BAC8BD5
:102FB000E985FA859F0140E050E060E070E080E044
:102FC00090E0E980F9880E94E639AC89BD891496C1
:102FD000ED91FC91159774010D851E850995882347
:102FE00009F483C0ED85FE85E80DF91DFE87ED87A8
:102FF00028183908940140E050E060E070E080E07B
:1030000090E0AA89BB89D396AC90D397D496BC9014
:10301000D497D596CC90D597D696DC90D697D79660
:10302000EC90D797D896FC90D897D9960C91D997D1
:10303000DA961C91DA970E94E639D3962C93D397AF
:10304000D4963C93D497D5964C93D597D6965C93CB
:10305000D697D7966C93D797D8967C93D897D996CE
:103060008C93D997DA969C93DA97E985FA858E0E38
:103070009F1EEB84FC848E149F0458F1B301A201BF
:103080008D919C910E9481096115710581059105C1
:10309000E1F42114310491F001E010E020E030E08F
:1030A000B301A201AA89BB898D919C910E94580B02
:1030B0002B013C01672B682B692B49F4EA89FB89BA
:1030C00013AE14AE15AE16AE10C02B013C011A861D
:1030D0001986AA89BB89DB964D925D926D927C928E
:1030E000DE972114310409F045CFEA89FB89B3A9A1
:1030F000A4A985A896A867A970AD47A050A461A40B
:1031000072A48301720120E030E0A9014982FA82B1
:103110000B831C832D833E834F8358872B2F3A2F9D
:10312000A40181AD92AD52016801E12CF12C00E0C7
:1031300010E00E94043A91F188F19D0137A320A785
:1031400081A692A6BF016E5F7F4F808191810E9410
:10315000F40E811123C0AA89BB89D3962D903C908F
:10316000D49724183508E981D396EC93D397FA8144
:10317000D496FC93D497EB80D596EC92D597FC80AF
:10318000D696FC92D697D7961C92D797D8961C9233
:10319000D897D9961C92D997DA961C928F859889E0
:1031A0008219930965960FB6F894DEBF0FBECDBFA6
:1031B000DF91CF911F910F91FF90EF90DF90CF9013
:1031C000BF90AF909F908F907F906F905F904F9047
:1031D0003F902F9008952F923F924F925F926F925F
:1031E0007F928F929F92AF92BF92CF92DF92EF9297
:1031F000FF920F931F93CF93DF93CDB7DEB7609706
:103200000FB6F894DEBF0FBECDBF009711F480E07B
:1032100093C14D835E836F8378871C01DC01939695
:103220004D905D906D907C909697ED91FC91808C87
:10323000918C411451046104710459F02D813E8137
:103240004F8158852D873E874F87588BA12CB12CF5
:1032500024C04D815E816F817885452B462B472B9D
:1032600069F716C1B301A201D1018D919C910E9411
:103270008109611571058105910509F45AC12D85F2
:103280003E854F855889281939094A095B092D87D8
:103290003E874F87588B2B013C014D855E856F859E
:1032A000788984169506A606B706E0F273016201D6
:1032B000411451046104710461F58D859E85AF85CB
:1032C000B889880D991DAA1DBB1DBC01CD01615097
:1032D000710981099109A50194010E94113989019F
:1032E0009A01B301A201D1018D919C910E94580BCA
:1032F000611571058105910509F489CF4528462896
:10330000472839F4F10163A374A385A396A36B0145
:103310007C012D813E814F815885D10197962D9357
:103320003D934D935C939A97232B242B252B29F4C3
:10333000F10113A214A215A216A2B1016E5F7F4F74
:10334000D1018D919C910E94F40E882309F45FCFE6
:103350002D813E814F815885232B242B252B31F441
:10336000B701A601D1018D919C9190C02D853E851C
:103370004F85588982169306A406B50608F488C0BE
:10338000D1018D909C908114910409F481C0B2E028
:10339000CB16D104E104F10408F47AC0B701A60108
:1033A000C4010E9481092B013C01D401ED91FC91E3
:1033B0008085248135813E872D878B3071F58FEF95
:1033C0009FEFAFEFBFE089839A83AB83BC83C701D4
:1033D000B60124E030E040E050E00E949D39D40185
:1033E0001A96AC901A971B96BC901B971C96CC9083
:1033F0001C971D96DC901D971E96EC901E971F96AD
:10340000FC901F9750960C91509751961C910E94DA
:10341000E639F4E0EF2EF12C29C08FEF9FEF9A836D
:103420008983C701B60122E030E040E050E00E940D
:103430009D39D4011A96AC901A971B96BC901B9795
:103440001C96CC901C971D96DC901D971E96EC90B8
:103450001E971F96FC901F9750960C91509751966F
:103460001C910E94E639E2E0EE2EF12C8E010F5FF6
:103470001F4FED85FE850995882351F041145104B5
:103480006104710429F0B301A201C4010E94250A5C
:103490004D815E816F8178859A01AB0160E070E0BB
:1034A000CB012D833E834F83588769877A878B872B
:1034B0009C87D101D396AC90D397D496BC90D497E7
:1034C000D596CC90D597D696DC90D697D796EC909B
:1034D000D797D896FC90D897D9960C91D997DA9629
:1034E0001C91DA9760E070E080E090E00E94043A7E
:1034F000F0F4D3962C93D397D4963C93D497D59647
:103500004C93D597D6965C93D697D7961C92D7971F
:10351000D8961C92D897D9961C92D997DA961C9275
:10352000DA97DB961D921D921D921C92DE9781E028
:1035300003C073016201C1CE60960FB6F894DEBF7E
:103540000FBECDBFDF91CF911F910F91FF90EF90F4
:10355000DF90CF90BF90AF909F908F907F906F90B3
:103560005F904F903F902F900895CF92DF92EF920F
:10357000FF920F931F93CF93DF93EC01FB01892BF5
:1035800009F44DC0309709F44AC06BA95CA93DA964
:103590002EA9413091F060F0423009F040C0C08067
:1035A000D180E280F3808FA198A5A9A5BAA50DC00E
:1035B000C080D180E280F3800CC0862F952FA32F8E
:1035C000B22FC080D180E280F380C80ED91EEA1EDF
:1035D000FB1E8F018FA198A5A9A5BAA58C159D05E5
:1035E000AE05BF05A8F0A7019601CBAA3CAB4DAB39
:1035F0005EAB1FAA18AE19AE1AAE1BAE1CAE1DAE46
:103600001EAEF801C082D182E282F38281E008C05E
:10361000B701A601CE010E94EB188111E4CF80E032
:10362000DF91CF911F910F91FF90EF90DF90CF909E
:103630000895CF93DF93009799F06115710581F09C
:10364000FB0120A124FF0CC020912601309127010D
:10365000232B49F020915F0130916001232B31F041
:1036600080E090E01BC0C6E2D1E002C0CFE5D1E02F
:10367000DE01129621E3FB0101900D922A95E1F7FC
:1036800099838883FB0181A192A1A3A1B4A18BABF3
:103690009CABADABBEAB18AE1FAACE01DF91CF91F4
:1036A0000895009719F0FC01118210820895FC0121
:1036B000892B61F083A194A1A5A1B6A183AB94ABA2
:1036C000A5ABB6AB10AE17AA81E0089580E00895CF
:1036D0002F923F924F925F926F927F928F929F9222
:1036E000AF92BF92CF92DF92EF92FF920F931F9310
:1036F000CF93DF93CDB7DEB7E6970FB6F894DEBF72
:103700000FBECDBF009719F16115710501F19AA7A0
:1037100089A7DC012D903C90D10158960D90BC9169
:10372000A02DBCA7ABA7DC01D3964D905D906D900A
:103730007C90D697D7968D919C91D8972BA53CA538
:103740008217930730F089A59AA50E94571B80E045
:10375000C8C0AE014F5D5F4F26E0DA011D922A9589
:10376000E9F721E3DB011D922A95E9F77AA369A322
:10377000411451046104710409F08FC0D101ED912D
:10378000FC91119720852B3039F49A964D905D90DD
:103790006D907C909D9781C0F101428D538D22A147
:1037A00033A1BA01621B730B7CA76BA776C08EA1F5
:1037B000811188C08BA59CA5AFA1B8A58A1B9B0BC6
:1037C0009EAB8DAB9D0140E050E060E070E0CB012E
:1037D000ADA73EA74FA758AB69AB7AAB8BAB9CAB01
:1037E000411451046104710409F05AC040E050E0F2
:1037F00060E070E080E090E0D1019296AC9092970A
:103800009396BC9093979496CC9094979596DC90D1
:1038100095979696EC9096979796FC909797989692
:103820000C91989799961C910E94E6391CA21BA2B4
:10383000D101ED91FC910280F381E02DDE019196A2
:103840004D01A3EBAA2EADE0BA2ECDA8DEA8B0E2C2
:10385000EB2EF12C8E010F5F1F4F0995882309F481
:1038600076CF8BA19CA1EFA1F8A5E80FF91FF8A7CF
:10387000EFA32BA53CA5E217F30708F498CFB301FB
:10388000A201C1010E9481092B013C0180E090E06E
:10389000411451046104710489F098A78FA387CF64
:1038A000B301A201C1010E94630DADA4BEA4C12C4D
:1038B000D12CE12CF12C00E010E0B6CF8EA18823B2
:1038C00009F441CFA9A5BAA5D3964D925D926D9208
:1038D0007C92D697EFA1F8A5D896FC93EE93D79754
:1038E0008EA1E6960FB6F894DEBF0FBECDBFDF9176
:1038F000CF911F910F91FF90EF90DF90CF90BF90ED
:10390000AF909F908F907F906F905F904F903F907F
:103910002F9008958F929F92AF92BF92CF92DF9295
:10392000EF92FF920F931F93CF93DF934C01EB0124
:103930008A01892B09F469C0209709F466C088813F
:10394000882309F462C0452B09F45FC08F3209F463
:10395000219681E3F80111928A95E9F780E1F80157
:1039600080A38881811102C081E050C0B801C401E8
:103970000E94191B5C01892B09F447C06FE270E0BB
:10398000CE010E94943A009741F0E82EEC1A6C01A7
:103990002FEFC21AD20AF12C16C0FE0101900020AE
:1039A000E9F73197EC1BFD0BEE2E6E01CE0ED11C0C
:1039B000F2CFF80101900020E9F73197E01BF10BFD
:1039C000EE15FF0539F0B801C5010E94681B811191
:1039D000F0CF17C0A701B801CE010E94A83A892BE9
:1039E00091F7C5010E94511BCE0DDF1D88818823F0
:1039F00009F4BACFF80180A184FF07C0E601A12C29
:103A0000B12CC5010E94511BACCF80E0DF91CF915A
:103A10001F910F91FF90EF90DF90CF90BF90AF90EC
:103A20009F908F900895CF92DF92EF92FF920F9325
:103A30001F93CF93DF93009709F446C0611571057A
:103A400009F442C0FB0120812223F1F1EA017B014C
:103A50008C012097C9F1BE01C8010E94681B882310
:103A600059F0BE01C7010E949F3A892BA1F7C801F6
:103A70000E94571B92E029C0F801C080D18081E3E9
:103A8000FE0111928A95E9F74FE150E0B701CE01AE
:103A90000E94B63AB8016D5D7F4FAE01C6010E942B
:103AA000BB1029A73AA74BA75CA76DA77EA78FA736
:103AB00098ABA0E00E940D3A39F0BE01C6010E9409
:103AC000F40E91E0811101C090E0892FDF91CF9138
:103AD0001F910F91FF90EF90DF90CF900895389A4B
:103AE0000895409838984198399A0895FC0180E0EB
:103AF0003BE0615070F09191892798E0282F26953E
:103B000080FF03C0822F832701C0822F9150B1F71D
:103B1000F0CF0895CF93DF93EC0160E10E94761D12
:103B2000FE019E01205F3F4FDE0190E04D9141116B
:103B30009F5FA217B307D1F72896DE0131912D912F
:103B4000321309C0EC17FD07C9F7992321F0882328
:103B500021F082E003C081E001C080E0DF91CF91DD
:103B60000895811102C00C946F1D38980895CF9369
:103B7000DF93D82FC8E0D0FF07C00E946F1D8AE1F5
:103B80008A95F1F700C008C00E946F1D87E691E09A
:103B90000197F1F700C0000081E00E94B11D8FE1A4
:103BA0009BEC0197F1F700C00000D695C15019F7C2
:103BB000DF91CF910895CF93DF93D8E0C0E00E94CA
:103BC0006F1D85E38A95F1F7000081E00E94B11D29
:103BD000E5E8EA95F1F7000086B1EBEBF2E031970A
:103BE000F1F700C00000C69580FDC068D15039F7DC
:103BF0008C2FDF91CF9108950E946F1D8FE99FE078
:103C00000197F1F700C0000081E00E94B11D9AE623
:103C10009A95F1F700C0309B14C096E126B1822F2F
:103C2000817020FF07C0915071F0E5E3EA95F1F74C
:103C30000000F4CFEFEBF3E03197F1F700C00000A4
:103C4000089581E0089582E008959F92AF92BF9217
:103C5000CF92DF92EF92FF920F931F93CF93DF9358
:103C6000CDB7DEB760970FB6F894DEBF0FBECDBFFD
:103C7000982EA92E0E94FC1DF82E882319F0FF24EF
:103C8000F39430C08E010F5F1F4F6801E02E90E16A
:103C9000B92EB00E0E94DB1DF60181936F01BE129A
:103CA000F9CFE92DFA2DD80188E08E0D9D919193E1
:103CB0008A13FCCFC8010E948A1D882399F088E0EE
:103CC000E82E0E94FC1D8111DACF6801F601A19057
:103CD0006F010E94DB1DA812D2CFBC10F7CFEA946F
:103CE000E110EFCF8F2D60960FB6F894DEBF0FBEB8
:103CF000CDBFDF91CF911F910F91FF90EF90DF909B
:103D0000CF90BF90AF909F900895CF92DF92EF92A7
:103D1000FF920F931F93CF93DF93EC010E94FC1D42
:103D2000882311F011E03BC0419A2FE782E392E033
:103D3000215080409040E1F700C000006E017E01FC
:103D4000E8E0EE0EF11C8E01F80181918F010E94D6
:103D5000B71D0E151F05C1F78E01F80181918F0166
:103D60000E94B71D0E151F05C1F741980E94FC1D4A
:103D7000182F8111D7CF0E94DB1D9991891711F05F
:103D800012E00DC0CE15DF05B1F70E94DB1DF60174
:103D900091916F018913F4CFEE15FF05B1F7812FD3
:103DA000DF91CF911F910F91FF90EF90DF90CF9017
:103DB000089590E0019746E0489F9001499F300D9B
:103DC000112470E06150710944E5469FC001479F8E
:103DD000900D1124820F931F90933B0480933A041B
:103DE000089590E0019770E06150710944E5469FA5
:103DF0009001479F300D1124820F931F90933B0435
:103E000080933A0408959AB190639AB95B986130AF
:103E100011F45C9A01C05C9827E030E090E0AC01BE
:103E2000022E02C0559547950A94E2F740FF02C062
:103E30005D9A01C05D985F9A5F982150310978F7CB
:103E40005B9A8AB18F7C8AB98BB180638BB90895F4
:103E5000CF93C82F60E081E20E94031F60E08C2FA7
:103E600080680E94031F60E080E2CF910C94031FE2
:103E7000EF92FF920F931F93CF93E12CF12CC0E0B0
:103E80006C2F80E00E94F11E00E010E0F801EE0DC2
:103E9000FF1DE258FF4F849161E00E94031F0F5FF6
:103EA0001F4F0435110591F7CF5F84E5E80EF11C33
:103EB000C63031F7CF911F910F91FF90EF90089589
:103EC000CF9364E570E00E94E938C62F60E0806817
:103ED0000E94031F60E08C2F8064CF910C94031F1D
:103EE000CF93DF9310923B0410923A0480E090E06D
:103EF0000E94601FC8EFD1E061E080E00E94031FD4
:103F00002197D1F7DF91CF9108955A9A8AB18C6B9E
:103F10008AB98FE59AEE0197F1F700C000005A9830
:103F20005A9A5B9A60E081E20E94031F60E088EC8D
:103F30000E94031F60E086E00E94031F60E083E1AF
:103F40000E94031F60E080E20E94031F60E08CE09B
:103F50000E94031F0C94701F0F931F93CF93DF9346
:103F6000C82F80913A0490913B040E94601F85E025
:103F7000C89FE001112400E010E0C05AD109FE0101
:103F8000E00FF11FEA58FD4F849161E0880F0E9415
:103F9000031F0F5F1F4F0530110589F761E080E0B7
:103FA0000E94031F80913A0490913B0406969093DF
:103FB0003B0480933A04DF91CF911F910F910895B4
:103FC000CF93DF93EC018991882319F00E94AC1FF5
:103FD000FACFDF91CF910895CF93DF93FC018491C5
:103FE000EF012196882321F00E94AC1FFE01F7CF3C
:103FF000DF91CF910895CF93C82F82958F708A302B
:1040000010F4805D01C0895C0E94AC1F8C2F8F7002
:104010008A3010F4805D01C0895CCF910C94AC1F94
:1040200080913A0490913B040E94601F61E084E417
:104030000E94031F61E080E00E94031F80913A0408
:1040400090913B04029690933B0480933A04089528
:1040500086EE80937C008FE99FE00197F1F700C026
:1040600000008091790022EA829FC0011124089506
:104070001F920F920FB60F9211242F933F934F93DD
:104080005F936F937F938F939F93AF93BF93EF93C0
:10409000FF9386E594E00E949D38811103C081E082
:1040A00080934404189B1FC080910E02811114C09C
:1040B00080910C028C3310F010920C0280910C0253
:1040C000823050F110920C0281E080930E0283ED59
:1040D0009AE00E94033820C080910E028230E1F401
:1040E00010920E0219C080910C028C3351F48DE3B2
:1040F00080930C0282E080930E0281ED9AE00E9490
:10410000033880910C028C3318F48F5F80930C027B
:1041100010920B0210920A0280910A0290910B02F7
:1041200081329E44C0F00E9428208835924028F4B5
:1041300010920B0210920A0217C080910A0290910D
:104140000B028059914090930B0280930A028BECF2
:104150009AE00E94033880910A0290910B02019626
:1041600090930B0280930A02FF91EF91BF91AF9160
:104170009F918F917F916F915F914F913F912F917F
:104180000F900FBE0F901F9018952098289A1092AC
:10419000B00087E08093B10081E080937000789454
:1041A000089583EE80937A0010927B0080E68093DE
:1041B0007C000895EF92FF920F931F93CF93DF93AC
:1041C0008B017A01E901BE01C8010E94681B8823A6
:1041D000B1F0B701CE010E949F3A892BA1F78DA1C2
:1041E0009EA1AFA1B8A58093E2049093E304A093AD
:1041F000E404B093E504C8010E94571B81E0DF91FD
:10420000CF911F910F91FF90EF9008950F931F93FF
:10421000CF93DF93CDB7DEB7E1970FB6F894DEBF4B
:104220000FBECDBF8C019E012F5F3F4F0E94DA2051
:10423000882339F0BE016F5F7F4FC8010E94B6141A
:1042400002C080E090E0E1960FB6F894DEBF0FBEAA
:10425000CDBFDF91CF911F910F9108950F93CF9311
:10426000DF93CDB7DEB7E1970FB6F894DEBF0FBE90
:10427000CDBF0E94BB34811106C08CE99AE00E9438
:104280008E3881E099C000E023E437E347E256E34B
:1042900069E975E380EB93E30E94662E90934104F5
:1042A00080934004892BB9F40FEF23E437E347E20E
:1042B00056E369E975E380EB93E30E94662E9093E1
:1042C000410480934004892B31F481E89AE00E94F4
:1042D0008E3882E071C080914004909141040E9428
:1042E0004E1290933D0480933C04009731F485E690
:1042F0009AE00E948E3883E05FC0AE014F5F5F4F4F
:1043000064E271E00E948A1CBE016F5F7F4F809162
:104310003C0490913D040E94191B909343048093A8
:104320004204009731F485E49AE00E948E3884E0DC
:1043300043C044E051E0BC0180913C0490913D04B5
:104340000E94062190933F0480933E04892B99F4A8
:10435000AE014F5F5F4F64E071E080914204909145
:1043600043040E94131D811106C087E29AE00E9457
:104370008E3885E021C080913E0490913F040E94D8
:10438000F41460914204709143044CE051E0809138
:104390003C0490913D040E94062190933F04809339
:1043A0003E04009731F488E09AE00E948E3886E05F
:1043B00003C00E94F41480E0E1960FB6F894DEBFCB
:1043C0000FBECDBFDF91CF910F91089561E081E0E5
:1043D0000E94D91E82E09AE00E94EC1F8BEF99E0C8
:1043E0000E948E38E0910D028E2F90E08B30910567
:1043F00008F062C0FC01EC5CFF4F0C94333984EF91
:1044000099E00E94EC1F8DEE99E00E948E3886E9BB
:1044100094E00E943F07882309F44EC080E90E947F
:10442000AC1F8AE20E94663847C086EE99E00E947F
:10443000EC1F81EE99E03EC08BED99E00E94EC1FED
:1044400085ED99E00E948E3868E086E994E00E944C
:10445000761DE1CF8DEC99E00E94EC1F85EC99E090
:1044600029C08CEB99E00E94EC1F8FEA99E022C0F2
:1044700087EA99E00E94EC1F8BE999E01BC084E970
:1044800099E00E94EC1F8DE899E014C084E899E05F
:104490000E94EC1F86E799E00DC08CE699E00E942F
:1044A000EC1F8FE599E006C086E599E00E94EC1FBD
:1044B0008DE499E00E948E388AE499E00C948E385D
:1044C00008950F931F93CF93DF9362E081E00E94E2
:1044D000D91E80910D02982F9D7F913039F098EF71
:1044E000980F923018F085508230D0F580919D045D
:1044F0000E94FB1F8FE399E00E94EC1F80919604BD
:104500000E94FB1F80913904882351F180910D0294
:10451000833031F164E081E00E94D91E85E399E0A7
:104520000E94EC1F8091390464E60E94DD38892FD7
:10453000CAE06C2F0E94DD38805D0E94AC1F809124
:1045400039046C2F0E94DD3880E3890F0E94AC1F74
:1045500081E90E94AC1F83E70E94AC1F10923904CE
:1045600063E081E00E94D91E0CE914E0E801888133
:104570000E94FB1F802F8C1B853011F00E941020A1
:10458000219784E0C639D80791F7CEE9D4E01C2FF3
:1045900011508A910E946D38812F8C1B873019F041
:1045A0008AE30E94663884E0C639D80791F782E32F
:1045B00099E0DF91CF911F910F910C948E38CF939A
:1045C000C82F0E94701F83E299E00E94EC1F84E1D3
:1045D00099E00E94EC1F85E099E00E94EC1F86EFB5
:1045E00098E00E94EC1F87EE98E00E94EC1F6DEFB0
:1045F0006C0F81E00E94D91E81E8CF910C94AC1F12
:104600000E94701F63E084E00E94D91E8DED98E047
:104610000E94EC1F80ED98E00C948E380E94701F71
:1046200063E081E00E94D91E82EC98E00E94EC1FBA
:104630008BEA98E00E948E3885ED9AE00E9403385C
:104640002FEF83ED90E3215080409040E1F700C0D0
:10465000000008950E94701F63E081E00E94D91E4F
:104660008DE998E00E94EC1F8FE898E00E948E3858
:1046700087ED9AE00E9403382FEF83ED90E32150FD
:1046800080409040E1F700C00000089582E08093F0
:104690001601A6E9B4E0EEE4F4E088E08E0F919113
:1046A0009D938E13FCCF81EE9AE00C9403381F93F8
:1046B000CF93DF931F92CDB7DEB78EE494E00E94D4
:1046C00044088130A1F189830E940023A6E9B4E067
:1046D000EEE4F4E098E09E0F898131912D91321340
:1046E00081E09E13FACF813019F00E940E2360C042
:1046F00014E086E994E00E943E098823F9F08130B5
:1047000009F456C086E994E00E94E8088823C1F0C5
:10471000813009F44DC086E994E00E949208882314
:1047200089F0813009F444C0115019F702C011E03A
:1047300040C08230F1F50E942A233BC012E003C042
:1047400011E001C010E00E94701F63E081E00E9450
:10475000D91E111107C088E898E00E94EC1F81E87B
:1047600098E00FC0113039F48AE798E00E94EC1FFE
:1047700083E798E006C08CE698E00E94EC1F85E68F
:1047800098E00E948E388CE598E00E94EC1F8DE442
:1047900098E00E948E388BED9AE00E9403382FEF4C
:1047A00083ED90E3215080409040E1F700C000008D
:1047B00010E0812F0F90DF91CF911F9108952F92DC
:1047C0003F924F925F926F927F928F929F92AF92A1
:1047D000BF92CF92DF92EF92FF920F931F93CF93EE
:1047E000DF938C0180E680937C008FE891E0019755
:1047F000F1F700C00000809179008E3F08F092C070
:1048000080910902883008F489C020E080E090E0BF
:10481000DC01409178005091790076E056954795FB
:104820007A95E1F7840F951FA11DB11DE5E3EA9587
:10483000F1F700002F5F203861F76C017D0167E020
:10484000F694E794D794C7946A95D1F7F801C80114
:1048500008961192E817F907E1F7A8EEB3E0A7016F
:1048600096010E943939812C54E0952EA12CB12C4F
:10487000A50194012C193D094E095F090E941139C7
:10488000CA01B901213335474105510528F02AE213
:10489000F8012083C1E001C0C0E0CF5FD1E0332444
:1048A000339420EA822E26E8922EAA24A394B12CD7
:1048B00030E1432E37E2532E612C712C40E2242E3E
:1048C000A50194010E9411396B017C01A3019201A1
:1048D0000E9411398FEF8C0F90E0211531054105B1
:1048E000510551F4F1E03F1207C0D53029F0F8012D
:1048F000E80FF91F208206C0F801E80FF91F205DBC
:104900002083312CAAE0B0E0A70196010E9439393A
:10491000DF5FCF5FD630A1F680E007C08F5F809366
:10492000090202C01092090281E0DF91CF911F912C
:104930000F91FF90EF90DF90CF90BF90AF909F903E
:104940008F907F906F905F904F903F902F90089541
:10495000DC01FB0194919D9331969111FBCF089559
:104960002F923F924F925F926F927F928F929F927F
:10497000AF92BF92CF92DF92EF92FF920F931F936D
:10498000CF93DF93EC014A015B010AE010E0312C88
:10499000212CC12C8AECD82E8AE9E82E8BE3F82E44
:1049A0009AE0492E512C612C712CC501B401A7014C
:1049B00096010E941139211108C0211006C081E022
:1049C000C816D104E104F10449F4FE01E30DF11D20
:1049D00080E3820F8083339422242394A22FB0E0BB
:1049E000A70196010E943939861A970AA80AB90ABE
:1049F000C701B601A30192010E94113969017A0130
:104A00000150110991F6C30DD11D1882DF91CF918C
:104A10001F910F91FF90EF90DF90CF90BF90AF90DC
:104A20009F908F907F906F905F904F903F902F90CE
:104A30000895FC01962F92959F709A3010F4905D26
:104A400001C0995C90836F706A3010F4605D01C0A2
:104A5000695C618312820895CF93DF93DC0190E05B
:104A6000292F30E0FB01E20FF31F4491442359F05A
:104A7000ED01C20FD31F2881222339F0E4912E13B8
:104A800006C09F5FEDCF80E003C082E001C081E0FF
:104A9000DF91CF9108951F93CF93DF93EC01109294
:104AA000440468E478E00E942C25811103C0249618
:104AB00013E00BC062E478E0CE010E942C25811146
:104AC00003C0259612E001C010E0CE01EC01019672
:104AD00028812032D9F36BE378E0CE010E942C25A7
:104AE000811103C0269621E029C066E378E0CE015B
:104AF0000E942C25811103C0249622E01FC060E390
:104B000078E0CE010E942C25811103C0259623E078
:104B100015C068E278E0CE010E942C25811103C007
:104B2000279624E00BC061E278E0CE010E942C259C
:104B3000882311F020E002C0269627E0DE012196AE
:104B40008C918032D9F3CEE4D4E0FE015C2F585F23
:104B500011925E13FDCF40E08D91882321F1403109
:104B600011F1E42FE695F0E0E25BFB4F30813295E6
:104B7000307F803310F4308314C08A3310F490ED0A
:104B800005C08134C0F3873428F499EC980F832F43
:104B9000892B06C09FE9980F963068F78755832BBD
:104BA00080834F5FD9CF112359F0123039F0109321
:104BB000160120930D0283ED9AE004C0211107C075
:104BC00087ED9AE0DF91CF911F910C940338E6E9CD
:104BD000F4E0899181935C13FCCFE9CF0F931F938D
:104BE000CF93DF936091420470914304AC018091B4
:104BF0003C0490913D040E94062190933F048093D1
:104C00003E0440E06EED74E00E94B51A40E450E0CE
:104C10006EE974E080913E0490913F040E94FA1482
:104C2000EC0180913E0490913F040E94F41420977F
:104C300051F41092DE041092DF041092E0041092FE
:104C4000E10481E0BFC0EEE9F4E020E030E08191D2
:104C50008D3009F0AFC0F901E256FB4F10822E5F94
:104C60003F4F8091DE049091DF04A091E004B09169
:104C7000E104820F931FA11DB11D8093DE04909368
:104C8000DF04A093E004B093E104EEE9F4E090E0E7
:104C900020E030E067E070E0EF01CE59D440819130
:104CA000882379F0803221F08B3311F02230F9F42F
:104CB000DB01A31BB109AA56BB4F9C933F5F8B330B
:104CC00089F4219610920D028E0102561B4F6AE163
:104CD00078E0C8010E942C2581111DC081E08093DD
:104CE0000D0219C0383068F790E040E012C041E092
:104CF000420F213011F49295907F8A3310F4805343
:104D000007C0873410F4875303C0873610F48755E3
:104D1000982B242FC1CF63E178E0C8010E942C2595
:104D2000811103C082E080930D026CE078E0C8013D
:104D30000E942C25811103C087E080930D0264E05E
:104D400078E0C8010E942C25811103C084E0809383
:104D50000D026EEF77E0C8010E942C25811103C07F
:104D600083E080930D02FE01E256FB4F8081219685
:104D70008B33C9F70E94701F109239040E94E621FC
:104D80000E94612265E081E00E94D91EC256DB4F7D
:104D900010E089918823A9F01C3198F48B3319F025
:104DA0000E94AC1F05C066E081E00E94D91E1DE094
:104DB0001F5FEFCF2F5F3F4F2C173D0709F047CF05
:104DC00064CF80E0DF91CF911F910F910895DF9222
:104DD000EF92FF920F931F93CF93DF9300D000D0F9
:104DE000CDB7DEB78EE9E82E84E0F82E0EE914E0A8
:104DF00090E2D92EF70162917F01C8010E94192526
:104E0000F801D2820D5F1F4FF6E9EF16F4E0FF06BE
:104E100089F780910D028330A1F040F4813071F068
:104E2000823009F079C06CEE77E010C0843061F018
:104E3000873009F071C061ED77E008C065EF77E079
:104E400005C064EE77E002C06AED77E085EB94E0A0
:104E50000E94A82419821A821B821C82609142043B
:104E60007091430444E051E080913C0490913D04F2
:104E70000E94062190933F0480933E0442E0BE01CD
:104E80006F5F7F4F0E94B51A882309F43FC00EE977
:104E900014E0F80101900020E9F73197CF018E5915
:104EA00094407C016091E2047091E3048091E404F9
:104EB0009091E50423E230E040E050E00E94113997
:104EC000BA01A901C701992782569B4F0E94B024BD
:104ED000F80101900020E9F73197CF018E599440F5
:104EE00099276DEC77E082569B4F0E94A824F80129
:104EF00001900020E9F73197AF014E595440B801B5
:104F000080913E0490913F040E94B61680913E0429
:104F100090913F040E94F4140F900F900F900F9007
:104F2000DF91CF911F910F91FF90EF90DF90089547
:104F3000CF93DF931F92CDB7DEB70E94851F8DE31D
:104F40000E94281F0E94381F0E94C5200E94D12065
:104F50000E9457380E94FB370E942E070E94002FA4
:104F60000E94711D0E942E212FEF49E658E1215029
:104F700040405040E1F700C0000000E117E2A7E91F
:104F80002A2EA4E03A2E86E994E0B7E0FB2EF80E34
:104F900085E0E82EE20C80911601823039F4809190
:104FA0000D02811111C083E08093160152E0752E2D
:104FB00068EEC62E63E0D62E74E6A72EB12CEAE08A
:104FC0006E2EF7E05F2E7FC20E94701F0E94E621C6
:104FD0000E9461220E94E72680910D028130C9F46F
:104FE00080910E02882321F010920E0283E00FC000
:104FF00080914404813029F486E594E00E944B2599
:1050000008C00E9457238111EBCF80911501809336
:10501000160180910D02823009F057C080910E0276
:10502000882321F010920E0283E047C0809144044F
:10503000813029F486E594E00E944B2546C086E93C
:1050400094E00E944331811103C00E940E233DC0B1
:1050500044E0D42E86E994E00E945A32882369F015
:1050600086E994E00E942B33882309F4D4C481306C
:10507000A9F2DA94D110EECF23C0D12C0E94701F78
:1050800063E081E00E94D91ED110C8C48EEB97E086
:105090000E94EC1F89EA97E00E948E388BED9AE01F
:1050A0000E9403388FEF93EDE0E381509040E040A1
:1050B000E1F700C00000809115018093160105C042
:1050C000833009F0ABCF0E942A2380910D028330F8
:1050D00009F068C064E081E00E94D91E88E797E08B
:1050E0000E94EC1F8EE494E038E0D32ED80E80911D
:1050F0000E02882331F010920E0283E08093160195
:1051000051C080914404813029F486E594E00E94E6
:105110004B2548C08EE494E00E94251E813039F36F
:1051200089830E940023898181110FC0A6E9B4E020
:10513000EEE4F4E021919D91291381E0DE12FACF93
:10514000811103C00E940E232DC024E086E994E063
:1051500029830E94851E2981882349F0813011F11D
:105160002150A1F7823019F60E942A231BC00E9409
:10517000701F63E081E00E94D91E8AE697E00E94DA
:10518000EC1F86E597E00E948E388BED9AE00E9436
:105190000338FFEF23ED40E3F15020404040E1F7BA
:1051A00000C0000080910D028430C1F50E94701F84
:1051B0000E94E6210E94612280910E028130D1F48A
:1051C00010920E0295E090930D0280939604109237
:1051D0009B0410929C0426E9C22E24E0D22E80E08B
:1051E000F60161916F010E943107FC10F9CF8093A5
:1051F0009D0414C080910E02823041F483E08093BC
:10520000160110920D0210920E0208C08091440403
:10521000813091F686E594E00E944B2580910D0245
:105220008550823008F058C00E94701F0E94E6210D
:105230000E94612280910E028130B9F510920E0217
:1052400040910D022091970430919A048091980426
:10525000909199044530E9F446E040930D02309373
:10526000970420939A04909398048093990496E964
:10527000C92E94E0D92E20E030E0F60161916F0153
:10528000822F0E943107282FFC10F7CF80939D04B6
:1052900023C044E040930D023093970420939A0476
:1052A000909398048093990417C080910E028230E5
:1052B00031F483E08093160110920E020DC08091AC
:1052C0004404813029F486E594E00E944B2504C013
:1052D0000E9457238111AECF80910D02873079F55E
:1052E00080910E028130C9F410920E0298E09093E2
:1052F0000D028093960486E9C82E84E0D82E20E023
:1053000030E0F60161916F01822F0E943107282F52
:10531000FC10F7CF80939D0412C080910E02823062
:1053200031F483E08093160110920E0208C0809140
:1053300044048130A9F686E594E00E944B258091D3
:105340000D028850823008F0ABC00E94701F0E948E
:10535000E6210E94612230910E02313009F089C0AD
:1053600010920E0280910D02909197042091980462
:10537000883009F046C089E080930D02E92FEF7074
:10538000F0E0E554F54F3491E92FF0E074E0F69544
:10539000E7957A95E1F7E554F54F9491F0E19F9FF9
:1053A000C0011124832B80939704E22FEF70F0E06B
:1053B000E554F54F8491E22FF0E0A4E0F695E795EF
:1053C000AA95E1F7E554F54FE49140E1E49F90019F
:1053D0001124282B2093980480E880939904B6E93F
:1053E000CB2EB4E0DB2E20E030E0F60161916F01BE
:1053F000822F0E943107282FFC10F7CF80939D0445
:105400004FC087E080930D02E92FEF70F0E0E55484
:10541000F54F4491E92FF0E054E0F695E7955A9561
:10542000E1F7E554F54F9491F0E19F9FC0011124FD
:10543000842B80939704E22FEF70F0E0E554F54F52
:105440004491E22FF0E064E0F695E7956A95E1F784
:10545000E554F54FE49120E1E29FC0011124842B33
:1054600080939804109296043093990410929D04AE
:1054700017C080910E02823031F483E080931601D0
:1054800010920E020DC080914404813029F486E50B
:1054900094E00E944B2504C00E94572381115BCFEA
:1054A00080910D028A3008F476CD83E08093160156
:1054B00072CD8EE494E00E94C42F811172C070926C
:1054C0000D020E94462380911601833009F0D8C056
:1054D000709215010E94701F609142047091430404
:1054E0004CE051E080913C0490913D040E940621E3
:1054F00090933F0480933E04892B29F484E497E041
:105500000E948E3808C061E081E00E94D91E81E4CB
:1055100097E00E94EC1F80913E0490913F040E940E
:10552000F41461E08BE00E94D91E0E9428204C01F7
:10553000883542E0940728F48DE397E00E94EC1F41
:105540001BC0B8010E94E938B6010E94E93880E327
:10555000860F0E94AC1F8CE20E94AC1FC401B601F2
:105560000E94E938B5010E94E93880E3860F0E9465
:10557000AC1F82EE0E94AC1F63E084E00E94D91E43
:1055800082E397E00E94EC1F81E297E00E948E3850
:105590008EE494E00E944408813009F48ACF81E0CF
:1055A00009C08EE494E00E94251E982E51E08517D4
:1055B00021F083E080930D0284CF8EE494E00E947A
:1055C000BC2D811102C084E0F5CF8EE494E00E94EE
:1055D0009E06811103C050920D0273CF8EE494E0B9
:1055E0000E94DF23811132C081EE9AE00E940338CD
:1055F00080910E02811167CF60920D020E94701F90
:105600000E94E62163E084E00E94D91E8EE494E0CB
:105610000E94E01F8EE494E00E9482388DE197E0C2
:105620000E94EC1F86E197E00E948E388FEF93EC8A
:10563000E9E081509040E040E1F700C000008EE4D6
:1056400094E00E94DF23882399F23DCF80910E02DF
:10565000813019F410920E0236CF80910E02823002
:1056600029F410920E02909216012DCF80914404DD
:10567000813009F08DCF86E594E00E944B2523CF41
:1056800093E0D92E80911601813009F046C08091B7
:105690007800909179002091B200820F911D0E94B4
:1056A000793A1092390484E00E94DF2294E020E0ED
:1056B00030E02F5F3F4FEFE3FCE93197F1F700C097
:1056C0000000253FF1E03F0728F010920E02D09233
:1056D0001601D8CF80910E02813069F410920E022B
:1056E0009F5F993008F094E0892F99830E94DF2210
:1056F00020E030E0998180910E02823029F41092EE
:105700000E0290931601BECF80914404813089F639
:1057100086E594E00E944B25B5CFDD24D394B3E019
:10572000CB2E82E0B82E809116018430C9F46091AE
:105730004204709143044CE051E080913C0490910C
:105740003D040E94062190933F0480933E040097FD
:1057500071F484E097E00E948E3883E08093160114
:10576000DD24D394F3E0CF2EA2E0BA2E70C00E94C5
:10577000F414109239041092DE041092DF04109297
:10578000E0041092E104D0920E0280E090E00196D5
:10579000EFE3FCE93197F1F700C00000853FF1E04D
:1057A0009F0738F0B092160181EE9AE00E9403380C
:1057B000BACF20910E02213069F410920E028CE0D3
:1057C00091E00E94EE25882319F0C0921601ABCF1C
:1057D00080E090E020910E02223079F48CE091E09C
:1057E0000E94EE252FEF41EE54E021504040504002
:1057F000E1F700C0000080E090E0209144042130F7
:1058000031F686E594E00E944B258DCF0E94F4147A
:10581000109239041092DE041092DF041092E0041A
:105820001092E104D0920E0280E090E00196EFE346
:10583000FCE93197F1F700C00000853FF1E09F07D8
:1058400030F1B092160181EE9AE00E940338809107
:1058500016018730C9F4609142047091430444E01A
:1058600051E080913C0490913D040E940621909368
:105870003F0480933E04009749F683EF96E00E9430
:105880008E3883E080931601E3E0DE2E4BC020913A
:105890000E02213069F410920E0284E091E00E9421
:1058A000EE25882319F0C0921601D1CF80E090E058
:1058B00020910E02223079F484E091E00E94EE25DE
:1058C0002FEF41EE54E0215040405040E1F700C03E
:1058D000000080E090E020914404213009F0A6CF40
:1058E00086E594E00E944B25B2CF40E050E0BA013B
:1058F0000E94EB1880913E0490913F040E94F414A2
:105900001092DE041092DF041092E0041092E10481
:105910000E94701F63E083E00E94D91E86ED96E02E
:105920000E94EC1F809116018830C1F4D0921601BC
:10593000609142047091430444E051E080913C0442
:1059400090913D040E94062190933F0480933E0471
:10595000009759F682EE96E00E948E38BB24B394ED
:1059600054E0A52EA20C62E0962E75E0872E1FC093
:105970000E94743AF60181936F01AE12F9CF109232
:105980009B0410929C0436E9C32E34E0D32E80E0B1
:10599000F60161916F010E943107FC10F9CF8093ED
:1059A0009D04B0920D029092160180921501809193
:1059B0001601853039F4B092960447E9C42E44E0CC
:1059C000D42ED6CF92E0B92E26E0A22E80911601D9
:1059D0008630E1F410929704109298041092990482
:1059E00010929A0410929B0487E9C82E84E0D82E66
:1059F0000E94743AF60181936F01EE12F9CFB092D2
:105A00000D02B0921601A0921501E0CF82508230B3
:105A100008F04BCDC0CADD24D39430CB8BE997E09E
:105A20000E94EC1F87E897E037CBEF92FF920F932D
:105A30001F93CF93DF939C01285F3F4FFC0111928E
:105A4000E217F307E1F7E09145042E2F207E203482
:105A500009F08AC020E030E0F0E0D9019396ED0132
:105A600063E0D595C7956A95E1F7CB5BDB4F48813D
:105A700050E0A770BB2702C0440F551FAA95E2F75C
:105A8000DF01022E02C0AA0FBB1F0A94E2F74A27C9
:105A90005B2747FD69C02F5F3F4F28303105E9F68E
:105AA00023E030E0A0E8B0E0C4E0D0E04DEF420FEA
:105AB000F90153E0F595E7955A95E1F7EB5BFB4F5C
:105AC000E0810E2F10E0F901E770FF277D0102C091
:105AD000F594E794EA95E2F7F701E023F123EF2B41
