:100000000C94F6040C9413050C9413050C9413052E
:100010000C9413050C9413050C9413050C94130500
:100020000C9413050C948F1F0C9413050C9413055A
:100030000C9413050C9413050C9413050C941305E0
:100040000C9413050C9413050C9441360C94130571
:100050000C9413050C9413050C9413050C941305C0
:100060000C9413050C9413051321212124212E2116
:100070003121342137213A213D2140210000000067
:100080000000000000000000000000000000000070
:10009000000000C0C03030303030303030303030D0
:1000A0003030303030303030303030303030303050
:1000B00030303030303030C0C00000000000000070
:1000C0000000000000000000000000000000000030
:1000D0000000000000000000000000000000000020
:1000E0000000000000FFFF000000000000303000B2
:1000F000000000000000000C0C0000C0C0CCCC00D0
:100100000000000000C0C0000000000000FFFF0071
:1001100000C0C0C0C00000000000000000000000DF
:1001200000000000000000000000000000FCFCCC0B
:10013000CC0C0C3C3CF0F0C0C0FFFF000000000005
:10014000000000C0C00000030300000000FFFF002B
:1001500000000003030C0C303030303030303030D1
:10016000300F0F030300000000FFFF00000000003D
:10017000000000000000000000000000000000007F
:1001800000000003030F0F3C3C3030F3F3FFFF008F
:100190000000000C0C00000000C0C000030300FFC2
:1001A000FF00008080000030303C3C000000000078
:1001B000003030000030303C3C008080000000FF08
:1001C000FF00000000000000000000000000000030
:1001D00000000000000000000000000000C0C0306F
:1001E000303F3F3030C0C0C0C0C3C3C0C0C0C0C0BB
:1001F000C0C0C0C3C3CCCCF1F1C0C0C0C0CFCFCC55
:10020000CCCCCCCFCFCCCCCCCCCFCFC0C0C0C131EC
:10021000300C0C0303000000000000000000000090
:1002200000000000000000000000000000000000CE
:10023000000F0F0C0C0C0C0F0F030300000F0F0C22
:100240000C0C0C0303000000000000000003030C72
:100250000C0C0C0F0F000003030C0C0C0C03030020
:10026000000000000000000000000000000000008E
:10027000000000003E223E043E003A2A2E222A368A
:100280000E083C2E2A3A3E2A3A320A063E2A3E2ED2
:100290002A1E00140000340008142214141422141E
:1002A00008022A060808083C0A3C3E2A141C22229E
:1002B0003E221C3E2A223E0A0200000000000000EE
:1002C0002F00000007000700147F147F14242A7FEA
:1002D0002A123234081626364955225000050300EA
:1002E00000001C2241000041221C0014083E08149A
:1002F00008083E08080000503000101010101000D0
:100300006060000020100804023E5149453E004252
:100310007F400042615149462141454B311814123A
:100320007F1027454545393C4A4949300171090547
:10033000033649494936064949291E003636000028
:10034000005636000008142241001414141414003E
:10035000412214080201510906324959513E7E11C9
:1003600011117E7F494949363E414141227F414139
:10037000221C7F494949417F090909013E414949F8
:100380007A7F0808087F00417F41002040413F01FB
:100390007F081422417F404040407F020C027F7F53
:1003A0000408107F3E4141413E7F090909063E4154
:1003B00051215E7F09192946464949493101017F8A
:1003C00001013F4040403F1F2040201F3F40384038
:1003D0003F631408146307087008076151494543D7
:1003E000007F41410004081020400041417F00048B
:1003F000020102044040404040000102000020543D
:100400005454787F48444438384444442038444461
:10041000487F3854545418087E0901020C52525235
:100420003E7F0804047800447D40002040443D00A5
:100430007F1028440000417F40007C041804787C31
:100440000804047838444444387C1414140808140C
:1004500014187C7C080404084854545420043F4475
:1004600040203C4040207C1C2040201C3C40304030
:100470003C44281028440C5050503C4464544C4494
:10048000080836414100007F00004141360808025B
:10049000010202017F7F7F7F7F3E3E3E3E3E007F26
:1004A0003E1C08081C3E7F00087C7E7C08103E7EB7
:1004B0003E10007E7F7E00007E7B7E00007E737E8D
:1004C00000007E637E00007E437E0000003E000050
:1004D0002010080402080808080802040810206711
:1004E000657D050708221C413E0502050000403CD1
:1004F000101C20552A552A5500070507007F7F7FCD
:100500007E7C0000000000000000000000000000F1
:1005100000000000000000000000000000000000DB
:1005200000000000000000000000000000000000CB
:1005300000000000000000000000000000000000BB
:1005400000000000000000000000000000000000AB
:10055000000000000000000000000000000000009B
:10056000000000000000000000000000000000008B
:10057000000000000000000000000000000000007B
:10058000000000000000000000000000000000006B
:10059000000000000000000000000000000000005B
:1005A000000000000000000000000000000000004B
:1005B000000000000000000000000000000000003B
:1005C000000000000000000000000000000000002B
:1005D0000000000000000000007C1211127C7F4926
:1005E0004949317F494949367F01010101603F2175
:1005F0003F607F4949494177087F0877224149494F
:10060000367F1008047F7E1009047E7F0814224183
:10061000403E01017F7F020C027F7F0808087F3E79
:100620004141413E7F0101017F7F090909063E41A9
:1006300041412201017F0101074848483F0E117FD7
:10064000110E63140814633F20203F600708080858
:100650007F7F407E407F3F203F207F017F484830A2
:100660007F4830007F007F484830224149493E7F23
:10067000083E413E462919097F20545454783C4A8B
:100680004A4A317C545428007C04040C00603C2409
:100690003C6038545454186C107C106C0044545412
:1006A000287C2010087C7C2112097C7C10284400C6
:1006B000403804047C7C0810087C7C1010107C38C6
:1006C000444444387C0404047C7C141414083844E6
:1006D00044440004047C04040C5050503C08147C36
:1006E000140844281028443C20203C600C101010B2
:1006F0007C7C407C407C3C203C207C047C50502016
:100700007C5020007C007C50502028445454387C7D
:1007100010384438485434147CCFC7D320E220F436
:10072000E0E9EBE53A2000CEF8E8E1EAE020E7E096
:10073000EFE8F1E82100CEF8E8E1EAE020F7F2E5A1
:10074000EDE8FF2100CEF8E8E1EAE020E7E0EFE89D
:10075000F1E82100CEF8E8E1EAE020E7E0EFE8F197
:10076000E821004F66667365742000CEF8E8E1EA80
:10077000E020F7F2E5EDE8FF2100CBEEE320EEF715
:10078000E8F9E5ED210020CEEC00C6E4F320EAEB29
:10079000FEF7208E00555342005344004B542D3039
:1007A0003120E7E0EFE8F1E0ED00CFEEE4EAEBFE28
:1007B000F7E8F2E520F9F3EF00543535353720E757
:1007C000E0EFE8F1E0ED00454D3433303520E7E06F
:1007D000EFE8F1E0ED003B0D0A003BD6E8F4F0E075
:1007E000EB3B003BCCE5F2E0EAEEEC3B003BCAD24F
:1007F0002D30313B003BCFF0EEEAF1E83B003BC44B
:10080000E0EBEBE0F13B00CAD22D303100CCE5F259
:10081000E0EAEEEC00D6E8F4F0E0EB00CFF0EEEA30
:10082000F1E800C4E0EBEBE0F10020E7E0EFE8F1F5
:10083000E0ED00746D3230303400746D3038763253
:100840000052573139393000CEF8E8E1EAE020E7CC
:10085000E0EFE8F1E8008E20F3E6E520E7E0EFE8DE
:10086000F1E0ED00C7E0EFE8F1FBE2E0FE0020324E
:1008700034D1363420E220F4E0E9EB200020D7E840
:10088000F2E0F2FC203234D136342000203234D170
:10089000313620E220F4E0E9EB200020D7E8F2E056
:1008A000F2FC203234D13136200020C4E0EBFCF8D9
:1008B000E52E2E2E202020200020CEF7E8F1F2E8B1
:1008C000F2FC20EBEEE3200020D1ECEEF2F0E5F2BA
:1008D000FC20EBEEE3200020D0E0EDE4EEEC20CFB6
:1008E000F0EEEAF1E80020D0E0EDE4EEEC20C4E028
:1008F000EBEBE0F10020D1EFE8F1EEEA2020202040
:1009000020202000F2E0E9ECF1EBEEF220003A4387
:100910005243202046414D3A00D0E5E7E8F1F2EE9F
:10092000F000D6E8F42E54432D303100D6E8F42EF2
:100930003230393400D6E8F4F0E0EB00CCE5F22EAA
:10094000454C4300CCE5F22E4D4B393900CCE5F255
:10095000E0EAEEEC00CAD22D303100CFF0EEEAF141
:10096000E800C4E0EBEBE0F100D2E8EF3A20000F42
:100970000B07030E0A06020D0905010C08040059B5
:100980004D40594D003B003E00590041204100348C
:1009900032312F2D002D2F313234002000400080C5
:1009A000000001000200040008001000007177BF81
:1009B000706B6A7064CD5E7B597554B74F3E4B04C3
:1009C000470943453FB83B5F3835353832672FBE5E
:1009D0002C3B2ADC279F2583238521A31FDD1D2F88
:1009E0001C9B1A1C19B4175F161D150011241FBE7D
:1009F000CFEFD8E0DEBFCDBF11E0A0E0B1E0E0EC8A
:100A0000F1E702C005900D92A433B107D9F725E0B4
:100A1000A4E3B1E001C01D92AB34B207E1F70E943C
:100A2000A0250C94DE380C940000FC01808191819B
:100A30000895FC0160817181828193810895FC0198
:100A4000718360830895FC017383628351834083C3
:100A50000895FF920F931F93CF93DF93FC01DC0166
:100A600008961D928A179B07E1F780E090E0880FB7
:100A7000A92FA695A695A695B0E0AA5BBB4F2C9191
:100A800030E0492F477002C0359527954A95E2F727
:100A900020FD81608F70813021F4933010F09350ED
:100AA00003C09F5F903719F7492F50E0DA01949601
:100AB00084E29D0124523109E90193E0D595C7955F
:100AC0009A95E1F7CA5BDB4F688170E027703327A6
:100AD00002C0759567952A95E2F761707727ED0159
:100AE00023E0D595C7952A95E1F7CA5BDB4F2881AE
:100AF00030E0ED01C770DD2702C035952795CA9516
:100B0000E2F7217033276217730709F055C081504F
:100B100011968111CECFF12C62E070E0C0E0D0E000
:100B200090E04C5F5F4F990F8A010C0F1D1F9801D9
:100B3000A3E035952795AA95E1F72A5B3B4FD901AC
:100B40002C9130E007701127002E02C035952795B3
:100B50000A94E2F720FD91602196C430D10519F77F
:100B60009B3069F020F4973039F520E009C09D30C2
:100B700021F09E3009F520EC03C020E801C020E4FC
:100B80009F2D92959F70EB01C91BD109CE0FDF1FDE
:100B900030E09F2D9F70969502C0359527959A95C8
:100BA000E2F79881292B2883B4E0FB0E90E2F9123A
:100BB000B5CF91E0938301C081E0CDB7DEB7E5E02A
:100BC0000C948837CF93DF93EC0180E680937C0010
:100BD0003AE63A95F1F700C0E6E4F4E084E594E003
:100BE00011928E179F07E1F724E680E090E03091A4
:100BF0007900830F911D45E34A95F1F700002150DC
:100C0000B1F764E670E00E948036262F54E640E09B
:100C100080E090E030E060917900621730F4442386
:100C200021F0830F911D40E011C0609179002617DB
:100C300030F4411104C0830F911D41E007C065E10C
:100C40006A95F1F700003F5F383C29F7515011F7E2
:100C500064E670E00E948036862F6550633110F0A4
:100C600081E03AC090E061E070E030E040917900CE
:100C7000241748F045E14A95F1F700003F5F373906
:100C8000A9F730E00AC03639E1F7EACF45E14A95E5
:100C9000F1F700003F5F373941F04091790042178A
:100CA000A8F73639E9F2831788F4E92FE695E69537
:100CB000E695F0E0EA5BFB4F392F3770AB0101C0DE
:100CC000440F3A95EAF73081432B40839F5F90377A
:100CD00061F6CE010E942905DF91CF910895389ADF
:100CE0000895409838980895862798E03CE8282F82
:100CF000269580FF03C0822F832701C0822F915049
:100D0000B1F70895EF92FF920F931F93CF93DF9364
:100D1000EC017C0188E0E80EF11C8E0180E0F80116
:100D200061918F010E9474060E151F05C1F790E0B6
:100D3000299121119F5FCE15DF05D1F7992321F06D
:100D4000882321F082E003C081E001C080E0CDB7BC
:100D5000DEB7E6E00C948737811103C00E946F066E
:100D60000895389808950E946F068AE18A95F1F7F0
:100D700000C081E00E94AC068BE791E00197F1F79B
:100D800000C000000895882319F00E94B30608955A
:100D90000E946F0687E691E00197F1F700C000001E
:100DA00081E00E94AC0695E39A95F1F70000089562
:100DB0000E946F068AE18A95F1F700C081E00E94E7
:100DC000AC06EAE1EA95F1F700C086B1E7E6F1E0AA
:100DD0003197F1F700C0000081700895CF93DF9341
:100DE000D82FC8E08D2F81700E94C306D695C150C0
:100DF000C9F7DF91CF910895CF93DF93D82FD09586
:100E0000C8E08D2F81700E94C306D6958FE39CE9C0
:100E10000197F1F700C00000C15099F7DF91CF9121
:100E200008958FE599E00197F1F700C000000E9456
:100E3000B3069FEF20E782E0915020408040E1F729
:100E400000C000000895CF93DF93D8E0C0E0C695BE
:100E50000E94D8068111C068D150C9F78C2FDF914C
:100E6000CF9108950E946F068FE09EE00197F1F701
:100E700000C0000081E00E94AC0695E39A95F1F76E
:100E80000000309B12C0E7E1F1E03197F1F700C0BC
:100E9000000096B1892F817090FD09C0E7E6F6E069
:100EA0003197F1F700C00000089581E0089582E0D5
:100EB00008950E946F068FE09EE00197F1F700C051
:100EC000000081E00E94AC0695E39A95F1F70000DE
:100ED0009AE0000000000000000000000000000098
:100EE000000000000000309B03C09F5F943689F72C
:100EF000E7E6F6E03197F1F700C0000026B1822F57
:100F0000817020FF05C0933610F080E00895892F8E
:100F10000895A0E0B0E0EFE8F7E00C946837EC014A
:100F2000109254040E945907182F8A3010F481E05F
:100F300031C083E30E94EE066E0188E0C80ED11C2A
:100F40007E010E942307F70181937F01CE16DF0601
:100F5000C1F7CE010E9482068823D1F018E00E94DA
:100F60005907082F8A3018F383E30E94EE067E01AA
:100F7000F701B1907F010E942307B812D8CFCE1499
:100F8000DF04B1F7115059F70093540482E002C016
:100F900010935404CDB7DEB7E9E00C948437EF9298
:100FA000FF920F931F93CF93DF938C010E94320720
:100FB000882311F0C1E041C08DE10E94EE060E943D
:100FC000B3068FE39CE90197F1F700C000000E948F
:100FD00032078111EFCF85ED0E94EE06E80178011E
:100FE00098E0E90EF11CF80181918F010E94FC0646
:100FF0000E151F05C1F70E9432078111DBCF83E375
:101000000E94EE0619910E942307181315C0CE15F1
:10101000DF05C1F70E943207C82F8111CBCF8DE1C8
:101020000E94EE0680E00E94C3068FE39CE90197D0
:10103000F1F700C0000001C0C2E08C2FCDB7DEB7D1
:10104000E6E00C948737EF92FF920F931F93CF93B4
:10105000DF938C010E943207882311F0C1E041C068
:1010600081ED0E94EE0680E00E94C3068FE39CE9BA
:101070000197F1F700C000000E9432078111EECF06
:1010800085ED0E94EE06E801780198E0E90EF11C7A
:10109000F80181918F010E94FC060E151F05C1F712
:1010A0000E9432078111DACF83E30E94EE06199184
:1010B0000E942307181314C0CE15DF05C1F70E9444
:1010C0003207C82F8111CACF81ED0E94EE060E941F
:1010D000B3068FE39CE90197F1F700C0000001C05F
:1010E000C2E08C2FCDB7DEB7E6E00C948737CF9205
:1010F000DF92FF920F931F93CF93DF93F82E092F68
:101100000E943207182F81112BC08CE30E94EE063B
:1011100080E00E94EE0680E00E94EE06CF2DD02FE8
:10112000F12C05E66E0188810E94EE066881802F11
:101130000E947406082F0E942307081711F012E07E
:1011400010C00E9411070E9423072196F60190818A
:101150008913F5CF01E00F0D083019F0F02EE2CF22
:1011600011E0812FDF91CF911F910F91FF90DF90C0
:10117000CF900895A4E0B0E0E0ECF8E00C9467377D
:10118000009709F490C0423051056105710508F4DB
:101190008AC0DC01ED91FC91119780858A019B0149
:1011A0000190F081E02D922F8B3009F043C0832F06
:1011B0009A01492F582F60E070E080E090E002E053
:1011C0000E9496371A96AC901A971B96BC901B9764
:1011D0001C96CC901C971D96DC901D971E96EC904B
:1011E0001E971F96FC901F9750960C915097519602
:1011F0001C910E94CD37B4E0EB2EF12C8E010F5FD5
:101200001F4F0995882309F44EC009811A812B814B
:101210003C81011511052105310509F444C0D901AE
:10122000C801805F9F4FAF4FBF404097A105B105F8
:10123000B8F539C0832F9A01492F582F60E070E02C
:1012400080E090E001E00E9496371A96AC901A97E1
:101250001B96BC901B971C96CC901C971D96DC90FF
:101260001D971E96EC901E971F96FC901F97509608
:101270000C91509751961C910E94CD37A2E0EA2E16
:10128000F12C8E010F5F1F4F0995882361F0898132
:101290009A818C0120E030E001978F3E9F4F18F437
:1012A000B801C90104C060E070E080E090E02496DD
:1012B000EAE00C948337A2E1B0E0E1E6F9E00C94B7
:1012C0005F371C012A013B01892B09F400C1423020
:1012D00051056105710508F4FAC0D1011A96BC9157
:1012E000BD83F101F385FE83D1011C96BC91BF83C0
:1012F000F101F585F887D1011E96BC91B987F101FE
:10130000F785FA87D1015096BC91BB87F101F1892D
:10131000FC87D101ED91FC9180858B3009F0A8C04C
:10132000530142019201A50160E070E080E090E08D
:1013300002E00E949637AD80BE80CF80D884E984D9
:10134000FA840B851C850E94CD372D873E876A0164
:101350006F87788B898B9A8BD101ED91FC910190ED
:10136000F081E02D44E0E42EF12C8E010F5F1F4F41
:10137000A6010995882309F4ABC089809A80AB80C7
:10138000BC8081149104A104B10409F49EC0D5016C
:10139000C401805F9F4FAF4FBF400897A105B105C3
:1013A00008F495C0D501C401885F9F4FAF4FBF407F
:1013B0000897A105B10518F4812C912C5401F10175
:1013C00086A597A5A0A9B1A9892B8A2B8B2B21F4DF
:1013D00046A657A660AA71AA19821A821B821C828D
:1013E000D101ED91FC910480F581E02D24E0E22E05
:1013F000F12C8E010F5F1F4F2D853E85A6016F8555
:10140000788989899A89099581149104A104B10484
:1014100009F45BC02401350183CFC980DA80C1148F
:10142000D10409F452C0C6014096089708F44FC091
:10143000B8EFCB16BFEFDB0610F0C12CD12C1A820F
:101440001982D101ED91FC910480F581E02D82E0BB
:10145000E82EF12C8E010F5F1F4F9201A301B40102
:10146000C50109952601612C712CC114D10469F1C3
:10147000530142019201A50160E070E080E090E03C
:1014800001E00E949637AD80BE80CF80D884E98489
:10149000FA840B851C850E94CD3729013A014B0146
:1014A0005C01D101ED91FC910190F081E02D92E081
:1014B000E92EF12C8E010F5F1F4F9201A301B401A1
:1014C000C50109958111A9CF03C081E001C080E069
:1014D0006296E2E10C947B37A9E2B0E0E2E7FAE041
:1014E0000C945F371C014B875C876D877E870F8765
:1014F000188B298B3A8B009709F4FFC1DC01ED9121
:10150000FC9111972081318139A728A74481558109
:101510005E8B4D8B1A965C911A975F8B1B968C9104
:101520001B97888F1C969C911C97998F1D96AC9148
:10153000AA8FD1011E96BC91BB8FD1011F96BC9181
:10154000BC8FD1015096BC91BD8FD1015196BC91F9
:10155000BE8FD1019E962D913D914D915C91D19779
:101560002F83388749875A87B085BFA3F1018289C5
:101570009389A489B589FFA19C01AD01FB3041F499
:1015800092E056954795379527959A95D1F704C0DF
:1015900056954795379527952F8F38A349A35AA37A
:1015A000D1019E961D921D921D921C92D1972F8D56
:1015B00038A149A15AA12BA33CA34DA35EA3412C62
:1015C000512C32012BA13CA14DA15EA1232B242B38
:1015D000252B09F483C08F819885A985BA8582302F
:1015E0009105A105B10590F02F8D38A149A15AA10F
:1015F00082179307A407B50788F082E090E0A0E087
:10160000B0E08F839887A987BA8708C022E030E0CE
:1016100040E050E02F83388749875A878F8198852B
:10162000A985BA858C019D019FA1E12F9B3059F5B9
:10163000922F832F202F3E2F492F582F60E070E0EC
:1016400080E090E002E00E949637AF88B88CC98CA9
:10165000DA8CEB8CFC8C0D8D1E8D0E94CD37D22E3A
:10166000C32EB42EA52E962E872E8B8B9C8B04E03A
:10167000E02EF12C8E010F5F1F4FE8A5F9A509950B
:10168000811136C03AC1922F832F202F3E2F492F30
:10169000582F60E070E080E090E001E00E94963713
:1016A000AF88B88CC98CDA8CEB8CFC8C0D8D1E8DC0
:1016B0000E94CD37D22EC32EB42EA52E962E872E65
:1016C0008B8B9C8B12E0E12EF12C8E010B5F1F4F58
:1016D000E8A5F9A50995811167C00FC18F85988983
:1016E000A989BA89892B8A2B8B2B09F47AC000C16E
:1016F00089819A81AB81BC81892B8A2B8B2B09F044
:1017000058C02F85388949895A89232B242B252BAA
:10171000A1F48F819885A985BA85F10186A797A73D
:10172000A0ABB1AB2B853C854D855E852230310564
:101730004105510508F063C0E5C04114510461043E
:10174000710449F48FEF9FEFAFEFBFE089839A8375
:10175000AB83BC8304C049825A826B827C82B4E032
:10176000EB2EF12C8E010F5F1F4F2D2D3C2D4B2D9D
:101770005A2D692D782D8B899C89ED89FE890995D3
:10178000882309F4B5C02F85388949895A892150A1
:101790003109410951092F87388B498B5A8B4F806A
:1017A000588469847A8405C08D819E81892B09F4CF
:1017B00049C02BA13CA14DA15EA121503109410995
:1017C00051092BA33CA34DA35EA38F819885A985C6
:1017D000BA850196A11DB11D8F839887A987BA8705
:1017E000F1CE2B853C854D855E8522303105410546
:1017F000510508F487C09FA19B3009F040C0498281
:101800005A826B827C822B853C854D855E854901A1
:101810005A01A50160E070E080E090E002E00E94E3
:101820009637AF88B88CC98CDA8CEB8CFC8C0D8D1C
:101830001E8D0E94CD37F4E0EF2EF12C8E010F5F4C
:101840001F4F3DC08F859889A989BA89892B8A2B1A
:101850008B2BD9F52F81388549855A85D1019E96E4
:101860002D933D934D935C93D1972B853C854D856E
:101870005E85223031054105510508F443C05E8282
:101880004D822B853C854D855E8549015A01A50118
:1018900060E070E080E090E001E00E949637AF8861
:1018A000B88CC98CDA8CEB8CFC8C0D8D1E8D0E9453
:1018B000CD37E2E0EE2EF12C8E010B5F1F4FED894C
:1018C000FE8909958823A1F01DC0411451046104CB
:1018D000710429F44FEF5FEF5E834D8302C05E8297
:1018E0004D82A2E0EA2EF12C8E010B5F1F4F3DCFFF
:1018F000B301A201C1010E945B0960E070E080E0D9
:1019000090E002C0B201C301A996E2E10C947B37DA
:1019100080E190E008959C01FC018191255F3F4F9B
:10192000982F90FB979597F98191890F2E173F0774
:10193000B9F70895ADE0B0E0E0EAFCE00C9461375F
:10194000F701C080D180A281B3819096B383A28336
:10195000DC01FC90B5EEFB1611F0F11002C0148210
:1019600050C0DC011B96FC90BFE0FB124CC0F48021
:10197000FF2029F0DC011D96EC90FE1499F0A1E304
:10198000FA2ED6011D92FA94E9F7DC011D96FC901F
:10199000F482F60101A712A723A734A745A756A7EB
:1019A00067A770ABDC012C912F7330E02150310917
:1019B0006DE0629FA001639F500D1124E5E2F1E00C
:1019C000DE01119601900D926A95E1F7C40ED51EC5
:1019D000BE01625F7F4FFE0131964E1B5F0B9A0185
:1019E0002E0F3F1F2F31310560F421918C01020F22
:1019F000111DD8012C91D6012D936D01E617F70723
:101A000071F781E0ADC07F014B013A0129015C0112
:101A1000F6018081882349F0C5010E948B0CD70113
:101A200014969C91981709F466C081E3F60111920F
:101A30008A95E9F7D60199960C9399979A961C93F3
:101A40009A979B964C929B979C965C929C979D969E
:101A50006C929D979E967C929E979F968C929F9754
:101A6000D0969C92D097B501950180E0F9019081C4
:101A7000903291F09C93F501448543FF07C0F90132
:101A8000408141544A3110F4905E9C938F5F2F5FE8
:101A90003F4F1196883051F7D6019C91953011F443
:101AA00095EE9C93F5019085903209F1D601A80F2F
:101AB000B11D9EE29C9334E0380F8F5FDB011896D6
:101AC0009C919032A1F0D601A80FB11D9C93F50115
:101AD000248524FF07C0FB01208521542A3110F4FE
:101AE000905E9C938F5F6F5F7F4F8313E7CFF6010C
:101AF000E80FF11D1082D5011B968C91F60180A391
:101B0000C5014A960E941505A0E0B0E0F60181A348
:101B100092A3A3A3B4A3C50144960E941505A0E017
:101B2000B0E0DC0199278827F60141A152A163A109
:101B300074A1842B952BA62BB72B81A392A3A3A3CF
:101B4000B4A3C5014C960E941905D60195966D93D4
:101B50007D938D939C93989781E0F701858380E036
:101B60002D96E0E10C947D37A5E2B0E0EAEBFDE0D4
:101B70000C945F37009711F480E048C1611571053E
:101B8000D9F34B01FC010190F081E02D8481958116
:101B90009DA38CA3DB019996BC91B9A3FB01F2A58F
:101BA000FAA3DB019B96BC91BBA3FB0164A455A4E3
:101BB00046A437A420A801900020E9F731976F01CF
:101BC000C61AD70A1C2DC60199270C966DE070E045
:101BD0000E949436762E4BE050E060E270E0CE0139
:101BE00001960E9474386EE270E0C4010E94AC3825
:101BF0000097D9F0DC0111962C912223B1F0BC01A1
:101C00006F5F7F4FFB0101900020E9F73197E61BE2
:101C1000F70BCA941C2D1E1BE43008F0E3E04E2F96
:101C200050E0CE0109960E946B38193098F4412F8C
:101C300050E0B401CE0101960E946B38F40180811E
:101C40008E3219F581818E3209F4828181111DC095
:101C5000712C1BC088E0F401DE01119601900D92F9
:101C60008A95E1F7D40191968C91982F92959F7067
:101C7000803A10F4905D01C09F599F838F708A3025
:101C800010F4805D01C08F5988878981853E11F4E9
:101C900085E08983FE013C9685E1DF011D928A95EE
:101CA000E9F7F40180A18C8781A192A1A3A1B4A13D
:101CB000BD0188279927CE0145960E941F05D401B2
:101CC00091966D917C919297CE014B960E941F0543
:101CD000F40145A156A167A170A5CE014D960E94C1
:101CE0002305F0E27F9EA00111249A0140E050E01C
:101CF00060E070E080E090E0A9A0BAA0CBA0D62C74
:101D0000E52CF42C032D122D0E94CD37E0E2EE2EAF
:101D1000F12C8E010F5F1F4FECA1FDA109958823C7
:101D200009F42ACFC8010E948B0CC82ED72CF72D9E
:101D3000F064BF2E9FE0A92EDD2009F466C040E2CA
:101D400050E06FEF70E0CE0101960E9474388D2D47
:101D500090E001972DE0289FF001299FF00D1124BC
:101D6000E80DF91D81E091E0980FBF01408121E06D
:101D700030E02C0F3D1F280F311DD9014C938E5F91
:101D800021E030E02C0F3D1F290F311DD9011C929D
:101D90008B3021F08A3119F48CE101C08EE031964C
:101DA000DB019C91992311F08F31E8F2D9827D10EB
:101DB00001C0B982AC86CE861D861B8E1C8E80E249
:101DC000E82EF12C8E010F5F1F4F29A13AA14BA1E4
:101DD000562D652D742D832D922DECA1FDA1099515
:101DE00029A13AA14BA1562D652D742D832D922D3D
:101DF000A0E20E94D63729A33AA34BA3652E562E04
:101E0000472E382E292EDA9497CF81E0A596E2E16D
:101E10000C947B37A0E1B0E0E0E1FFE00C94633785
:101E20004C01423051056105710508F43FC0DC01E9
:101E300058966D907C905997892BB9F09A01AB0117
:101E40002250310941095109B30180E090E00E941C
:101E50003437F401A28CB38CC48CD58CE68CF78C0F
:101E600000A111A10E94CD3708C020E030E040E081
:101E700050E060E070E080E090E0F4018E010F5FE0
:101E80001F4FA0E19A2ED8011D929A94E9F7019074
:101E9000F081E02D0680F781E02DA12CB12CB8E86F
:101EA000CB2EBCE0DB2E7301099501C080E060966B
:101EB000EEE00C947F37AAE1B0E0E1E6FFE00C949D
:101EC0005F37FC019B01892B09F470C14115510555
:101ED00009F46CC1DA010D900020E9F7CD01841BF3
:101EE000950B0B966DE070E00E9480366F5F6A8FF5
:101EF000D9018D919D910D90BC91A02D8C839D83D6
:101F0000AE83BF83892B8A2B8B2B41F5A081B181B6
:101F100018968C918B3049F482A593A5A4A5B5A5FC
:101F20008C839D83AE83BF8319C062A073A084A0FD
:101F300095A046A057A020A431A4928D9A8BA38D82
:101F4000AB8BB48DBC8B258D2D8B368D3E8B878DC9
:101F50008F8B90A1988FA1A1A98F10C01A8A1B8A7C
:101F60001C8A1D8A1E8A1F8A188E198E612C712C5C
:101F7000812C912C412C512C212C312CFB83EA8378
:101F80006A867B868C869D864E865F86288A398AFD
:101F900018869301A401B201C101AA88BB88CC882C
:101FA000DD88EE88FF88088D198D0E94EB3709F0D7
:101FB000B5C08C819D81AE81BF81892B8A2B8B2BF3
:101FC00009F4F4C0C101A0E00E94F43709F44FC045
:101FD0004C815D816E817F818A819B810E94BA08DC
:101FE0006115710581059105F1F501E010E020E032
:101FF00030E04C815D816E817F818A819B810E946E
:102000006C0A2B013C01611571058105910509F4EC
:10201000CDC09B01AC012250310941095109AA816F
:10202000BB8158966D917C91599780E090E00E9419
:102030003437EA81FB81A28CB38CC48CD58CE68CBE
:10204000F78C00A111A10E94CD372A873B874C87CE
:102050005D876E877F87888B998BB301A201CF0143
:102060000E940A0F9AC06C837D838E839F83AA810E
:10207000BB8158960D90BC91A02DB987A8878C8103
:102080009D81AE81BF810297A105B10500F1A885B0
:10209000B985BD0180E090E02C813D814E815F815A
:1020A00022503109410951090E943437EA81FB81EC
:1020B000A28CB38CC48CD58CE68CF78C00A111A1BA
:1020C0000E94CD3739014A012B011C0108C0612C47
:1020D000712C812C912C412C512C212C312C2885B8
:1020E000398540E050E060E070E080E090E053012E
:1020F0006401720181010E94CD372A8B3B8B4C8B8E
:102100005D8B6E8B7F8B888F998F6A867B868C86A2
:102110009D864E865F86288A398A1886AA81BB8169
:10212000ED91FC910190F081E02DEE24E394F12CEF
:102130008E010F5F1F4F9301A401B201C1010995E8
:102140008823A1F18981853E11F0811112C0B885E3
:10215000BF5FB887EA8DBE1700F59301A401B201F5
:10216000C101A0E20E94D63739014A012B011C01AE
:1021700010CF9301A401B201C101A0E20E94D637A1
:102180002A873B874C875D876E877F87888B998BF3
:1021900039014A012B011C01FBCE2A853B854C8568
:1021A0005D856E857F858889998908C020E030E04B
:1021B00040E050E060E070E080E090E06A96E2E1AC
:1021C0000C947B37ABE4B0E0E8EEF0E10C945F37C1
:1021D000009709F434C2DC0114962D913C911597B7
:1021E000232B09F42CC216962D913C911797232B83
:1021F00009F425C22091E5013091E601232B09F075
:102200001EC29FA38EA3E5EEF1E082E3DF011D92E3
:102210008A95E9F7EEA1FFA1F093E601E093E501CD
:1022200081849284A384B484C12CD12C760194013E
:10223000A50160E070E080E090E009E00E94963740
:102240005901742E5EAB662E7FAB88AF28969FAF88
:102250002897ABE00E94D6370190F081E02DA5E2EF
:10226000EA2EF12C8E010F5F1F4F0995882309F488
:10227000DEC1CE0101960E9415059BAB8AABCE0153
:1022800004960E9415059DAB8CABBB81BFAFEE8160
:102290002196EFAF2197CE0107960E941505239650
:1022A0009FAF8EAF2397CE0109960E9415054C0172
:1022B000CE010C960E9415059AAF89AFCE014696C5
:1022C0000E9419056B017C01CE014A960E941905F6
:1022D0001B012C01CE0182960E9419052C966CAF31
:1022E0007DAF8EAF9FAF2C97C114D104E104F104F0
:1022F00039F48114910409F49AC16401E12CF12CA0
:1023000009AD1AAD0115110521F01801412C512C10
:1023100006C0211431044104510409F488C12196F6
:102320003FAD2197232F30E040E050E027962CAFBF
:102330003DAF4EAF5FAF2797C201B1010E94643637
:10234000970186014CA95DA9041B150B21093109D0
:10235000061B170B280B390B8AA99BA901972396FB
:102360004EAD5FAD2397B5E0440F551FBA95E1F729
:10237000840F951F6AA97BA90E948036061B170B44
:1023800021093109C901B8015FAD052F10E020E036
:1023900030E0A90198010E94A8362EA73FA748ABBC
:1023A00059AB253F8FE038074105510508F43FC17F
:1023B000253F3F4F4105510530F486E0AEA1BFA156
:1023C00018968C9304C08BE0EEA1FFA180878CE26D
:1023D000E7EEF1E0DF011D928A95E9F72AA93BA912
:1023E000890120E030E00BAF1CAF2DAF3EAFC9013B
:1023F000B801A70196010E9434372093E70130937A
:10240000E8014093E9015093EA016093EB01709376
:10241000EC018093ED019093EE01CCA8DDA896012C
:1024200040E050E06BAD7CAD8DAD9EAD0E94343789
:10243000C72CDEA8E62CFFA808AD28961FAD28976C
:102440000E94CD372CAB3EAB4FAB58AF3B014C019C
:102450002093EF013093F0014093F1015093F2018A
:102460006093F3017092F4018093F5019092F6016C
:102470002EA53FA548A959A92E5F3F4F4F4F5F4F4B
:10248000AEA1BFA118968C91863029F064E070E06F
:1024900080E090E004C062E070E080E090E00E94A4
:1024A00064366093F7017093F8018093F90190937B
:1024B000FA01EAA9FBA9F093FC01E093FB01AFACA0
:1024C000AE9EC001AF9E900D11249093FE018093AB
:1024D000FD01AEA1BFA118968C91863009F060C0B5
:1024E000E9ADFAAD9F0140E050E06BAD7CAD8DAD44
:1024F0009EAD0E9434372196AFAC2197B12CC12CF0
:10250000D12CE12CF12C00E010E00E94DB36ACA8CD
:10251000BEA8CFA8D8AC730184010E94CD37522E3B
:10252000632E742EB52FA62FF72FE82F192F209387
:102530000702309308024093090250930A02609305
:102540000B0270930C0280930D0290930E0223965F
:102550002EAD3FAD23974901A12CB12CA50160E020
:1025600070E080E090E005E00E949637A52CB62C44
:10257000C72CDB2EEA2EFF2E0E2F0E94CD37209384
:10258000FF013093000240930102509302026093D6
:1025900003027093040280930502909306024CC0DC
:1025A0004AA95BA9BA0180E090E027962CAD3DAD29
:1025B0004EAD5FAD27970E94343762015101E12C87
:1025C000F12C87012EA2BFA2C8A6D9A6EAA6FBA617
:1025D0000CA71DA7E12CF12C00E010E00E94DB36D7
:1025E000ACA8BEA8CFA8D8AC730184010E94CD3797
:1025F0002093FF01309300024093010250930202A6
:102600006093030270930402809305029093060284
:102610002C96CCACDDACEEACFFAC2C97C0920F028C
:10262000D0921002E0921102F092120205C01092B4
:10263000E6011092E50103C085EE91E002C080E062
:1026400090E0C55BDF4FE2E10C947B370097C9F166
:1026500061157105B1F1FB0120A124FD32C020916B
:10266000A6013091A701232B61F521E3FB01A8EA24
:10267000B1E001900D922A95E1F79093A701809324
:10268000A6011092D9011092DA011092DB0110928A
:10269000DC011092DD011092DE011092DF01109238
:1026A000E001FB0181A192A1A3A1B4A18093E1016A
:1026B0009093E201A093E301B093E40186EA91E0F4
:1026C000089580E090E00895009719F0FC011182D0
:1026D00010820895A8E1B0E0E0E7F3E10C945F37E1
:1026E000988F8F8B7E8B6D8B5A8B498B892B19F42E
:1026F0008FEF9FEFAFC1AD88BE88A114B104C1F3C5
:10270000C988DA88C114D10499F3AF89B88DD396FA
:10271000BC91B983EF89F88DF4A9FA83AF89B88D9C
:10272000D596BC91BB83EF89F88DF6A9FC83AF8960
:10273000B88DD796BC91BD83EF89F88DF0ADFE833F
:10274000AF89B88DD996BC91BF83EF89F88DF2AD72
:10275000F887AF89B88D97964D905D906D907C907D
:102760009A974601960140E050E060E070E080E01A
:1027700090E0A980BA80CB80DC80ED80FE800F8164
:1027800018850E94CD3763015201E12CF12C87019D
:102790004986BA86CB86DC86ED86FE860F87188B47
:1027A000E12CF12C00E010E00E94EB3761F058F0D2
:1027B0006201E980FA80CE18DF08DA8AC98AC1147A
:1027C000D10409F445C1AF89B88DED91FC91119701
:1027D000A08CB18CBC8AAB8ADB964D905D906D90DD
:1027E0007C90DE97411451046104710461F5939665
:1027F0004D905D906D907C909697411451046104CA
:102800007104A9F4E1E0F0E029813A814B815C8117
:102810006D817E818F819885A0E00E94F43711F44C
:10282000E0E0F0E0882799278E1B9F0B13C12981D8
:102830003A814B815C816D817E818F819885A0E09A
:102840000E94F43771F48B899C890197C980DA80E2
:10285000C822D922DA82C982E988FA88FA86E9860A
:1028600021C089809A80AB80BC800B891C8968015B
:10287000E12CF12C8C149D04AE04BF0420F38C18C1
:102880009D08AE08BF08B301A201AF89B88D8D9134
:102890009C910E94BA082B013C01672B682B692B85
:1028A00049F726CFEF89F88D8080918081149104BB
:1028B00029F1F2E04F16510461047104F8F0D401DB
:1028C00058966D917C91599780E090E0A301920118
:1028D00022503109410951090E943437F401A28C78
:1028E000B38CC48CD58CE68CF78C00A111A10E940E
:1028F000CD3759016A017B018C0108C0A12CB12C94
:10290000C12CD12CE12CF12C00E010E08B899C89AA
:1029100029813A81821B930B29843A84821593057D
:1029200008F41C01E981FA819F0140E050E060E079
:1029300070E080E090E00E94CD37D401ED91FC91F1
:102940000190F081E02D71010D891E890995882380
:1029500009F465C0AD88BE88A20CB31CBE8AAD8ADE
:10296000C984DA84C218D308DA86C9864101910184
:1029700040E050E060E070E080E090E0AF89B88D2A
:10298000D396AC90D397D496BC90D497D596CC9050
:10299000D597D696DC90D697D796EC90D797D896C1
:1029A000FC90D897D9960C91D997DA961C91DA9722
:1029B0000E94CD37D3962C93D397D4963C93D4973B
:1029C000D5964C93D597D6965C93D697D7966C931D
:1029D000D797D8967C93D897D9968C93D997DA962F
:1029E0009C93DA97E981FA812E0E3F1EAB88BC8852
:1029F0002A143B04E8F0B301A2018D919C910E943E
:102A0000BA082B013C01672B682B692B79F4AF893D
:102A1000B88DDB961D921D921D921C92DE978989BE
:102A20009A89E985FA858E1B9F0B14C01A82198238
:102A3000AF89B88DDB964D925D926D927C92DE9758
:102A4000E985FA85EF2B09F02DCF89899A8902C093
:102A500080E090E06896E2E10C947B37A4E1B0E07E
:102A6000E4E3F5E10C945F379C8B8B8B788B6F875D
:102A70005A8B498B892B19F48FEF9FEF3DC22F851D
:102A80003889232BC9F349895A89452BA9F3AB8986
:102A9000BC89D396BC91B983EB89FC89F4A9FA83EC
:102AA000AB89BC89D596BC91BB83EB89FC89F6A91F
:102AB000FC83AB89BC89D796BC91BD83EB89FC892B
:102AC000F0ADFE83AB89BC89D996BC91BF83EB89FD
:102AD000FC89F2ADF887EB89FC8987A190A5A1A5B7
:102AE000B2A51C012D01612C712C430129813A8171
:102AF0004B815C816D817E818F819885510162015E
:102B0000E12CF12C00E010E00E94EB3711F008F00E
:102B1000B3CF0190F081E02D208D318D3E872D8740
:102B2000AB89BC89DB964D905D906D907C90DE9773
:102B3000C901019729813A81282339233A872987B6
:102B4000411451046104710409F041C093964D9001
:102B50005D906D907C9096974114510461047104CE
:102B600021F529813A818F819885A0E00E94F43770
:102B700009F082CF01E010E020E030E040E050E0DA
:102B8000BA01CF010E946C0A2B013C01AB89BC89C0
:102B900093966D937D938D939C939697672B682B5B
:102BA000692B19F480E090E0A7C1EB89FC8913A997
:102BB000B4A905A9F6A867A970AD212F3B2F402F16
:102BC0005F2D81AD92ADA0E00E94F43729F42989F0
:102BD0003A893A832983ECC0812E9B2EA02EBF2CEC
:102BE0004D855E856A01E12CF12C8C149D04AE04A8
:102BF000BF0468F38C189D08AE08BF08B301A2019A
:102C0000AB89BC898D919C910E94BA0861157105B0
:102C100081059105C1F481149104A104B10409F066
:102C20002BCF01E010E020E030E0B301A201EB89FE
:102C3000FC89808191810E946C0A61157105810572
:102C4000910509F4AFCF2B013C01CFCFB2E04B1679
:102C500051046104710408F4B3C0F401608D718DF6
:102C600080E090E0A301920122503109410951090D
:102C70000E943437D4015A96AC905A975B96BC9018
:102C80005B975C96CC905C975D96DC905D975E96CA
:102C9000EC905E975F96FC905F9790960C91909762
:102CA00091961C910E94CD3759016A017B018C01DC
:102CB0008D859E85E985FA858E1B9F0B29803A803C
:102CC0008215930508F41C0129853A8540E050E0FF
:102CD00060E070E080E090E00E94CD37D401ED919B
:102CE000FC910480F581E02D71010F85188909950B
:102CF000882309F49EC0EF85F889E20DF31DF88B57
:102D0000EF8729813A81221933093A832983910176
:102D100040E050E060E070E080E090E0AB89BC898A
:102D2000D396AC90D397D496BC90D497D596CC90AC
:102D3000D597D696DC90D697D796EC90D797D8961D
:102D4000FC90D897D9960C91D997DA961C91DA977E
:102D50000E94CD37D3962C93D397D4963C93D49797
:102D6000D5964C93D597D6965C93D697D7966C9379
:102D7000D797D8967C93D897D9968C93D997DA968B
:102D80009C93DA97E985FA852E0E3F1E2D853E85A8
:102D900022163306F0F4AB89BC89DB964D925D9226
:102DA0006D927C92DE97E981FA81EF2B09F441C0A4
:102DB000AB89BC898D909C908114910409F046CF19
:102DC000A12CB12CC12CD12CE12CF12C00E010E075
:102DD0006FCFB301A2018D919C910E94BA08611539
:102DE00071058105910501F549815A81452B49F409
:102DF000AB89BC89DB961D921D921D921C92DE97B9
:102E000018C001E010E020E030E0B301A201EB893E
:102E1000FC89808191810E946C0A2B013C01672B07
:102E2000682B692B19F4E4CF2B013C011A86198613
:102E3000B2CFEB89FC89B3A9A4A9F5A9FD87EB89D9
:102E4000FC89F6A9FF87EB89FC8967A970AD27A1EA
:102E500030A541A552A529873A874B875C87190180
:102E60002A01612C712C43012B2F3A2F4D855F8550
:102E700081AD92AD51016201E12CF12C00E010E036
:102E80000E94EB3799F190F19D0137A320A741A74C
:102E900052A7BF016E5F7F4F808191810E94B40D68
:102EA000811124C0AB89BC89D3968D919C91D49714
:102EB000FC0129853A85E21BF30BFA83E983D3965B
:102EC0002C92D397D4963C92D497D5964C92D59782
:102ED000D6965C92D697D7961C92D797D8961C9286
:102EE000D897D9961C92D997DA961C9289899A8993
:102EF00049815A81841B950B6496E2E10C947B37DF
:102F0000A0E1B0E0E6E8F7E10C945F37009711F438
:102F100080E095C14D835E836F8378874C01DC012F
:102F20009396CD90DD90ED90FC909697C114D104CE
:102F3000E104F10429F4452B462B472B09F42FC15A
:102F4000D401ED91FC91408C518C2D813E814F81BB
:102F500058852D873E874F87588B612C712C4D8566
:102F60005E856F8578894416550666067706D8F41F
:102F7000B701A601D4018D919C910E94BA086115F8
:102F8000710581059105A1F02D853E854F855889F4
:102F900024193509460957092D873E874F87588BD5
:102FA0006B017C01DCCFC114D104E104F10469F5AB
:102FB0008D859E85AF85B889840D951DA61DB71D8D
:102FC000BC01CD016150710981099109A3019201F0
:102FD0000E94A83689019A01B701A601D4018D91FA
:102FE0009C910E946C0A611571058105910509F497
:102FF0008FCFC114D104E104F10439F4F40163A3C7
:1030000074A385A396A36B017C012D813E814F8122
:103010005885D40197962D933D934D935C939A9741
:10302000232B242B252B29F4F40113A214A215A27F
:1030300016A2B4016E5F7F4FD4018D919C910E94C6
:10304000B40D882309F464CF2D813E814F815885CA
:10305000232B242B252B31F4B701A601D4018D910C
:103060009C919BC02D853E854F85588942165306FD
:103070006406750608F493C0D4016D907C906114C9
:10308000710409F48CC0B2E0CB16D104E104F10460
:1030900008F485C0B701A601C3010E94BA081B014C
:1030A0002C01D301ED91FC9180859701860104806C
:1030B000F581E02D8B30A1F58FEF9FEFAFEFBFE0F3
:1030C00089839A83AB83BC83A12F922F832F2C2DCE
:1030D0003A2F492F582F60E070E080E090E002E046
:1030E0000E949637D3011A96AC901A971B96BC9003
:1030F0001B971C96CC901C971D96DC901D971E96D6
:10310000EC901E971F96FC901F9750960C9150972D
:1031100051961C910E94CD37B4E0EB2EF12C2FC0BC
:103120008FEF9FEF9A838983A12F922F832F2C2DCE
:103130003A2F492F582F60E070E080E090E001E0E6
:103140000E949637D3011A96AC901A971B96BC90A2
:103150001B971C96CC901C971D96DC901D971E9675
:10316000EC901E971F96FC901F9750960C915097CD
:1031700051961C910E94CD37A2E0EA2EF12C8E01CF
:103180000F5F1F4F0995882351F02114310441042A
:10319000510429F0B201A101C3010E945B094D81D4
:1031A0005E816F8178859A01AB0160E070E0CB01B0
:1031B0002D833E834F83588769877A878B879C87C7
:1031C000D401D396AC90D397D496BC90D497D5968F
:1031D000CC90D597D696DC90D697D796EC90D7978B
:1031E000D896FC90D897D9960C91D997DA961C91DD
:1031F000DA9760E070E080E090E00E94EB37F0F456
:10320000D3962C93D397D4963C93D497D5964C933E
:10321000D597D6965C93D697D7961C92D797D89683
:103220001C92D897D9961C92D997DA961C92DA9765
:10323000DB961D921D921D921C92DE9781E0609696
:10324000E2E10C947B37A0E0B0E0E9E2F9E10C9414
:103250006937EC01FB01892B09F444C0309709F46C
:1032600041C0413069F038F04230E1F5CFA0D8A438
:10327000E9A4FAA409C0C080D180E280F3800CC028
:10328000CBA8DCA8EDA8FEA880819181A281B381A2
:10329000C80ED91EEA1EFB1E8F018FA198A5A9A5F5
:1032A000BAA58C159D05AE05BF05A8F0A70196012E
:1032B000CBAA3CAB4DAB5EAB1FAA18AE19AE1AAE93
:1032C0001BAE1CAE1DAE1EAEF801C082D182E282E2
:1032D000F38281E008C0B701A601CE010E948017E9
:1032E0008111E4CF80E0CDB7DEB7E8E00C948537FC
:1032F000CF93DF93009799F06115710581F0FB0181
:1033000020A124FF0CC02091340130913501232BE2
:1033100049F020916D0130916E01232B31F080E056
:1033200090E01BC0C4E3D1E002C0CDE6D1E0DE01F5
:10333000129621E3FB0101900D922A95E1F7998302
:103340008883FB0181A192A1A3A1B4A18BAB9CAB0B
:10335000ADABBEAB18AE1FAACE01DF91CF910895E1
:10336000009719F0FC01118210820895FC01892B4D
:1033700061F083A194A1A5A1B6A183AB94ABA5AB49
:10338000B6AB10AE17AA81E0089580E00895AAE3D5
:10339000B0E0EDECF9E10C945F370097E9F06115CE
:1033A0007105D1F09AAB89ABDC012D903C90D10135
:1033B00058960D90BC91A02DBCABABABDC01D79661
:1033C0008D919C91D8972BA93CA98217930730F037
:1033D00089A99AA90E94B61980E011C1A9A9BAA920
:1033E000D3964D905D906D907C90D697AE014F5DD9
:1033F0005F4F26E0DA011D922A95E9F721E3DB0110
:103400001D922A95E9F77AA369A341145104610436
:10341000710409F090C0D101ED91FC9111972085C4
:103420002B3039F49A964D905D906D907C909D97DD
:1034300082C0F101428D538D22A133A1BA01621BDA
:10344000730B7CAB6BAB77C08EA18111C9C08BA90C
:103450009CA9AFA5B8A98A1B9B0B9EAB8DAB9D0108
:1034600040E050E060E070E0CB01AFA338A749A78F
:103470005AA76BA77CA78DA79EA74114510461048E
:10348000710409F065C040E050E060E070E080E069
:1034900090E0D1019296AC9092979396BC909397BE
:1034A0009496CC9094979596DC9095979696EC9000
:1034B00096979796FC90979798960C9198979996CF
:1034C0001C910E94CD371CA21BA2D101ED91FC9151
:1034D0000280F381E02DDE0191964D01AAE9AA2E2A
:1034E000ACE0BA2ECDA8DEA8B0E2EB2EF12C8E0116
:1034F0000F5F1F4F0995882309F46ECF8BA19CA104
:10350000EFA5F8A9E80FF91FF8ABEFA72BA93CA985
:10351000E217F30708F498CFB301A201C1010E949A
:10352000BA082B013C0180E090E041145104610491
:10353000710409F451C098AB8FA7B301A2014250A6
:103540005109610971094FAB58AF69AF7AAF7CCFB0
:103550002114310481F1B2E04B165104610471046D
:1035600050F1F101608D718D80E090E02FA938ADB0
:1035700049AD5AAD0E943437D1015A96AC905A9752
:103580005B96BC905B975C96CC905C975D96DC906C
:103590005D975E96EC905E975F96FC905F97909635
:1035A0000C91909791961C910E94CD3759016A0118
:1035B0007B018C0108C0A12CB12CC12CD12CE12C99
:1035C000F12C00E010E02FA138A549A55AA56BA564
:1035D0007CA58DA59EA575CF8EA1882309F4F8CE74
:1035E000A9A9BAA9D3964D925D926D927C92D69775
:1035F000EFA5F8A9D896FC93EE93D7978EA1EA96FB
:10360000E2E10C947B37A0E0B0E0E9E0FBE10C9450
:1036100065375C01EB018A01892B09F469C02097A9
:1036200009F466C08881882309F462C0452B09F437
:103630005FC08F3209F4219681E3F80111928A95D7
:10364000E9F780E1F80180A38881811102C081E05F
:1036500050C0B801C5010E9478196C01892B09F48A
:1036600047C06FE270E0CE010E947B38009741F0C6
:10367000E82EEC1A4C012FEF821A920AF12C16C098
:10368000FE0101900020E9F73197EC1BFD0BEE2EB7
:103690004E018E0E911CF2CFF80101900020E9F747
:1036A0003197E01BF10BEE15FF0539F0B801C601AB
:1036B0000E94C7198111F0CF17C0A701B801CE0130
:1036C0000E948F38892B91F7C6010E94B019CE0D48
:1036D000DF1D8881882309F4BACFF80180A184FF17
:1036E00007C0E401C12CD12CC6010E94B019ACCF97
:1036F00080E0CDB7DEB7ECE00C948137A0E0B0E01D
:10370000E4E8FBE10C946937009709F446C06115C1
:10371000710509F442C0FB0120812223F1F1EA0185
:103720007B018C012097C9F1BE01C8010E94C71915
:10373000882359F0BE01C7010E948638892BA1F762
:10374000C8010E94B61992E029C0F801C080D1805A
:1037500081E3FE0111928A95E9F74FE150E0B7014C
:10376000CE010E949D38B8016D5D7F4FAE01C6014C
:103770000E945B0F29A73AA74BA75CA76DA77EA75E
:103780008FA798ABA0E00E94F43739F0BE01C601C4
:103790000E94B40D91E0811101C090E0892FCDB756
:1037A000DEB7E8E00C94853780E18A95F1F708955B
:1037B00087B1877D87B93C9A88B1877C88B908959D
:1037C0003D980E94D41B3B980E94D41B3D9A0E94B6
:1037D000D41B3B9A0E94D41B80E008953D9A0E941E
:1037E000D41B3B980E94D41B3D980E94D41B089583
:1037F000CF93DF93D82FC8E0D7FF02C03D9801C018
:103800003D9ADD0F3B980E94D41B3B9A0E94D41B2B
:10381000C15091F73B980E94D41BC6B13B9A0E94BD
:10382000D41BC5FB882780F9DF91CF9108950F93B2
:103830001F93CF938C01C8E03B980E94D41BF801E2
:103840008081880F8083359B02C0816080833B9A92
:103850000E94D41BC15081F73D9A3B980E94D41B13
:103860003B9A3D980E94D41BCF911F910F910895D0
:103870001F93CF93DF93182FD62F0E94E01B80EA6F
:103880000E94F81BC82F882321F00E94EE1BC1E084
:103890000AC0812F0E94F81BDD2329F00E94E01B43
:1038A00081EA0E94F81B8C2FDF91CF911F91089520
:1038B0000F931F93CF93DF93182F092FD62F0E94BA
:1038C000E01B80EA0E94F81BC82F882321F00E9489
:1038D000EE1BC1E00DC0802F0E94F81B812F0E94BB
:1038E000F81BDD2329F00E94E01B81EA0E94F81BEF
:1038F0008C2FDF91CF911F910F910895389A0895E1
:10390000409838984198399A0895FC0180E03BE04E
:10391000615070F09191892798E0282F269580FFBB
:1039200003C0822F832701C0822F9150B1F7F0CFBF
:103930000895CF93DF93EC0160E10E94851CFE01A6
:103940009E01205F3F4FDE0190E04D9141119F5F4E
:10395000A217B307D1F7289631912781321309C0F6
:10396000EC17FD07C9F7992321F0882321F082E0A5
:1039700003C081E001C080E0DF91CF910895811103
:1039800003C00E947E1C089538980895CF93DF935A
:10399000D82FC8E0D0FF07C00E947E1C8AE18A951C
:1039A000F1F700C008C00E947E1C87E691E00197F5
:1039B000F1F700C0000081E00E94BF1C8FE19BEC8A
:1039C0000197F1F700C00000D695C15019F7DF91BB
:1039D000CF910895CF93DF93D8E0C0E00E947E1C82
:1039E00085E38A95F1F7000081E00E94BF1CE5E8BD
:1039F000EA95F1F7000086B1EBEBF2E03197F1F7D1
:103A000000C00000C69580FDC068D15039F78C2FEA
:103A1000DF91CF9108950E947E1C8FE99FE001976E
:103A2000F1F700C0000081E00E94BF1C9AE69A9561
:103A3000F1F700C0309B14C096E126B1822F81704F
:103A400020FF07C0915071F0E5E3EA95F1F700001F
:103A5000F4CFEFEBF3E03197F1F700C000000895E9
:103A600081E0089582E00895A0E1B0E0EAE3FDE19D
:103A70000C946837B82E092F0E940B1D182F88232D
:103A800011F011E034C06E0181E1C80ED11CFE01BD
:103A900031967F010E94EA1CF70181937F01EC15AA
:103AA000FD05C1F7EB2DF02FCE010996DE01119631
:103AB0002D9121938A179B07D9F7CE0101960E9479
:103AC000991C8823A1F008E00E940B1D8111D9CF19
:103AD000CE0101967C01F701B1907F010E94EA1CA2
:103AE000B812CFCFCE14DF04B1F7015069F7812FA0
:103AF0006096E9E00C948437A0E0B0E0E2E8FDE1F4
:103B00000C946937EC010E940B1D882311F011E021
:103B10003BC0419A2FE782E392E0215080409040E1
:103B2000E1F700C000006E017E01E8E0EE0EF11C3E
:103B30008E01F80181918F010E94C61C0E151F0590
:103B4000C1F78E01F80181918F010E94C61CE01619
:103B5000F106C1F741980E940B1D182F8111D7CF94
:103B60000E94EA1C9991891711F012E00DC0EC1621
:103B7000FD06B1F70E94EA1CF60191916F018913CD
:103B8000F4CFEE16FF06B1F7812FCDB7DEB7E8E030
:103B90000C94853790E0019746E0489F9001499F3B
:103BA000300D112470E06150710944E5469FC00159
:103BB000479F900D1124820F931F9093560480937A
:103BC0005504089570E06150710994E5969F900145
:103BD000979F300D112490E00197820F931F9093CF
:103BE00056048093550408959AB190639AB95B98EE
:103BF000613011F45C9A01C05C9827E030E090E0FD
:103C0000AC01022E02C0559547950A94E2F740FF99
:103C100002C05D9A01C05D985F9A5F98215031099A
:103C200078F75B9A8AB18F7C8AB98BB180638BB944
:103C30000895CF93C82F60E081E20E94F41D60E0F8
:103C40008C2F80680E94F41D60E080E20E94F41DC9
:103C5000CF910895EF92FF920F931F93CF93E12C92
:103C6000F12CC0E06C2F80E00E94E21D00E010E02B
:103C7000F801EE0DFF1DE458FF4F849161E00E94B2
:103C8000F41D0F5F1F4F0435110591F7CF5F84E5D9
:103C9000E80EF11CC63031F7CF911F910F91FF90C4
:103CA000EF900895CF9364E570E00E948036C62FB0
:103CB00060E080680E94F41D60E08C2F80640E94A8
:103CC000F41DCF910895CF93DF9310925604109274
:103CD000550480E090E00E94521EC8EFD1E061E000
:103CE00080E00E94F41D2197D1F7DF91CF910895D4
:103CF0005A9A8AB18C6B8AB98FE59AEE0197F1F7DF
:103D000000C000005A985A9A5B9A60E081E20E94D3
:103D1000F41D60E088EC0E94F41D60E086E00E94E3
:103D2000F41D60E083E10E94F41D60E080E20E94E7
:103D3000F41D60E08CE00E94F41D0E94631E089553
:103D40000F931F93CF93DF93C82F809155049091C9
:103D500056040E94521E85E0C89FE001112400E035
:103D600010E0C05AD109FE01E00FF11FE754FD4FEA
:103D7000849161E0880F0E94F41D0F5F1F4F053092
:103D8000110589F761E080E00E94F41D80915504DF
:103D90009091560406969093560480935504DF91B3
:103DA000CF911F910F910895CF93DF93EC018991EB
:103DB000882319F00E94A01EFACFDF91CF910895B9
:103DC000CF93DF93FC018491EF012196882321F0AA
:103DD0000E94A01EFE01F7CFDF91CF910895CF93EF
:103DE000C82F82958F708A3010F4805D01C0895C85
:103DF0000E94A01E8C2F8F708A3010F4805D01C04D
:103E0000895C0E94A01ECF910895809155049091E5
:103E100056040E94521E61E084E40E94F41D61E099
:103E200080E00E94F41D8091550490915604029602
:103E3000909356048093550408950F931F93CF9346
:103E4000DF93C82F80915504909156040E94521E12
:103E500083E0C89FE001112400E010E0C059D109BF
:103E6000FE01E00FF11FEC58FD4F849161E0880FD7
:103E70000E94F41D0F5F1F4F0330110589F761E0A9
:103E800080E00E94F41D80915504909156040496A0
:103E90009093560480935504DF91CF911F910F9119
:103EA0000895CF93C82F82958F708A3010F4805D6B
:103EB00001C0895C0E941D1F8C2F8F708A3010F406
:103EC000805D01C0895C0E941D1FCF910895809183
:103ED0005504909156040E94521E61E088E20E94AF
:103EE000F41D61E080E00E94F41D809155049091E2
:103EF000560402969093560480935504089586EED6
:103F000080937C008FE99FE00197F1F700C00000EB
:103F10008091790022EA829FC001112408951F92A6
:103F20000F920FB60F9211242F933F934F935F93ED
:103F30006F937F938F939F93AF93BF93EF93FF9371
:103F4000189B23C080912A02811114C080912802FD
:103F50008C3310F01092280280912802823070F188
:103F60001092280281E080932A0287E899E00E945B
:103F7000113624C080912A02823001F580912401FB
:103F80008430E1F410922A0219C0809128028C3307
:103F900051F48DE38093280282E080932A0285E821
:103FA00099E00E941136809128028C3318F48F5FBB
:103FB00080932802109227021092260280912602F6
:103FC0009091270281329E44C0F00E947F1F883565
:103FD000924028F4109227021092260217C0809176
:103FE0002602909127028059914090932702809356
:103FF00026028FE799E00E94113680912602909167
:10400000270201969093270280932602FF91EF9159
:10401000BF91AF919F918F917F916F915F914F91E0
:104020003F912F910F900FBE0F901F9018952098E1
:10403000289A1092B00087E08093B10081E08093CD
:1040400070007894089583EE80937A0010927B003C
:1040500080E680937C000895EF92FF920F931F9368
:10406000CF93DF938B017A01E901BE01C8010E9461
:10407000C7198823B1F0B701CE010E948638892B79
:10408000A1F78DA19EA1AFA1B8A58093ED04909357
:10409000EE04A093EF04B093F004C8010E94B61997
:1040A00081E0CDB7DEB7E6E00C948737A1E3B0E05E
:1040B000ECE5F0E20C946D378C019E012F5F3F4FD1
:1040C0000E942C20882339F0BE016F5F7F4FC8010A
:1040D0000E94261302C080E090E0E196E4E00C9498
:1040E00089370F930E943C33882309F47EC000E097
:1040F0002CE735E34AE754E364E174E38EE492E3AA
:104100000E94682D90938D0480938C04892B69F014
:1041100080918C0490918D040E94E2109093580439
:10412000809357040097A1F462C00FEF2CE735E3AA
:104130004AE754E364E174E38EE492E30E94682D5D
:1041400090938D0480938C04892B11F782E054C0E6
:1041500049E554E062E371E00E94031B69E574E005
:1041600080915704909158040E94781990938F047D
:1041700080938E040097E9F142E151E0BC01809107
:104180005704909158040E94562090938B0480937A
:104190008A04892BE1F080918A0490918B040E941B
:1041A000641360918E0470918F044AE151E0809114
:1041B0005704909158040E94562090938B0480934A
:1041C0008A040097C1F00E94641380E015C049E59D
:1041D00054E062E171E080918E0490918F040E941E
:1041E0007E1B8111D8CF85E007C081E005C083E048
:1041F00003C084E001C086E00F91089561E081E092
:104200000E94CA1D89E699E00E94E01EE091290201
:104210008E2F90E0FC013197EA30F105A8F5EC5CB7
:10422000FF4F0C94CA3682E699E00E94E01E81EAB4
:1042300094E00E948206882339F180E90E94A01E42
:1042400008958BE599E01EC085E599E00E94E01E87
:1042500068E081EA94E00E94851CEDCF8DE499E04E
:1042600011C084E499E00EC08CE399E00BC085E3B3
:1042700099E008C08CE299E005C082E299E002C0B2
:1042800089E199E00E94E01E08950F931F93CF9358
:1042900062E081E00E94CA1D80912902982F9D7FD3
:1042A000913039F098EF980F923018F085508230A5
:1042B000D0F58091A8040E94EF1E8EE099E00E9444
:1042C000E01E8091A1040E94EF1E80915404882377
:1042D00051F180912902833031F164E081E00E9444
:1042E000CA1D84E099E00E94E01E8091540464E6B7
:1042F0000E947436892FCAE06C2F0E947436805D4C
:104300000E94A01E809154046C2F0E94743680E39A
:10431000890F0E94A01E81E90E94A01E83E70E94CF
:10432000A01E1092540463E081E00E94CA1D08EAB6
:1043300014E0C0E0F80182918F010E94EF1EC530A9
:1043400011F00E94051FCF5FC630A1F7CF911F91DA
:104350000F910895CF93C82F0E94631ECA30D0F4E6
:1043600085EF98E00E94E01E86EE98E00E94E01E35
:1043700087ED98E00E94E01E88EC98E00E94E01E25
:1043800089EB98E00E94E01E8AEA98E00E94E01E15
:104390006DEF11C08BE998E00E94E01E8CE898E078
:1043A0000E94E01E8DE798E00E94E01E8EE698E0F5
:1043B0000E94E01E67EF6C0F81E00E94CA1D81E839
:1043C0000E94A01ECF9108950E94631E63E084E0C6
:1043D0000E94CA1D84E698E00E94E01E08950E9493
:1043E000631E63E081E00E94CA1D86E598E00E949A
:1043F000E01E89E899E00E9411362FEF83ED90E3EB
:10440000215080409040E1F700C0000008950E94D4
:10441000631E63E081E00E94CA1D88E498E00E9468
:10442000E01E8BE899E00E9411362FEF83ED90E3B8
:10443000215080409040E1F700C00000089582E0E4
:1044400080932401E9E9F4E0A1EAB4E081918D933D
:1044500084E0E13AF807D1F785E999E00E94113646
:104460000895CF9389E994E00E948907C82F81308D
:1044700081F10E94E421E9E9F4E0A1EAB4E091913C
:104480008D919813C1E024E0E13AF207C1F7C13001
:1044900019F00E94EF214EC0C4E081EA94E00E942E
:1044A00077088823E9F0813009F444C081EA94E078
:1044B0000E9423088823B1F08130E1F181EA94E081
:1044C0000E94CF07882381F08130A1F1C15029F7E4
:1044D00002C0C1E030C0823069F50E9407222BC0C3
:1044E000C2E003C0C1E001C0C0E00E94631E63E0FF
:1044F00081E00E94CA1DC11103C081E498E007C099
:10450000C13019F48AE398E002C083E398E00E9486
:10451000E01E8AE298E00E94E01E8FE899E00E9487
:1045200011368FEF93ED20E3815090402040E1F76A
:1045300000C00000C0E08C2FCF910895A0E0B0E053
:10454000E4EAF2E20C945F378C0180E680937C0011
:104550008FE891E00197F1F700C0000080917900A9
:104560008E3F08F08FC080912502883008F486C005
:1045700020E080E090E0DC014091780050917900EB
:1045800076E0569547957A95E1F7840F951FA11D22
:10459000B11DE5E3EA95F1F700002F5F203861F7E0
:1045A0006C017D0167E0F694E794D794C7946A950F
:1045B000D1F7F801C801089611928E179F07E1F70D
:1045C000A8EEB3E0A70196010E94D036812C54E0FA
:1045D000952EA12CB12CA50194012C193D094E0951
:1045E0005F090E94A836CA01B90121333547410548
:1045F000510528F02AE2F8012083C1E001C0C0E0A3
:10460000CF5FD1E03324339420EA822E26E8922E25
:10461000AA24A394B12C30E1432E37E2532E612C0F
:10462000712C40E2242EA50194010E94A8366B0152
:104630007C01A30192010E94A8368FEF8C0F90E0BD
:1046400021110AC0F1E03F1207C0D53029F0F8016E
:10465000E80FF91F208206C0F801E80FF91F205D5E
:104660002083312CAAE0B0E0A70196010E94D03649
:10467000DF5FCF5FD630B9F680E007C08F5F8093F1
:10468000250202C01092250281E0CDB7DEB7E2E13B
:104690000C947B37DC01FB0194919D933196911131
:1046A000FBCF0895A0E0B0E0E8E5F3E20C945F37BB
:1046B000EC014A015B010AE010E0312C212CC12CF5
:1046C0008AECD82E8AE9E82E8BE3F82E9AE0492E60
:1046D000512C612C712CC501B401A70196010E94D7
:1046E000A836211108C0211006C081E0C816D104E7
:1046F000E104F10449F4FE01E30DF11D80E3820FB2
:104700008083339422242394A22FB0E0A701960142
:104710000E94D036861A970AA80AB90AC701B601BC
:10472000A30192010E94A83669017A010150110982
:1047300091F6C30DD11D1882CDB7DEB7E2E10C941E
:104740007B37FC01962F92959F709A3010F4905D04
:1047500001C0995C90836F706A3010F4605D01C095
:10476000695C618312820895CF93DF93DC0190E04E
:10477000292F30E0FB01E20FF31F4491442359F04D
:10478000ED01C20FD31F2881222339F0E4912E13AB
:1047900006C09F5FEDCF80E003C082E001C081E0F2
:1047A000DF91CF910895A0E0B0E0E9EDF3E20C9441
:1047B00062376C01E62E85E1F82E97E0A92EB12C28
:1047C0005524539422E0922E37E0832E44E0742E39
:1047D00053E0652E60918E0470918F04A601809144
:1047E0005704909158040E94562090938B04809314
:1047F0008A0440E069EE74E00E94231940E450E02E
:1048000069EA74E080918A0490918B040E946A1393
:10481000EC0180918A0490918B040E94641320978C
:1048200051F41092E9041092EA041092EB041092F1
:10483000EC0481E0DCC0E9EAF4E080E090E0219162
:104840002D3009F5FC01E755FB4F1082029640918F
:10485000E9045091EA046091EB047091EC048A0140
:104860009B01080F191F211D311D0093E9041093AE
:10487000EA042093EB043093EC04E9EAF4E090E0DE
:1048800030E020E015C00196C817D907C1F6F5CF72
:104890008032A9F4D501A21BB109AF55BB4F9C933F
:1048A0002F5F8B3389F0283078F490E040E0342F8C
:1048B000EF01C95AD44081918111EACF05C08B33F1
:1048C00049F3323079F4E6CF10922902C655DB4F16
:1048D00063E278E0CE010E94B423811116C05092A9
:1048E000290213C041E0430F313011F49295907FBB
:1048F0008A3310F4805307C0873410F4875303C001
:104900008736A8F68755982BD2CF6CE178E0CE0198
:104910000E94B423811102C09092290265E178E0DF
:10492000CE010E94B423811102C0809229026DE061
:1049300078E0CE010E94B423811102C07092290256
:1049400067E078E0CE010E94B423811102C060923A
:104950002902FE01EF01C95AD44081918B33D1F76E
:10496000C655DB4F07E112E0F801DE018D918111A0
:1049700004C0FA94FF2071F00BC022E0E532F20788
:10498000C1F38B33B1F39191891781F3E12CEECF11
:10499000E11020CF0E94631E109254040E94FE205A
:1049A0000E944521FE0109C0B2E005321B0741F01B
:1049B0008B3331F0D8018D938D0181918111F4CF2A
:1049C00065E081E00E94CA1D10E08991882371F0A2
:1049D0001C3160F48B3319F00E94A01E05C066E004
:1049E00081E00E94CA1D1DE01F5FEFCF80E0CDB7C0
:1049F000DEB7EFE00C947E37A4E0B0E0E2E0F5E251
:104A00000C946A3789EAE82E84E0F82E09EA14E06B
:104A100090E2D92EF70162917F01C8010E94A12383
:104A2000F801D2820D5F1F4FF1EAEF16F4E0FF06A6
:104A300089F7809129028330A1F040F4813071F030
:104A4000823009F079C065EF77E010C0843061F002
:104A5000873009F071C06AED77E008C06EEF77E04B
:104A600005C06DEE77E002C063EE77E080EC94E085
:104A70000E944A2319821A821B821C8260918E0432
:104A800070918F0442E151E0809157049091580455
:104A90000E94562090938B0480938A0442E0BE01CA
:104AA0006F5F7F4F0E942319882309F43FC009EAF2
:104AB00014E0F80101900020E9F73197CF01895AFD
:104AC00094407C016091ED047091EE048091EF04BC
:104AD0009091F00423E230E040E050E00E94A836DC
:104AE000BA01A901C701992787559B4F0E945223FC
:104AF000F80101900020E9F73197CF01895A9440DD
:104B0000992766ED77E087559B4F0E944A23F8016D
:104B100001900020E9F73197AF01495A5440B8019C
:104B200080918A0490918B040E942E1580918A04B2
:104B300090918B040E9464132496E7E00C948637CE
:104B4000A1E0B0E0E6EAF5E20C9460370E94781E3E
:104B50008DE30E94191E0E942A1E0E9417200E94A7
:104B600023200E9409360E9471060E94DF2D0E94B8
:104B7000801C0E9471200E94D81B2FEF49E658E14B
:104B8000215040405040E1F700C00000F9EE6F2E88
:104B9000F4E07F2EA6EACA2EA4E0DA2E809124014A
:104BA000823039F480912902811115C083E080930D
:104BB000240132E0532E40E1A42E47E2B42E58EEF9
:104BC000E52E53E0F52E64E6862E912C7AE0472EF2
:104BD000E7E03E2E1CC20E94631E0E94FE200E943F
:104BE00045210E94FC2480912902813081F480912A
:104BF0002A02882321F010922A0283E006C00E9434
:104C000031228111F4CF809123018093240180917E
:104C10002902823009F048C080912A02882321F0BD
:104C200010922A0283E038C081EA94E00E94133097
:104C3000811103C00E94EF2137C014E081EA94E0A3
:104C40000E940431882361F081EA94E00E94D1310E
:104C5000882309F4D1C58130F9F2115079F71FC0CA
:104C600010E00E94631E63E081E00E94CA1D1111E2
:104C7000C5C587EC97E00E94E01E8FE899E00E948E
:104C800011368FEF93EDE0E381509040E040E1F783
:104C900000C00000809123018093240105C083306F
:104CA00009F0BACF0E94072280912902833009F0CF
:104CB0003EC064E081E00E94CA1D8AEA97E00E943B
:104CC000E01E80912A02882331F010922A0283E0AC
:104CD000809324012CC089E994E00E94341D182F90
:104CE000813079F30E94E421111111C0E9E9F4E067
:104CF000A1EAB4E091918D91981311E024E0E13A9A
:104D0000F207C1F7111103C00E94EF2110C014E097
:104D100081EA94E00E947C1D882309F472C58130E9
:104D200031F01150A9F7823061F60E94072280917C
:104D30002902843079F50E94631E0E94FE200E94A1
:104D4000452180912A028130D1F410922A0295E007
:104D5000909329028093A1041092A6041092A704B4
:104D600001EA14E080E0F80161918F010E9474066D
:104D7000F4E0083A1F07B9F78093A8040BC08091AC
:104D80002A028230F1F683E08093240110922902F6
:104D900010922A02809129028550823008F04FC07B
:104DA0000E94631E0E94FE200E94452180912A02DB
:104DB0008130B9F510922A02409129022091A20473
:104DC0003091A5048091A3049091A4044530E9F4A6
:104DD00046E0409329023093A2042093A5049093C7
:104DE000A3048093A40401EA14E020E030E0F80179
:104DF00061918F01822F0E947406282FF4E0083AF7
:104E00001F07A9F78093A8041AC044E04093290221
:104E10003093A2042093A5049093A3048093A40448
:104E20000EC080912A02823031F483E08093240105
:104E300010922A0204C00E9431228111B7CF8091C2
:104E40002902873031F580912A028130C9F410920D
:104E50002A0298E0909329028093A10401EA14E0C9
:104E600020E030E0F80161918F01822F0E947406EA
:104E7000282FF4E0083A1F07A9F78093A80409C077
:104E800080912A028230F9F683E080932401109207
:104E90002A02809129028850823008F0A5C00E9421
:104EA000631E0E94FE200E94452130912A0231306B
:104EB00009F08CC010922A02809129029091A204DC
:104EC0002091A304883009F049C089E08093290229
:104ED000E92FEF70F0E0E159F64F3491E92FF0E05F
:104EE00084E0F695E7958A95E1F7E159F64FE4916C
:104EF00040E1E49FC0011124832B8093A204E22FA0
:104F0000EF70F0E0E159F64F8491E22FF0E094E089
:104F1000F695E7959A95E1F7E159F64FE49150E15E
:104F2000E59F90011124282B2093A30480E880930F
:104F3000A40401EA14E028EAE22E24E0F22E20E0A4
:104F400030E0F80161918F01822F0E947406282FB2
:104F5000E016F106B1F78093A80446C087E080937D
:104F60002902E92FEF70F0E0E159F64F4491E92F63
:104F7000F0E014E0F695E7951A95E1F7E159F64F60
:104F8000E491F0E1EF9FC0011124842B8093A204EF
:104F9000E22FEF70F0E0E159F64F4491E22FF0E09C
:104FA00004E0F695E7950A95E1F7E159F64FE491AB
:104FB00020E1E29FC0011124842B8093A30410926E
:104FC000A1043093A4041092A8040EC080912A0278
:104FD000823031F483E08093240110922A0204C0CD
:104FE0000E943122811161CF809129028A3008F418
:104FF000D5CD83E080932401D1CD89E994E00E944E
:105000009D2E811169C0509229020E941F22809119
:105010002401833009F0BDC0509223010E94631E19
:1050200060918E0470918F044AE151E080915704A1
:10503000909158040E94562090938B0480938A0488
:10504000892B41F061E081E00E94CA1D89E997E067
:105050000E94E01E80918A0490918B040E94641348
:1050600061E08BE00E94CA1D0E947F1F8C01883581
:1050700042E0940728F485E997E00E94E01E1BC0F7
:10508000B5010E948036B7010E94803680E3860F0A
:105090000E94A01E8CE20E94A01EC801B7010E94BF
:1050A0008036B4010E94803680E3860F0E94A01EE5
:1050B00082EE0E94A01E63E084E00E94CA1D8AE87E
:1050C00097E00E94E01E89E994E00E948907813000
:1050D00009F493CF81E008C089E994E00E94341D6F
:1050E000182F813021F083E0809329028ECF89E947
:1050F00094E00E94BE2C811102C084E0F5CF89E9C2
:1051000094E00E94E205811103C0309229027DCF14
:1051100089E994E00E949E2281112AC085E999E0E4
:105120000E94113680912A02811171CF409229028A
:105130000E94631E0E94FE2063E084E00E94CA1D5C
:1051400089E994E00E94D41E86E897E00E94E01E60
:105150005FEF83EC99E0515080409040E1F700C050
:10516000000089E994E00E949E228823D9F24FCF63
:1051700080912A02813019F410922A0248CF80913E
:105180002A02823009F09FCF10922A021093240144
:105190003ECF03E080912401813009F041C080912D
:1051A0007800909179002091B200820F911D0E94A9
:1051B00060381092540484E00E94AA2184E020E028
:1051C00030E02F5F3F4FEFE3FCE93197F1F700C08C
:1051D0000000253FF1E03F0728F010922A020093DB
:1051E0002401D8CF90912A02913089F410922A029A
:1051F00011E0180F193011F412E0180F1E3008F0EA
:1052000014E0812F0E94AA21812F20E030E09091AC
:105210002A029230B1F610922A0280932401BACF6A
:1052200011E003E0B2E0FB2E80912401843009F00C
:105230005DC060918E0470918F044AE151E08091CD
:105240005704909158040E94562090938B048093A9
:105250008A04009721F483E080932401E4C00E9433
:105260006413109254041092E9041092EA0410920C
:10527000EB041092EC0410932A0280E090E0019677
:10528000EFE3FCE93197F1F700C00000853FF1E062
:105290009F0738F0F092240185E999E00E941136C9
:1052A000C3CF20912A02213071F410922A0260E0CB
:1052B0008AE191E00E94D323882319F0009324010E
:1052C000B3CF80E090E020912A022230C1F661E065
:1052D0008AE191E00E94D3232FEF4DE252E2215068
:1052E00040405040E1F700C00000C7CF11E003E0AC
:1052F000A2E0FA2E80912401873009F05DC0609110
:105300008E0470918F0442E151E080915704909196
:1053100058040E94562090938B0480938A0400972F
:1053200021F483E080932401AEC00E9464131092A4
:1053300054041092E9041092EA041092EB041092C3
:10534000EC0410932A0280E090E00196EFE3FCE980
:105350003197F1F700C00000853FF1E09F0738F07A
:10536000F092240185E999E00E941136C3CF209183
:105370002A02213071F410922A0260E082E191E069
:105380000E94D323882319F000932401B3CF80E037
:1053900090E020912A022230C1F660E082E191E0A3
:1053A0000E94D3232FEF41EE54E021504040504063
:1053B000E1F700C00000C7CF13E031C01093240113
:1053C00060918E0470918F0442E151E08091570406
:1053D000909158040E94562090938B0480938A04E5
:1053E000009709F140E050E0BA010E9480178091D7
:1053F0008A0490918B040E9464131092E904109225
:10540000EA041092EB041092EC040E94631E63E025
:1054100083E00E94CA1D8AE797E00E94E01E809107
:105420002401883059F2FF24F394E2E0EE2EF5E0F7
:10543000BF2E20C00E945B38F80181938F01CE16E9
:10544000DF06C1F71092A6041092A70401EA14E047
:1054500080E0F80161918F010E947406F4E0083A3F
:105460001F07B9F78093A804F0922902E092240163
:10547000B092230180912401853029F4F092A10497
:1054800002EA14E0D7CF62E0F62E76E0E72E8091B4
:1054900024018630E1F41092A2041092A304109229
:1054A000A4041092A5041092A60402EA14E00E943B
:1054B0005B38F80181938F01F4E0073A1F07B9F7D1
:1054C000F0922902F0922401E0922301E0CF23E040
:1054D000E22E809124018A3009F06FC0449A0E9424
:1054E000631E8091240161E08C3029F480E090E01B
:1054F0000E94581C03C080E00E94381C8823B9F029
:1055000063E081E00E94CA1D8BE697E00E94E01EE6
:105510008BE899E00E94113683E08093240144983F
:105520003AE0832E43E0542E5FE5952EB8C061E04B
:1055300081E00E94CA1D00E010E080912A028230C2
:10554000B1F1F12C1982CE0101960E94171C8981BC
:105550000E94511F8F2D8770873021F480E20E94B6
:10556000A01E02C00E94671FF39420E2F212EACF4D
:1055700066E081E00E94CA1D83E697E00E94E01E7B
:10558000812F0E94EF1E802F0E94EF1E005E1F4F92
:1055900061E081E00E94CA1D80912A028823E1F324
:1055A00080912A02813049F610922A02C6CF44988F
:1055B00010922A02E09224018CCF8C3009F48ECF15
:1055C000AFCF61E00D3009F4ECC080E00E94381CE0
:1055D0008111EDC090E2A92EB12CE12CF12C09EA49
:1055E00014E0C8010E94171C0F5F1F4F6016710660
:1055F000C1F740E450E069EA74E080918A04909138
:105600008B040E942E1580349105E1F080918A046C
:1056100090918B040E94641363E081E00E94CA1D94
:1056200087E297E00E94E01E8BE899E00E94113625
:1056300044988FEF93EDE0E381509040E040E1F734
:1056400000C00000FFEFEF1AFF0AAE14BF0439F6E6
:10565000449880918A0490918B040E9464130E9464
:10566000631E63E081E00E94CA1D89E197E00E9409
:10567000E01E64E081E00E94CA1D84E091E00E9487
:10568000D41E90920B0190920C0180912A028823E3
:10569000E1F380912A02813011F410922A020091E4
:1056A00024010B3009F09EC050922401449A0E94BC
:1056B000631E10E0812F682D0E947436805D8093F8
:1056C0000B01905D90930C0160918E0470918F049A
:1056D00044E051E080915704909158040E94562074
:1056E00090938B0480938A04892B19F549E554E043
:1056F00064E071E080918E0490918F040E947E1B83
:10570000811119C063E081E00E94CA1D84E597E021
:105710000E94E01E8BE899E00E94113644984FEFFA
:1057200053ED80E3415050408040E1F700C000005D
:1057300010C0F12C02C0FF24F39480918A04909150
:105740008B040E946413F11004C01F5F143609F02B
:10575000B1CF60918E0470918F0444E051E080914C
:105760005704909158040E94562090938B04809384
:105770008A04892B09F025CF63E081E00E94CA1DCD
:1057800085E497E00E94E01E8BE899E00E941136C4
:1057900044989FEFE3EDF0E39150E040F040E1F7F3
:1057A0001AC080E090E00E94581C8823B9F063E0A2
:1057B00081E00E94CA1D86E397E00E94E01E8BE80C
:1057C00099E00E94113644982FEF43ED50E32150A9
:1057D00040405040E1F700C0000007C080E8A82E1C
:1057E000B12CFBCE0D3009F45FCF809124018250A3
:1057F000823008F0FECBD2C911E033CA89EB97E0C2
:105800003ACA0E94631E63E081E00E94CA1D8CE9CF
:1058100097E00E94E01E8FE899E00E9411362FEF7A
:1058200043ED50E3215040405040E1F700C00000FC
:105830007ECAEF92FF920F931F93CF93DF939C0149
:10584000285F3F4FFC011192E217F307E1F7E09167
:1058500090042E2F207E203409F08AC020E030E012
:10586000F0E0D9019396ED0163E0D595C7956A956F
:10587000E1F7C057DB4F488150E0A770BB2702C05B
:10588000440F551FAA95E2F7DF01022E02C0AA0FAE
:10589000BB1F0A94E2F74A275B2747FD69C02F5FC9
:1058A0003F4F28303105E9F623E030E0A0E8B0E0D2
:1058B000C4E0D0E04DEF420FF90153E0F595E795D4
:1058C0005A95E1F7E057FB4FE0810E2F10E0F90108
:1058D000E770FF277D0102C0F594E794EA95E2F7AF
:1058E000F701E023F123EF2BA1F0542F56955695A5
:1058F0005695FE01E51BF109E80FF91F47708D0170
:1059000002C0159507954A95E2F7A8015081452BED
:1059100040832F5F3F4F2332310561F6FC013496FF
:1059200000E810E0FF24F3943081C32FD0E040E082
:1059300050E020E0D801042E02C0B595A7950A9446
:10594000E2F7AC23BD23AB2B09F02F254F5F5F4F50
:105950004730510579F7632F617070E030E06217CE
:10596000730731F431978E179F07F1F680E001C07D
:1059700081E0CDB7DEB7E6E00C948737CF93DF93B5
:10598000EC0180E680937C003AE63A95F1F700C09E
:10599000E0E9F4E089E994E011928E179F07E1F7BE
:1059A00024E680E090E030917900830F911D65E35B
:1059B0006A95F1F700002150B1F764E670E00E94AB
:1059C0008036262F54E640E080E090E030E06091A1
:1059D0007900621730F4442321F0830F911D40E0D9
:1059E00011C060917900261730F4411104C0830F73
:1059F000911D41E007C065E16A95F1F700003F5F46
:105A0000383C29F7515011F764E670E00E94803667
:105A1000762F6550633110F081E057C09FEF85E32A
:105A20008A95F1F7000080917900821718F0915063
:105A3000B1F7F2CF80E035E33A95F1F7000030910D
:105A40007900231720F08F5F8436A9F702C07817FA
:105A500070F790E0A0E8B0E030E080917900821724
:105A600040F065E16A95F1F700003F5F3739A9F72B
:105A700004C0363989F2731790F4E92FE695E6955C
:105A8000E695F0E0E057FB4F892F8770AD0102C02B
:105A9000559547958A95E2F78081482B408330E001
:105AA00080917900281770F085E18A95F1F7000060
:105AB0003F5F3739A9F79F5F963471F6CE010E9498
:105AC000192C03C03639B9F7A7CFDF91CF910895CC
:105AD000A0E1B0E0EEE6FDE20C946237009719F425
