S01000006B65795F636F70792E73726563B1
S11300000C948E050C94AB050C94AB050C94AB05C9
S11300100C94AB050C94AB050C94AB050C94AB059C
S11300200C94AB050C940D200C94AB050C94AB050F
S11300300C94AB050C94AB050C94AB050C94AB057C
S11300400C94AB050C94AB050C948E360C94AB0558
S11300500C94AB050C94AB050C94AB050C94AB055C
S11300600C94AB050C94AB05FB21A121B721BE2157
S1130070C521CC21D321DA21E121E821EF2100009F
S1130080000000000000000000000000000000006C
S11300900000000000C0C03030303030303030302C
S11300A0303030303030303030303030303030304C
S11300B0303030303030303030C0C000000000000C
S11300C0000000000000000000000000000000002C
S11300D0000000000000000000000000000000001C
S11300E000000000000000FFFF00000000000030DE
S11300F03000000000000000000C0C0000C0C0CC68
S1130100CC000000000000C0C0000000000000FFA0
S1130110FF0000C0C0C0C0000000000000000000DC
S1130120000000000000000000000000000000FCCF
S1130130FCCCCC0C0C3C3CF0F0C0C0FFFF00000039
S11301400000000000C0C00000030300000000FF26
S1130150FF0000000003030C0C303030303030302E
S11301603030300F0F030300000000FFFF000000D9
S1130170000000000000000000000000000000007B
S1130180000000000003030F0F3C3C3030F3F3FF8A
S1130190FF000000000C0C00000000C0C0000303BE
S11301A000FFFF00008080000030303C3C00000075
S11301B00000003030000030303C3C008080000003
S11301C000FFFF000000000000000000000000002D
S11301D0000000000000000000000000000000C05B
S11301E0C030303F3F3030C0C0C0C0C3C3C0C0C047
S11301F0C0C0C0C0C0C3C3CCCCF1F1C0C0C0C0CF6C
S1130200CFCCCCCCCCCFCFCCCCCCCCCFCFC0C0C03F
S1130210C131300C0C03030000000000000000009A
S113022000000000000000000000000000000000CA
S11302300000000F0F0C0C0C0C0F0F030300000F39
S11302400F0C0C0C0C030300000000000000000362
S1130250030C0C0C0C0F0F000003030C0C0C0C0310
S11302600300000000000000000000000000000087
S1130270000000000000000000000000002F00004B
S11302800007000700147F147F14242A7F2A1232E7
S11302903408162636495522500005030000001C78
S11302A02241000041221C0014083E081408083EA4
S11302B0080800005030001010101010006060009A
S11302C00020100804023E5149453E00427F400090
S11302D042615149462141454B311814127F102780
S11302E0454545393C4A49493001710905033649B8
S11302F0494936064949291E00363600000056365B
S1130300000008142241001414141414004122148F
S1130310080201510906324959513E7E1111117EDC
S11303207F494949363E414141227F4141221C7F58
S1130330494949417F090909013E4149497A7F08F0
S113034008087F00417F41002040413F017F08149D
S113035022417F404040407F020C027F7F0408100E
S11303607F3E4141413E7F090909063E4151215EDC
S11303707F09192946464949493101017F01013F55
S11303804040403F1F2040201F3F4038403F6314FF
S113039008146307087008076151494543007F4109
S11303A0410004081020400041417F000402010282
S11303B0044040404040000102000020545454785E
S11303C07F484444383844444420384444487F38BF
S11303D054545418087E0901020C5252523E7F08AC
S11303E004047800447D40002040443D007F1028F0
S11303F0440000417F40007C041804787C08040415
S11304007838444444387C14141408081414187CB0
S11304107C080404084854545420043F4440203CBD
S11304204040207C1C2040201C3C4030403C442860
S11304301028440C5050503C4464544C4408083632
S1130440414100007F0000414136080802010202D8
S1130450017F7F7F7F7F3E3E3E3E3E007F3E1C0805
S1130460081C3E7F00087C7E7C08103E7E3E100007
S11304707E7F7E00007E7B7E00007E737E00007E99
S1130480637E00007E437E0000003E0000201008D2
S113049004020808080808020408102067657D059E
S11304A00708221C413E0502050000403C101C20A8
S11304B0552A552A5500070507007F7F7F7E7C005B
S11304C00000000000000000000000000000000028
S11304D00000000000000000000000000000000018
S11304E00000000000000000000000000000000008
S11304F000000000000000000000000000000000F8
S113050000000000000000000000000000000000E7
S113051000000000000000000000000000000000D7
S113052000000000000000000000000000000000C7
S113053000000000000000000000000000000000B7
S113054000000000000000000000000000000000A7
S11305500000000000000000000000000000000097
S11305600000000000000000000000000000000087
S11305700000000000000000000000000000000077
S11305800000000000000000000000000000000067
S11305900000000000007C1211127C7F494949319F
S11305A07F494949367F01010101603F213F607F56
S11305B04949494177087F087722414949367F10E4
S11305C008047F7E1009047E7F08142241403E0106
S11305D0017F7F020C027F7F0808087F3E41414172
S11305E03E7F0101017F7F090909063E4141412205
S11305F001017F0101074848483F0E117F110E6336
S1130600140814633F20203F60070808087F7F40D8
S11306107E407F3F203F207F017F4848307F483025
S1130620007F007F484830224149493E7F083E41CF
S11306303E462919097F20545454783C4A4A4A3189
S11306407C545428007C04040C00603C243C603836
S1130650545454186C107C106C00445454287C205E
S113066010087C7C2112097C7C102844004038044A
S1130670047C7C0810087C7C1010107C38444444B2
S1130680387C0404047C7C14141408384444440066
S113069004047C04040C5050503C08147C1408449A
S11306A0281028443C20203C600C1010107C7C4016
S11306B07C407C3C203C207C047C5050207C50209E
S11306C0007C007C50502028445454387C1038441A
S11306D038485434147CCBEEE320EEF7E8F9E5ED2A
S11306E0210043616E2774206F70656E206C6F6704
S11306F00D0A0043616E2774206F70656E206C6F65
S1130700670D0A0043616E2774206F70656E206B5D
S11307106579730D0A00204F686D0D0A0020CEEC38
S1130720005761697420666F722061206B65790DD2
S11307300A00C6E4F320EAEBFEF7208E005553428C
S11307400053440043616E2774206F70656E206B04
S11307506579730D0A004B542D3031206973207272
S113076065636F726465640D0A004B542D3031204B
S1130770E7E0EFE8F1E0ED00CFEEE4EAEBFEF7E8C6
S1130780F2E520F9F3EF007435353537206973202D
S11307907265636F726465640D0A007435353537AC
S11307A020E7E0EFE8F1E0ED000D0A003BD6E8F4C5
S11307B0F0E0EB3B003BCCE5F2E0EAEEEC3B003B47
S11307C0CAD22D30313B003BCFF0EEEAF1E83B00DA
S11307D03BC4E0EBEBE0F13B00CAD22D303100CC5E
S11307E0E5F2E0EAEEEC00D6E8F4F0E0EB00CFF05E
S11307F0EEEAF1E800C4E0EBEBE0F1006379667245
S1130800616C006D6574616B6F6D006B742D3031BC
S113081000726669640064616C6C6173007772696C
S11308207465007265616400206973207265636F8A
S1130830726465640D0A0020E7E0EFE8F1E0ED0082
S1130840746D3230303400746D3230303400746D75
S11308503038763200746D30387632005257313980
S11308603930005257313939300057726974652074
S11308706572726F720D0A00CEF8E8E1EAE020E7D3
S1130880E0EFE8F1E8004B657920616C7265616422
S113089079207265636F726465640D0A008E20F3BB
S11308A0E6E520E7E0EFE8F1E0ED005772697469EE
S11308B06E672E2E2E0D0A00C7E0EFE8F1FBE2E092
S11308C0FE0020D0E0EDE4EEEC20CFF0EEEAF1E81B
S11308D00020D0E0EDE4EEEC20C4E0EBEBE0F1002E
S11308E020CEF7E8F1F2E8F2FC20EBEEE320002062
S11308F0D1ECEEF2F0E5F2FC20EBEEE3200020D1A7
S1130900EFE8F1EEEA202020202020200020D7F27A
S1130910E5EDE8E520202020202020000D0A00F24B
S1130920E0E9ECF1EBEEF220003A4352432020469A
S1130930414D3A000D0A005265736973746F720079
S1130940D0E5E7E8F1F2EEF00043796672616C2ECF
S113095054432D303100D6E8F42E54432D30310069
S113096043796672616C2E323039342E3100D6E808
S1130970F42E323039340043796672616C00D6E863
S1130980F4F0E0EB004D6574616B6F6D2E454C43E4
S113099000CCE5F22E454C43004D6574616B6F6DE0
S11309A02E4D4B393900CCE5F22E4D4B3939004DE3
S11309B06574616B6F6D00CCE5F2E0EAEEEC004B20
S11309C0542D303100CAD22D3031005246494400F2
S11309D0CFF0EEEAF1E80044616C6C617300C4E0AE
S11309E0EBEBE0F100547970653A2000D2E8EF3A7D
S11309F020006572726F72206F70656E696E672079
S1130A0066696C653A206B6579732E6373760D0A9B
S1130A10006572726F72206F70656E696E67206612
S1130A20696C653A206C6F672E6373760D0A006FEC
S1130A3070656E696E6720726F6F74206469726589
S1130A4063746F7279206661696C65640D0A006F66
S1130A5070656E696E672066696C65737973746519
S1130A606D206661696C65640D0A006F70656E695E
S1130A706E6720706172746974696F6E2066616953
S1130A806C65640D0A004D4D432F534420696E6913
S1130A907469616C697A6174696F6E206661696CEE
S1130AA065640D0A000F0B07030E0A06020D090503
S1130AB0010C0804003B003E005900412041003471
S1130AC032312F2D002D2F31323400200040008090
S1130AD0000001000200040008001000007177BF4C
S1130AE0706B6A7064CD5E7B597554B74F3E4B048E
S1130AF0470943453FB83B5F3835353832672FBE29
S1130B002C3B2ADC279F2583238521A31FDD1D2F52
S1130B101C9B1A1C19B4175F161D150011241FBE47
S1130B20CFEFD8E0DEBFCDBF11E0A0E0B1E0E6EA50
S1130B30F2E702C005900D92A632B107D9F725E07D
S1130B40A6E2B1E001C01D92AD38B207E1F70E9400
S1130B5043270C9451390C940000FC01218130E0AE
S1130B60322F22278081A901482BCA010895FC0154
S1130B7023816281862F90E0A0E0B0E0DC01992718
S1130B808827B22B2081822B2181BC01CD01722BBD
S1130B900895FC01718360830895FC01738362836B
S1130BA05183408308950F931F93CF93DF93FC01E8
S1130BB0DC0108961D92A817B907E1F780E020E050
S1130BC0880FA22FA695A695A695B0E0A75DBB4F6A
S1130BD04C9150E0922F977002C0559547959A9585
S1130BE0E2F740FD81608F70813021F4233010F0F2
S1130BF0235003C02F5F203719F7A0E0B0E030E0A6
S1130C0089010C5D1F4FA8014A0F5B1FCA01D3E085
S1130C1095958795DA95E1F7875D9B4FEC0188817F
S1130C2090E04770552702C0959587954A95E2F75D
S1130C3081709927BD01620F731FAB01C3E0559505
S1130C404795CA95E1F7475D5B4FEA01488150E05B
S1130C506770772702C0559547956A95E2F741700A
S1130C6055278417950709F055C01196A432B1058C
S1130C7051F680E062E070E0A0E0B0E090E02C5F2C
S1130C803F4F990F89010A0F1B1FA801C3E0559517
S1130C904795CA95E1F7475D5B4FEA01488150E00B
S1130CA0E801C770DD2702C055954795CA95E2F75C
S1130CB040FD91601196A430B10519F79B3069F09D
S1130CC020F4973039F540E009C09D3021F09E3082
S1130CD009F540EC03C040E801C040E4982F929528
S1130CE09F70DB01A91BB109AE0FBF1F50E0982F05
S1130CF09F70969502C0559547959A95E2F79C91F9
S1130D00492B4C938C5F803209F0B6CF81E083830A
S1130D1080E001C081E0DF91CF911F910F91089590
S1130D20CF93DF93EC0180E680937C003AE63A951A
S1130D30F1F700C0E9E2F4E08EE08E0F11928E1319
S1130D40FDCF24E680E090E030917900830F911D7F
S1130D5045E34A95F1F700002150B1F764E670E0ED
S1130D600E944337262F34E680E040E050E090E0D4
S1130D7060917900621730F4882321F0490F511DE6
S1130D8080E011C060917900261730F4811104C00D
S1130D90490F511D81E007C065E16A95F1F7000034
S1130DA09F5F983C29F7315011F7CA0164E670E05F
S1130DB00E944337862F65506331E0F590E061E08F
S1130DC070E030E040917900241748F045E14A95FD
S1130DD0F1F700003F5F3739A9F730E00AC0363930
S1130DE0E1F728C045E14A95F1F700003F5F373944
S1130DF041F0409179004217A8F73639D9F08317AA
S1130E0088F4E92FE695E695E695F0E0E75DFB4F7B
S1130E10392F3770AB0101C0440F3A95EAF730819E
S1130E20432B40839F5F903761F6CE01DF91CF91D2
S1130E300C94D30581E0DF91CF910895389A0895F9
S1130E40409838980895862798E03CE8282F2695FE
S1130E5080FF03C0822F832701C0822F9150B1F7F6
S1130E600895EF92FF920F931F93CF93DF93EC01BA
S1130E707C0188E0E80EF11C8E0180E0F8016191AC
S1130E808F010E9423070E151F05C1F790E02991D9
S1130E9021119F5FCE15DF05D1F7992321F0882317
S1130EA021F082E003C081E001C080E0DF91CF91B6
S1130EB01F910F91FF90EF900895811102C00C943F
S1130EC01E07389808950E941E0785E08A95F1F759
S1130ED0000081E00E945D078FEF90E00197F1F739
S1130EE000C00000089581110C9463070E941E073E
S1130EF08FEE90E00197F1F700C0000081E00E94BE
S1130F005D0795E39A95F1F7000008950E941E0786
S1130F1085E08A95F1F7000081E00E945D07E0E337
S1130F20EA95F1F786B1EBEDF0E03197F1F700C007
S1130F30000081700895CF93DF93D82FC8E08D2FE0
S1130F4081700E947307D695C150C9F7DF91CF9184
S1130F500895CF93DF93D82FD095C8E08D2F81705B
S1130F600E947307D6958FE39CE90197F1F700C0BF
S1130F700000C15099F7DF91CF9108958FE599E072
S1130F800197F1F700C000000E9463079FEF20E77C
S1130F9082E0915020408040E1F700C000000895B5
S1130FA0CF93DF93D8E0C0E0C6950E9486078111F5
S1130FB0C068D150C9F78C2FDF91CF9108950E945A
S1130FC01E078FE09EE00197F1F700C0000081E06A
S1130FD00E945D0795E39A95F1F70000309B12C0DB
S1130FE0E7E1F1E03197F1F700C0000096B1892FF5
S1130FF0817090FD09C0E7E6F6E03197F1F700C093
S11310000000089581E0089582E008950E941E077B
S11310108FE09EE00197F1F700C0000081E00E949C
S11310205D0795E39A95F1F700009AE0000000004F
S113103000000000000000000000000000000000AC
S1131040309B03C09F5F943689F7E7E6F6E031975B
S1131050F1F700C0000026B1822F817020FF05C087
S1131060933610F080E00895892F0895BF92CF92AF
S1131070DF92EF92FF920F931F93CF93DF93EC01D4
S1131080109237040E940608182F8A3010F481E069
S113109031C083E30E949B076E0188E0C80ED11C17
S11310A07E010E94D007F70181937F01EC15FD05B5
S11310B0C1F7CE010E9431078823D1F018E00E94C5
S11310C00608082F8A3018F383E30E949B077E01E9
S11310D0F701B1907F010E94D007B812D8CFEC1469
S11310E0FD04B1F7115059F70093370482E002C0B0
S11310F010933704DF91CF911F910F91FF90EF90E0
S1131100DF90CF90BF900895EF92FF920F931F93BB
S1131110CF93DF938C010E94DF07882311F0C1E095
S113112041C08DE10E949B070E9463078FE39CE905
S11311300197F1F700C000000E94DF078111EFCF93
S113114085ED0E949B07E801780198E0E90EF11C07
S1131150F80181918F010E94A9070E151F05C1F79F
S11311600E94DF078111DBCF83E30E949B07199163
S11311700E94D007181315C0CE15DF05C1F70E94D1
S1131180DF07C82F8111CBCF8DE10E949B0780E040
S11311900E9473078FE39CE90197F1F700C00000F8
S11311A001C0C2E08C2FDF91CF911F910F91FF906E
S11311B0EF900895EF92FF920F931F93CF93DF93D5
S11311C08C010E94DF07882311F0C1E041C081ED4A
S11311D00E949B0780E00E9473078FE39CE90197BC
S11311E0F1F700C000000E94DF078111EECF85ED0A
S11311F00E949B07E801780198E0E90EF11CF801D0
S113120081918F010E94A9070E151F05C1F70E9445
S1131210DF078111DACF83E30E949B0719910E94B3
S1131220D007181314C0CE15DF05C1F70E94DF07DD
S1131230C82F8111CACF81ED0E949B070E946307CA
S11312408FE39CE90197F1F700C0000001C0C2E000
S11312508C2FDF91CF911F910F91FF90EF90089504
S1131260CF92DF92FF920F931F93CF93DF93F82EC9
S1131270092F0E94DF07182F81112BC08CE30E94D5
S11312809B0780E00E949B0780E00E949B07CF2D74
S1131290D02FF12C05E66E0188810E949B0768819E
S11312A0802F0E942307082F0E94D007801711F077
S11312B012E010C00E94BE070E94D0072196F601DA
S11312C090818913F5CF01E00F0D083019F0F02E4D
S11312D0E2CF11E0812FDF91CF911F910F91FF9009
S11312E0DF90CF9008956F927F928F929F92AF92EA
S11312F0BF92CF92DF92EF92FF920F931F93CF93FF
S1131300DF9300D000D0CDB7DEB74C01892B09F4B0
S113131077C0423051056105710508F471C0CB01F5
S1131320BA01D401ED91FC912085608071802B304D
S113133089F524E030E040E050E00E94F737F40102
S1131340A284B384C484D584E684F7840089118993
S11313500E944038F4E0EF2EF12C8E010F5F1F4FF6
S1131360F3010995882309F44BC009811A812B8163
S11313703C81011511052105310509F441C0D9014C
S1131380C801805F9F4FAF4FBF404097A105B10593
S1131390A0F536C022E030E040E050E00E94F7378C
S11313A0D4011A96AC901A971B96BC901B971C9666
S11313B0CC901C971D96DC901D971E96EC901E9762
S11313C01F96FC901F9750960C91509751961C9124
S11313D00E944038E2E0EE2EF12C8E010F5F1F4F89
S11313E0F3010995882361F089819A818C0120E0B9
S11313F030E001978F3E9F4F18F4B801C90104C033
S113140060E070E080E090E00F900F900F900F90FC
S1131410DF91CF911F910F91FF90EF90DF90CF90CC
S1131420BF90AF909F908F907F906F9008952F9270
S11314303F924F925F926F927F928F929F92AF9260
S1131440BF92CF92DF92EF92FF920F931F93CF93AD
S1131450DF93CDB7DEB762970FB6F894DEBF0FBE49
S1131460CDBF1C012A013B01892B09F4F9C042308C
S113147051056105710508F4F3C0D1011A96BC91B8
S1131480BD83F101F385FE83D1011C96BC91BF831A
S1131490F101F585F887D1011E96BC91B987F10158
S11314A0F785FA87D1015096BC91BB87F101F18988
S11314B0FC87D101ED91FC9180858B3009F0A4C0AB
S11314C0C301B20124E030E040E050E00E94F7376D
S11314D0AD80BE80CF80D884E984FA840B851C85D6
S11314E00E9440382D873E876A016F87788B898BED
S11314F09A8BD101ED91FC910190F081E02D44E0B3
S1131500E42EF12C8E010F5F1F4FA601099588234D
S113151009F4A7C089809A80AB80BC8081149104AF
S1131520A104B10409F49AC0D501C401805F9F4F9E
S1131530AF4FBF400897A105B10508F491C0D5018C
S1131540C401885F9F4FAF4FBF400897A105B10505
S113155018F4812C912C5401F10186A597A5A0A91A
S1131560B1A9892B8A2B8B2B21F446A657A660AAF6
S113157071AA19821A821B821C82D101ED91FC91FD
S11315800480F581E02D24E0E22EF12C8E010F5F22
S11315901F4F2D853E85A6016F85788989899A8993
S11315A0099581149104A104B10409F457C02401DC
S11315B0350186CFC980DA80C114D10409F44EC044
S11315C0C6014096089708F44BC0B8EFCB16BFEF9E
S11315D0DB0610F0C12CD12C1A821982D101ED91B5
S11315E0FC910480F581E02D82E0E82EF12C8E013F
S11315F00F5F1F4F9201A301B401C5010995260194
S1131600612C712CCD2851F1C301B20122E030E0EC
S113161040E050E00E94F737AD80BE80CF80D88490
S1131620E984FA840B851C850E94403829013A011B
S11316304B015C01D101ED91FC910190F081E02D11
S113164092E0E92EF12C8E010F5F1F4F9201A3014E
S1131650B401C50109958111ADCF03C081E001C07A
S113166080E062960FB6F894DEBF0FBECDBFDF9167
S1131670CF911F910F91FF90EF90DF90CF90BF908B
S1131680AF909F908F907F906F905F904F903F901E
S11316902F9008952F923F924F925F926F927F9274
S11316A08F929F92AF92BF92CF92DF92EF92FF926E
S11316B00F931F93CF93DF93CDB7DEB7A9970FB6E0
S11316C0F894DEBF0FBECDBF4C014CA35DA36EA347
S11316D07FA30B871C872D873E87009709F436C1AB
S11316E0DC01ED91FC9111972081318139A728A764
S11316F0448155815A8B498B1A965C911A975B8B5E
S11317001B968C911B978C8B1C969C911C979D8B84
S11317101D96AC91AE8BD4011E96BC91BF8BD401A7
S11317201F96BC91B88FD4015096BC91B98FD40147
S11317305196BC91BA8FD4019E964D905D906D9058
S11317407C90D197B1E0BBA32085F4018289938971
S1131750A489B5892B3041F01BA29C01AD0156959B
S113176047953795279509C09C01AD0192E05695A0
S11317704795379527959A95D1F72B8F3C8F4D8FA9
S11317805E8FD4019E961D921D921D921C92D1973C
S11317902B8D3C8D4D8D5E8D2F8F38A349A35AA37D
S11317A01F82188619861A868F8D98A1A9A1BAA1BD
S11317B0892B8A2B8B2B09F463C032E04316510426
S11317C06104710448F08B8D9C8DAD8DBE8D4816DF
S11317D059066A067B0628F082E0482E512C612CBB
S11317E0712C9BA1992331F1C301B20124E030E0B3
S11317F040E050E00E94F737AB88BC88CD88DE8893
S1131800EF88F88C098D1A8D0E944038D22EC32E91
S1131810B42EA52E6F87788B382E292E04E0E02E67
S1131820F12C8E010F5F1F4FE8A5F9A509958111D1
S113183092C08CC0C301B20122E030E040E050E02D
S11318400E94F737AB88BC88CD88DE88EF88F88C97
S1131850098D1A8D0E944038D22EC32EB42EA52E87
S11318606F87788B382E292E12E0E12EF12C8E0111
S11318700B5F1F4FE8A5F9A509958111BCC066C08F
S11318802B853C854D855E85232B242B252B09F048
S113189056C08CA19DA1AEA1BFA10297A105B1051F
S11318A028F46F81788589859A85E3C09BA1992363
S11318B019F12F81388549855A8529833A834B83C9
S11318C05C836CA17DA18EA19FA124E030E040E067
S11318D050E00E94F737AB88BC88CD88DE88EF885B
S11318E0F88C098D1A8D0E944038F4E0EF2EF12C0B
S11318F08E010F5F1F4F1EC02F8138853E832D83BD
S11319006CA17DA18EA19FA122E030E040E050E0D7
S11319100E94F737AB88BC88CD88DE88EF88F88CC6
S1131920098D1A8D0E944038E2E0EE2EF12C8E01D2
S11319300B5F1F4FE989FA8909958111B2CF4F8155
S1131940588569857A85C4010E94170A60E070E0B1
S113195080E090E08EC089819A81AB81BC81892B23
S11319608A2B8B2B09F05BC02B853C854D855E85CE
S1131970232B242B252B09F44AC02F813885498534
S11319805A85232B242B252B49F48FEF9FEFAFEFA0
S1131990BFE089839A83AB83BC8308C02F813885D9
S11319A049855A8529833A834B835C83B4E0EB2EC3
S11319B0F12C8E010F5F1F4F2D2D3C2D4B2D5A2DD9
S11319C06F857889832D922DE989FA890995882371
S11319D009F4B5CF2B853C854D855E8521503109B1
S11319E0410951092B873C874D875E874F82588672
S11319F069867A8614C08D819E81892B81F48B85BA
S1131A009C85AD85BE85892B8A2B8B2BD1F4D40183
S1131A109E964D925D926D927C92D1973ACF2F8D86
S1131A2038A149A15AA121503109410951092F8FE7
S1131A3038A349A35AA33FEF431A530A630A730A0C
S1131A40B3CE2F81388549855A85232B242B252B0A
S1131A5029F44FEF5FEF5E834D8304C08F81988537
S1131A609E838D83A2E0EA2EF12C8E010B5F1F4F23
S1131A70A3CFA9960FB6F894DEBF0FBECDBFDF91FA
S1131A80CF911F910F91FF90EF90DF90CF90BF9077
S1131A90AF909F908F907F906F905F904F903F900A
S1131AA02F90089580E190E00895AF92BF92CF9275
S1131AB0DF92EF92FF920F931F93CF93DF93EC018A
S1131AC0892BE1F04230510561057105B8F0CB0175
S1131AD0BA016250710981099109288D398D40E05C
S1131AE050E00E94F737AA8CBB8CCC8CDD8CEE8C3A
S1131AF0FF8C08A119A10E94403808C020E030E002
S1131B0040E050E060E070E080E090E0DF91CF9151
S1131B101F910F91FF90EF90DF90CF90BF90AF9007
S1131B2008959C01FC018191A901455F5F4F90E8F4
S1131B30899F90011124982F9695922B2191892F9A
S1131B40820FE417F50799F708954F925F926F9209
S1131B507F928F929F92AF92BF92CF92DF92EF9239
S1131B60FF920F931F93CF93DF93CDB7DEB72D97DB
S1131B700FB6F894DEBF0FBECDBFF701C080D18091
S1131B80A281B3819096B383A283DC01FC90B5EE6D
S1131B90FB1611F0F11002C014824EC0DC011B963A
S1131BA0FC90BFE0FB124AC0F480FF2029F0DC0166
S1131BB01D96EC90FE1499F0A1E3FA2ED6011D9225
S1131BC0FA94E9F7DC011D96FC90F482F60101A772
S1131BD012A723A734A745A756A767A770ABDC01B4
S1131BE02C912F7330E0215031096DE0629FA001E8
S1131BF0639F500D1124E7E1F1E0DE01119601909D
S1131C000D926A95E1F7C40ED51EFE0131964E1B66
S1131C105F0B6DE06E0F9A012E0F3F1F2F313105C0
S1131C2058F421918C01020F111DD8012C91D60179
S1131C302D936D016E13EFCF81E0B1C07F01572E5C
S1131C40662E752E442E49015C01F601808188239D
S1131C5049F0C5010E94910DD70114969C919817E3
S1131C6009F468C081E3F60111928A95E9F7D60177
S1131C7099960C9399979A961C939A979B968C9203
S1131C809B979C969C929C979D964C929D979E9612
S1131C907C929E979F966C929F97D0965C92D5016A
S1131CA0A60180E09C91903299F0FA019083F501AD
S1131CB0248523FF07C02C9121542A3118F4905E07
S1131CC0FA0190838F5F11964F5F5F4F883051F711
S1131CD0D6019C91953011F495EE9C93F501908575
S1131CE0903221F191E0980FF601E80FF11D2EE2F8
S1131CF02083F50138968C5F20812032B1F0A60153
S1131D00490F511DDA012C93D5011C963C9134FFE7
S1131D1007C0308131543A3118F4205EDA012C9333
S1131D209F5F31969813E8CF01C0892FF601E80F21
S1131D30F11D1082F5018385D60190968C93C5011F
S1131D404A960E94AD05A0E0B0E0F60181A392A3FB
S1131D50A3A3B4A3C50144960E94AD05A0E0B0E0DE
S1131D60DC0199278827F60141A152A163A174A13E
S1131D70842B952BA62BB72B81A392A3A3A3B4A347
S1131D80C5014C960E94B705D60195966D937D9337
S1131D908D939C93989781E0F701858380E02D963D
S1131DA00FB6F894DEBF0FBECDBFDF91CF911F9168
S1131DB00F91FF90EF90DF90CF90BF90AF909F90E6
S1131DC08F907F906F905F904F9008952F923F92E5
S1131DD04F925F926F927F928F929F92AF92BF9237
S1131DE0CF92DF92EF92FF920F931F93CF93DF93E3
S1131DF0CDB7DEB7A5970FB6F894DEBF0FBECDBF43
S1131E00009711F480E049C161157105D9F34B01C4
S1131E10FC010190F081E02D848195819DA38CA328
S1131E20DB019996BC91B9A3FB01F2A5FAA3DB01EE
S1131E309B96BC91BBA3FB0164A455A446A437A400
S1131E4020A801900020E9F731976F01C61AD70A3C
S1131E501C2DC60199270C966DE070E00E9457373F
S1131E60762E4BE050E060E270E0CE0101960E94D5
S1131E70E7386EE270E0C4010E941F390097E1F078
S1131E80DC0111962C912223B9F0BC016F5F7F4FC6
S1131E90FB0101900020E9F73197E61BF70B4FEFA8
S1131EA04C0D142F1E1BE43008F0E3E04E2F50E0DD
S1131EB0CE0109960E94DE38193098F4412F50E083
S1131EC0B401CE0101960E94DE38F40180818E3285
S1131ED019F581818E3209F4828181111DC0712C22
S1131EE01BC088E0F401DE01119601900D928A95E1
S1131EF0E1F7D40191968C91982F92959F70803A36
S1131F0010F4905D01C09F599F838F708A3010F444
S1131F10805D01C08F5988878981853E11F485E0F1
S1131F208983FE013C9685E1DF011D928A95E9F7DC
S1131F30F40180A18C8781A192A1A3A1B4A1BD01C8
S1131F4088279927CE0145960E94C905D401919608
S1131F506D917C919297CE014B960E94C905F40134
S1131F6045A156A167A170A5CE014D960E94CD054D
S1131F70F0E27F9EA00111249A0140E050E060E06D
S1131F8070E080E090E0A9A0BAA0CBA0D62CE52C0C
S1131F90F42C032D122D0E944038E0E2EE2EF12C99
S1131FA08E010F5F1F4FECA1FDA10995882309F451
S1131FB029CFC8010E94910DC82ED72C9DE0B92EBF
S1131FC02FE0A22EDD2009F467C040E250E06FEF5D
S1131FD070E0CE0101960E94E7388D2D90E00197C4
S1131FE0B89EF001B99EF00D1124E80DF91D81E0B1
S1131FF091E0980FBF01408121E030E02C0F3D1F9C
S1132000280F311DD9014C938E5F21E030E02C0F55
S11320103D1F290F311DD9011C928B3021F08A31CB
S113202019F48CE101C08EE03196DB019C91992377
S113203011F08F31E8F2D982D71003C08D2D80645E
S11320408983AC86CE861D861B8E1C8E80E2E82E8C
S1132050F12C8E010F5F1F4F29A13AA14BA1562DE0
S1132060652D742D832D922DECA1FDA1099529A137
S11320703AA14BA1562D652D742D832D922DA0E2EE
S11320800E94493829A33AA34BA3652E562E472E06
S1132090382E292EDA9496CF81E0A5960FB6F894BF
S11320A0DEBF0FBECDBFDF91CF911F910F91FF9087
S11320B0EF90DF90CF90BF90AF909F908F907F90E4
S11320C06F905F904F903F902F900895AF92BF9282
S11320D0CF92DF92EF92FF920F931F93CF93DF93F0
S11320E0CDB7DEB760970FB6F894DEBF0FBECDBF95
S11320F04230510561057105F0F07C010E94550DD7
S11321008E010F5F1F4FE0E1D8011D92EA95E9F7B8
S1132110D701ED91FC9111975896ED90FC90599749
S11321200680F781E02DA12CB12CA2E5CA2EADE0EA
S1132130DA2E099501C080E060960FB6F894DEBFF0
S11321400FBECDBFDF91CF911F910F91FF90EF9004
S1132150DF90CF90BF90AF9008952F923F924F920F
S11321605F926F927F928F929F92AF92BF92CF9223
S1132170DF92EF92FF920F931F93CF93DF93CDB72C
S1132180DEB7A0970FB6F894DEBF0FBECDBFFC013B
S11321909B01892B09F453C14115510509F44FC121
S11321A0DA010D900020E9F7CD01841B950B0B9605
S11321B06DE070E00E9443376F5F68A3D9014D91D1
S11321C05D916D917C914C875D876E877F87A0813F
S11321D0B18118968C91452B462B472B21F58B30DA
S11321E049F402A513A524A535A50C871D872E87C0
S11321F03F8719C042A053A064A075A086A097A0F1
S113220020A431A4128D188F238D298F348D3A8FF9
S1132210458D4B8F568D5C8F678D6D8F70A17E8F32
S113222081A18F8F10C0188E198E1A8E1B8E1C8E52
S11322301D8E1E8E1F8E412C512C612C712C812CD5
S1132240912C212C312CFB83EA83488A598A6A8A8F
S11322507B8A8C8A9D8A2E8A3F8A1C829201A301E2
S1132260B401C101A88CB98CCA8CDB8CEC8CFD8CBC
S11322700E8D1F8D0E945E3809F099C00C851D8556
S11322802E853F85012B022B032B09F4D8C0920124
S1132290A0E00E94673809F44DC04C855D856E85C9
S11322A07F858A819B810E9473096115710581056F
S11322B09105E1F501E010E020E030E04C855D851A
S11322C06E857F858A819B810E944A0B2B013C018C
S11322D0611571058105910509F4B1C06250710958
S11322E081099109AA81BB8158962D913C915997F6
S11322F040E050E00E94F737EA81FB81A28CB38C66
S1132300C48CD58CE68CF78C00A111A10E944038B6
S1132310288B398B4A8B5B8B6C8B7D8B8E8B9F8B45
S1132320B301A201CF010E94661080C06C877D8733
S11323308E879F874C855D856E857F858A819B818D
S11323400E94550D29013A014B011C01AA81BB8150
S113235058968D919C9159978C0120E030E040E093
S113236050E0BA011D832E833F83488759876A87CB
S11323707B879201A301B401C1015801C12CD12C66
S1132380E12CF12C00E010E00E944038288F398FB6
S11323904A8F5B8F6C8F7D8F8E8F9F8F488A598A6F
S11323A06A8A7B8A8C8A9D8A2E8A3F8A1C82AA81A9
S11323B0BB81ED91FC910190F081E02DEE24E3943A
S11323C0F12C8E010F5F1F4F9201A301B401C101D3
S11323D009958823A1F18981853E11F0811112C0EC
S11323E0BC81BF5FBC83E8A1BE1700F59201A301C5
S11323F0B401C101A0E20E94493829013A014B010C
S11324001C012CCF9201A301B401C101A0E20E94DE
S11324104938288B398B4A8B5B8B6C8B7D8B8E8BED
S11324209F8B29013A014B011C0117CF2889398957
S11324304A895B896C897D898E899F8908C020E0DF
S113244030E040E050E060E070E080E090E0A09692
S11324500FB6F894DEBF0FBECDBFDF91CF911F91B1
S11324600F91FF90EF90DF90CF90BF90AF909F902F
S11324708F907F906F905F904F903F902F90089532
S11324802F923F924F925F926F927F928F929F9280
S1132490AF92BF92CF92DF92EF92FF920F931F936E
S11324A0CF93DF93CDB7DEB7C954D1090FB6F894F3
S11324B0DEBF0FBECDBF009709F42EC2DC01149617
S11324C02D913C911597232B09F426C216962D9134
S11324D03C911797232B09F41FC22091D701309107
S11324E0D801232B09F018C29FA38EA3E7EDF1E0D6
S11324F082E3DF011D928A95E9F7EEA1FFA1F09333
S1132500D801E093D701618572858385948520E0A5
S113251032E040E050E00E94F73759016A01962EFC
S1132520872E382E292EABE00E944938AEA1BFA1D8
S1132530ED91FC91A5E2EA2EF12C8E010F5F1F4F65
S11325400995811105C01092D8011092D701E4C1F8
S1132550CE0101960E94AD059BAB8AABCE010496D9
S11325600E94AD057C01BB81BEAFEE81EFAFCE0111
S113257007960E94AD0522969FAF8EAF2297CE019B
S113258009960E94AD058C01CE010C960E94AD0502
S113259099AF88AFCE0146960E94B7052B013C0146
S11325A0CE014A960E94B7056CAB7DAB8EAB9FAB58
S11325B0CE0182960E94B7052A966CAF7DAF8EAF8E
S11325C09FAF2A97411451046104710439F4011531
S11325D0110509F4B8CF2801612C712C08AD19AD8F
S11325E00115110541F0980140E050E02CAB3DABE2
S11325F04EAB5FAB09C08CA99DA9AEA9BFA9892B1D
S11326008A2B8B2B09F49FCF1FAD012F10E020E004
S113261030E026960CAF1DAF2EAF3FAF26972CA906
S11326203DA94EA95FA926966CAD7DAD8EAD9FAD3B
S113263026970E942737A30192012E193F094109C9
S11326405109261B370B480B590B2EA73FA748AB44
S113265059AB22968EAD9FAD2297B5E0880F991F96
S1132660BA95E1F74AA95BA941505109840F951F16
S11326706AA97BA90E9443370EA51FA528A939A9D9
S1132680061B170B21093109C901B8014EAD042FEE
S113269010E020E030E0A90198010E946B372EA7DA
S11326A03FA748AB59AB253F8FE03807410551059B
S11326B008F449CF253F3F4F4105510530F486E0EA
S11326C0AEA1BFA118968C9304C08BE0EEA1FFA12C
S11326D080878CE2E9EDF1E0DF011D928A95E9F74C
S11326E02AA93BA9890120E030E00AAF1BAF2CAF37
S11326F03DAFC301B201A90198010E94F7372093AD
S1132700D9013093DA014093DB015093DC016093EB
S1132710DD017093DE018093DF019093E001B70146
S113272080E090E02AAD3BAD4CAD5DAD0E94F73743
S1132730E92CF82C032D122D0E94403819012A018E
S11327403B014C012093E1013092E2014093E3010B
S11327505092E4016093E5017092E6018093E701F1
S11327609092E8016EA57FA588A999A96E5F7F4F15
S11327708F4F9F4FAEA1BFA118962C91263029F000
S113278024E030E040E050E004C022E030E040E0EB
S113279050E00E9427376093E9017093EA01809327
S11327A0EB019093EC01EAA9FBA9F093EE01E0930D
S11327B0ED01AEACAE9EC001AF9E900D112490937E
S11327C0F0018093EF01AEA1BFA118968C918630E1
S11327D009F057C0E8ADF9AD9F0140E050E06AADA3
S11327E07BAD8CAD9DAD0E94F737AFACB12CC12C45
S11327F0D12CE12CF12C00E010E00E949E37510115
S11328006201730184010E94403819012A013B01CD
S11328104C012093F9013092FA014093FB0150924C
S1132820FC016093FD017092FE018093FF01909280
S113283000022296AEACBFAC2297B50180E090E0D6
S113284020E230E040E050E00E94F73759016A018D
S11328507B018C019101A201B301C4010E944038A3
S11328602093F1013093F2014093F3015093F4016A
S11328706093F5017093F6018093F7019093F8014A
S113288048C0CAA8DBA8B60180E090E026962CAD2B
S11328903DAD4EAD5FAD26970E94F737CCA8DDA8BD
S11328A0EEA8FFA856016701E12CF12C8701AEA226
S11328B0BFA2C8A6D9A6EAA6FBA60CA71DA7E12C11
S11328C0F12C00E010E00E949E3751016201730177
S11328D084010E9440382093F1013093F201409327
S11328E0F3015093F4016093F5017093F601809322
S11328F0F7019093F8012A96ECACFDAC0EAD1FAD38
S11329002A97E0920102F0920202009303021093CC
S1132910040287ED91E002C080E090E0C75BDF4FE6
S11329200FB6F894DEBF0FBECDBFDF91CF911F91DC
S11329300F91FF90EF90DF90CF90BF90AF909F905A
S11329408F907F906F905F904F903F902F9008955D
S11329500097C9F161157105B1F1FB0120A124FDB6
S113296032C02091980130919901232B61F521E324
S1132970FB01AAE9B1E001900D922A95E1F7909349
S11329809901809398011092CB011092CC0110927E
S1132990CD011092CE011092CF011092D00110926D
S11329A0D1011092D201FB0181A192A1A3A1B4A1F2
S11329B08093D3019093D401A093D501B093D60111
S11329C088E991E0089580E090E00895009719F077
S11329D0FC011182108208952F923F924F925F92D0
S11329E06F927F928F929F92AF92BF92CF92DF921B
S11329F0EF92FF920F931F93CF93DF93CDB7DEB780
S1132A006A970FB6F894DEBF0FBECDBF988F8F8B39
S1132A107C8B6B8B5A8B498B892B19F48FEF9FEF2F
S1132A207EC1AB88BC88AB28C9F3C988DA88C114D5
S1132A30D104A1F3AF89B88DD396BC91B983EF8942
S1132A40F88DF4A9FA83AF89B88DD596BC91BB8370
S1132A50EF89F88DF6A9FC83AF89B88DD796BC9120
S1132A60BD83EF89F88DF0ADFE83AF89B88DD9961B
S1132A70BC91BF83EF89F88DF2ADF887AF89B88D2B
S1132A8097964D905D906D907C909A97960140E05A
S1132A9050E060E070E080E090E0A980BA80CB80F4
S1132AA0DC80ED80FE800F8118850E944038630130
S1132AB05201E12CF12C87014986BA86CB86DC864B
S1132AC0ED86FE860F87188BE12CF12C00E010E0D8
S1132AD00E945E3859F050F06201E980FA80CE1805
S1132AE0DF08DA8AC98ACD2809F417C1AF89B88DFD
S1132AF0ED91FC911197A08CB18CBA86A986DB96D6
S1132B004D905D906D907C90DE974114510461046A
S1132B10710409F04DC093964D905D906D907C903A
S1132B2096974114510461047104A9F4E1E0F0E0C2
S1132B3029813A814B815C816D817E818F81988569
S1132B40A0E00E94673811F4E0E0F0E088279927BC
S1132B508E1B9F0BE4C029813A814B815C816D817E
S1132B607E818F819885A0E00E94673809F1898071
S1132B709A80AB80BC8009851A856801E12CF12C10
S1132B808C149D04AE04BF0498F08C189D08AE0804
S1132B90BF08B301A201AF89B88D8D919C910E94A9
S1132BA073092B013C01672B682B692B49F736CF3E
S1132BB089859A850197E981FA81E823F923FA83C3
S1132BC0E98329883A88AF89B88DAD90BC90B30168
S1132BD0A201C5010E94550D2D8B3E8B6A017B011C
S1132BE08C0189849A84E981FA818E1A9F0A2814B7
S1132BF0390408F44101D5010D90BC91A02DBA8F80
S1132C00A98FE981FA819F0140E050E060E070E023
S1132C1080E090E0AD88BE880E944038A98DBA8DCE
S1132C20ED91FC9174010B891C890995882309F4A1
S1132C3060C0EB89FC89E80DF91DFC8BEB8B28182F
S1132C403908940140E050E060E070E080E090E0FA
S1132C50AF89B88DD396AC90D397D496BC90D497C3
S1132C60D596CC90D597D696DC90D697D796EC90FF
S1132C70D797D896FC90D897D9960C91D997DA968D
S1132C801C91DA970E944038D3962C93D397D4960C
S1132C903C93D497D5964C93D597D6965C93D69778
S1132CA0D7966C93D797D8967C93D897D9968C93CC
S1132CB0D997DA969C93DA97E981FA818E0E9F1E52
S1132CC0A984BA848A149B04D8F0B301A2018D911B
S1132CD09C910E9473092B013C01672B682B692B83
S1132CE069F4AF89B88DDB961D921D921D921C92DA
S1132CF0DE9789899A898219930911C01A821982E7
S1132D00EF89F88D43AE54AE65AE76AE211431042E
S1132D1009F059CF89899A8902C080E090E06A96C7
S1132D200FB6F894DEBF0FBECDBFDF91CF911F91D8
S1132D300F91FF90EF90DF90CF90BF90AF909F9056
S1132D408F907F906F905F904F903F902F90089559
S1132D502F923F924F925F926F927F928F929F92A7
S1132D60AF92BF92CF92DF92EF92FF920F931F9395
S1132D70CF93DF93CDB7DEB765970FB6F894DEBF78
S1132D800FBECDBF9B8B8A8B7E876D87588B4F87F9
S1132D90892B19F48FEF9FEFF7C1ED84FE84EF28A0
S1132DA0C9F30F851889012BA9F3AA89BB89D39686
S1132DB0BC91B983EA89FB89F4A9FA83AA89BB89FE
S1132DC0D596BC91BB83EA89FB89F6A9FC83AA89C1
S1132DD0BB89D796BC91BD83EA89FB89F0ADFE839C
S1132DE0AA89BB89D996BC91BF83EA89FB89F2ADD4
S1132DF0F887EA89FB8987A190A5A1A5B2A51C0142
S1132E002D0129813A814B815C816D817E818F8185
S1132E10988551016201E12CF12C00E010E00E9440
S1132E205E3811F008F0B6CF0190F081E02DE08C0F
S1132E30F18CFC86EB86AA89BB89DB964D905D906C
S1132E406D907C90DE97C7010197E980FA80E822B3
S1132E50F922FA86E986411451046104710409F0E7
S1132E6079C093964D905D906D907C9096974114A7
S1132E7051046104710411F58F819885A0E00E94CA
S1132E80673809F087CF01E010E020E030E040E04F
S1132E9050E0BA01CF010E944A0B2B013C01AA89E0
S1132EA0BB8993966D937D938D939C939697672B93
S1132EB0682B692B19F480E090E066C1EA89FB89EC
S1132EC013A9B4A905A9F6A867A970AD212F3B2FB2
S1132ED0402F5F2D81AD92ADA0E00E946738D1F103
S1132EE0812E932EA02EBF2C0B851C856801E12C0E
S1132EF0F12C8C149D04AE04BF0460F18C189D0861
S1132F00AE08BF08B301A201AA89BB898D919C9127
S1132F100E9473096115710581059105C1F481143D
S1132F209104A104B10409F035CF01E010E020E0E0
S1132F3030E0B301A201EA89FB89808191810E947A
S1132F404A0B611571058105910509F4B4CF2B0174
S1132F503C01CFCF2F843888AA89BB89ED90FC909F
S1132F60B301A201C7010E94550D59016A01698389
S1132F70798B8C018B849C84E985FA858E1A9F0A4F
S1132F802814390408F44101D7010D90BC91A02DF7
S1132F90BD8BAC8BE985FA859F0140E050E060E091
S1132FA070E080E090E0E980F9880E944038AC89C4
S1132FB0BD891496ED91FC91159774010D851E85BC
S1132FC00995882309F483C0ED85FE85E80DF91D74
S1132FD0FE87ED8728183908940140E050E060E04E
S1132FE070E080E090E0AA89BB89D396AC90D39737
S1132FF0D496BC90D497D596CC90D597D696DC90A1
S1133000D697D796EC90D797D896FC90D897D99620
S11330100C91D997DA961C91DA970E944038D3968E
S11330202C93D397D4963C93D497D5964C93D59719
S1133030D6965C93D697D7966C93D797D8967C936D
S1133040D897D9968C93D997DA969C93DA97E98591
S1133050FA858E0E9F1EEB84FC848E149F0458F117
S1133060B301A2018D919C910E94730961157105B0
S113307081059105E1F42114310491F001E010E09F
S113308020E030E0B301A201AA89BB898D919C9113
S11330900E944A0B2B013C01672B682B692B49F4D6
S11330A0EA89FB8913AE14AE15AE16AE10C02B011F
S11330B03C011A861986AA89BB89DB964D925D92DA
S11330C06D927C92DE972114310409F045CFEA8990
S11330D0FB89B3A9A4A985A896A867A970AD47A040
S11330E050A461A472A48301720120E030E0A9011C
S11330F04982FA820B831C832D833E834F83588736
S11331002B2F3A2FA40181AD92AD52016801E12C1D
S1133110F12C00E010E00E945E3891F188F19D01ED
S113312037A320A781A692A6BF016E5F7F4F80813F
S113313091810E94E60E811123C0AA89BB89D3968E
S11331402D903C90D49724183508E981D396EC93BC
S1133150D397FA81D496FC93D497EB80D596EC92CE
S1133160D597FC80D696FC92D697D7961C92D79783
S1133170D8961C92D897D9961C92D997DA961C9215
S11331808F8598898219930965960FB6F894DEBFE6
S11331900FBECDBFDF91CF911F910F91FF90EF90A4
S11331A0DF90CF90BF90AF909F908F907F906F9063
S11331B05F904F903F902F9008952F923F924F929F
S11331C05F926F927F928F929F92AF92BF92CF92B3
S11331D0DF92EF92FF920F931F93CF93DF93CDB7BC
S11331E0DEB760970FB6F894DEBF0FBECDBF009771
S11331F011F480E093C14D835E836F8378871C0153
S1133200DC0193964D905D906D907C909697ED9136
S1133210FC91808C918C411451046104710459F027
S11332202D813E814F8158852D873E874F87588B4E
S1133230A12CB12C24C04D815E816F817885452BF2
S1133240462B472B69F716C1B301A201D1018D9119
S11332509C910E947309611571058105910509F41A
S11332605AC12D853E854F855889281939094A093F
S11332705B092D873E874F87588B2B013C014D8579
S11332805E856F85788984169506A606B706E0F2F2
S113329073016201411451046104710461F58D8567
S11332A09E85AF85B889880D991DAA1DBB1DBC01DB
S11332B0CD016150710981099109A50194010E9410
S11332C06B3789019A01B301A201D1018D919C91BF
S11332D00E944A0B611571058105910509F489CF96
S11332E045284628472839F4F10163A374A385A32C
S11332F096A36B017C012D813E814F815885D101BC
S113330097962D933D934D935C939A97232B242B5F
S1133310252B29F4F10113A214A215A216A2B101BE
S11333206E5F7F4FD1018D919C910E94E60E8823A0
S113333009F45FCF2D813E814F815885232B242BA7
S1133340252B31F4B701A601D1018D919C9190C038
S11333502D853E854F85588982169306A406B506A9
S113336008F488C0D1018D909C908114910409F4D3
S113337081C0B2E0CB16D104E104F10408F47AC0B0
S1133380B701A601C4010E9473092B013C01D401B9
S1133390ED91FC918085248135813E872D878B308A
S11333A071F58FEF9FEFAFEFBFE089839A83AB8313
S11333B0BC83C701B60124E030E040E050E00E9445
S11333C0F737D4011A96AC901A971B96BC901B97AA
S11333D01C96CC901C971D96DC901D971E96EC9025
S11333E01E971F96FC901F9750960C9150975196DC
S11333F01C910E944038F4E0EF2EF12C29C08FEF8D
S11334009FEF9A838983C701B60122E030E040E050
S113341050E00E94F737D4011A96AC901A971B9685
S1133420BC901B971C96CC901C971D96DC901D9706
S11334301E96EC901E971F96FC901F9750960C9129
S1133440509751961C910E944038E2E0EE2EF12CE8
S11334508E010F5F1F4FED85FE850995882351F07E
S1133460411451046104710429F0B301A201C4019F
S11334700E94170A4D815E816F8178859A01AB01A4
S113348060E070E0CB012D833E834F8358876987CA
S11334907A878B879C87D101D396AC90D397D496A7
S11334A0BC90D497D596CC90D597D696DC90D697E9
S11334B0D796EC90D797D896FC90D897D9960C913C
S11334C0D997DA961C91DA9760E070E080E090E09A
S11334D00E945E38F0F4D3962C93D397D4963C9301
S11334E0D497D5964C93D597D6965C93D697D79682
S11334F01C92D797D8961C92D897D9961C92D99794
S1133500DA961C92DA97DB961D921D921D921C92FC
S1133510DE9781E003C073016201C1CE60960FB6ED
S1133520F894DEBF0FBECDBFDF91CF911F910F91F5
S1133530FF90EF90DF90CF90BF90AF909F908F90CF
S11335407F906F905F904F903F902F900895CF920F
S1133550DF92EF92FF920F931F93CF93DF93EC01CF
S1133560FB01892B09F44DC0309709F44AC06BA9BB
S11335705CA93DA92EA9413091F060F0423009F0D8
S113358040C0C080D180E280F3808FA198A5A9A516
S1133590BAA50DC0C080D180E280F3800CC0862F14
S11335A0952FA32FB22FC080D180E280F380C80E64
S11335B0D91EEA1EFB1E8F018FA198A5A9A5BAA545
S11335C08C159D05AE05BF05A8F0A7019601CBAAF1
S11335D03CAB4DAB5EAB1FAA18AE19AE1AAE1BAE18
S11335E01CAE1DAE1EAEF801C082D182E282F3820F
S11335F081E008C0B701A601CE010E94DD18811147
S1133600E4CF80E0DF91CF911F910F91FF90EF9075
S1133610DF90CF900895CF93DF93009799F06115D1
S1133620710581F0FB0120A124FF0CC0209126012B
S113363030912701232B49F020915F0130916001E3
S1133640232B31F080E090E01BC0C6E2D1E002C041
S1133650CFE5D1E0DE01129621E3FB0101900D924A
S11336602A95E1F799838883FB0181A192A1A3A103
S1133670B4A18BAB9CABADABBEAB18AE1FAACE0155
S1133680DF91CF910895009719F0FC011182108207
S11336900895FC01892B61F083A194A1A5A1B6A191
S11336A083AB94ABA5ABB6AB10AE17AA81E008957B
S11336B080E008952F923F924F925F926F927F9293
S11336C08F929F92AF92BF92CF92DF92EF92FF922E
S11336D00F931F93CF93DF93CDB7DEB7E6970FB663
S11336E0F894DEBF0FBECDBF009719F161157105C7
S11336F001F19AA789A7DC012D903C90D10158963D
S11337000D90BC91A02DBCA7ABA7DC01D3964D9026
S11337105D906D907C90D697D7968D919C91D8971B
S11337202BA53CA58217930730F089A59AA50E9482
S1133730491B80E0C8C0AE014F5D5F4F26E0DA014F
S11337401D922A95E9F721E3DB011D922A95E9F7F9
S11337507AA369A3411451046104710409F08FC070
S1133760D101ED91FC91119720852B3039F49A9673
S11337704D905D906D907C909D9781C0F101428D3C
S1133780538D22A133A1BA01621B730B7CA76BA7D3
S113379076C08EA1811188C08BA59CA5AFA1B8A5C8
S11337A08A1B9B0B9EAB8DAB9D0140E050E060E01B
S11337B070E0CB01ADA73EA74FA758AB69AB7AAB7E
S11337C08BAB9CAB411451046104710409F05AC0E1
S11337D040E050E060E070E080E090E0D10192963B
S11337E0AC9092979396BC9093979496CC90949720
S11337F09596DC9095979696EC9096979796FC9074
S1133800979798960C91989799961C910E94403896
S11338101CA21BA2D101ED91FC910280F381E02D49
S1133820DE0191964D01A5EAAA2EADE0BA2ECDA8EF
S1133830DEA8B0E2EB2EF12C8E010F5F1F4F09952D
S1133840882309F476CF8BA19CA1EFA1F8A5E80FFA
S1133850F91FF8A7EFA32BA53CA5E217F30708F47B
S113386098CFB301A201C1010E9473092B013C014D
S113387080E090E0411451046104710489F098A738
S11338808FA387CFB301A201C1010E94550DADA43E
S1133890BEA4C12CD12CE12CF12C00E010E0B6CF59
S11338A08EA1882309F441CFA9A5BAA5D3964D9238
S11338B05D926D927C92D697EFA1F8A5D896FC9371
S11338C0EE93D7978EA1E6960FB6F894DEBF0FBE9F
S11338D0CDBFDF91CF911F910F91FF90EF90DF90BB
S11338E0CF90BF90AF909F908F907F906F905F909C
S11338F04F903F902F9008958F929F92AF92BF92D6
S1133900CF92DF92EF92FF920F931F93CF93DF93A7
S11339104C01EB018A01892B09F469C0209709F451
S113392066C08881882309F462C0452B09F45FC00E
S11339308F3209F4219681E3F80111928A95E9F70F
S113394080E1F80180A38881811102C081E050C028
S1133950B801C4010E940B1B5C01892B09F447C008
S11339606FE270E0CE010E94EE38009741F0E82E3D
S1133970EC1A6C012FEFC21AD20AF12C16C0FE0108
S113398001900020E9F73197EC1BFD0BEE2E6E0140
S1133990CE0ED11CF2CFF80101900020E9F7319747
S11339A0E01BF10BEE15FF0539F0B801C5010E94CB
S11339B05A1B8111F0CF17C0A701B801CE010E9494
S11339C00239892B91F7C5010E94431BCE0DDF1DDF
S11339D08881882309F4BACFF80180A184FF07C045
S11339E0E601A12CB12CC5010E94431BACCF80E0A1
S11339F0DF91CF911F910F91FF90EF90DF90CF90C7
S1133A00BF90AF909F908F900895CF92DF92EF92E6
S1133A10FF920F931F93CF93DF93009709F446C04F
S1133A206115710509F442C0FB0120812223F1F1E3
S1133A30EA017B018C012097C9F1BE01C8010E94F3
S1133A405A1B882359F0BE01C7010E94F938892BFB
S1133A50A1F7C8010E94491B92E029C0F801C08067
S1133A60D18081E3FE0111928A95E9F74FE150E09C
S1133A70B701CE010E941039B8016D5D7F4FAE01D0
S1133A80C6010E94AD1029A73AA74BA75CA76DA752
S1133A907EA78FA798ABA0E00E94673839F0BE01DB
S1133AA0C6010E94E60E91E0811101C090E0892FC9
S1133AB0DF91CF911F910F91FF90EF90DF90CF9006
S1133AC00895389A0895409838984198399A0895F5
S1133AD0FC0180E03BE0615070F09191892798E00F
S1133AE0282F269580FF03C0822F832701C0822FB1
S1133AF09150B1F7F0CF0895CF93DF93EC0160E1DB
S1133B000E94681D282FFE01AE01405F5F4FDE0159
S1133B1090E08D9181119F5FA417B507D1F7289686
S1133B20DE0131918D9138130AC0EC17FD07C9F7F6
S1133B3081E0992329F0211103C080E001C081E0D4
S1133B40DF91CF910895811102C00C94611D3898C2
S1133B500895CF93DF93D82FC8E0D0FF07C00E9409
S1133B60611D8AE18A95F1F700C008C00E94611DB9
S1133B7087E691E00197F1F700C0000081E00E9420
S1133B80A31D8FE19BEC0197F1F700C00000D695CF
S1133B90C15019F7DF91CF910895CF93DF93D8E007
S1133BA0C0E00E94611D85E38A95F1F7000081E081
S1133BB00E94A31DE5E8EA95F1F7000086B1EBEB5E
S1133BC0F2E03197F1F700C00000C69580FDC068AF
S1133BD0D15039F78C2FDF91CF9108950E94611D48
S1133BE08FE99FE00197F1F700C0000081E00E9497
S1133BF0A31DEFE3F1E03197F1F700C00000309B23
S1133C0014C096E126B1822F817020FF07C0915025
S1133C1071F0F5E3FA95F1F70000F4CFEFEBF3E080
S1133C203197F1F700C00000089581E0089582E023
S1133C3008958F929F92AF92BF92CF92DF92EF92AC
S1133C40FF920F931F93CF93DF93CDB7DEB76097A7
S1133C500FB6F894DEBF0FBECDBF982EA92E0E94DA
S1133C60EE1D811123C08E010F5F1F4F6801B02E1E
S1133C70E12EF02E80E1882E800E0E94CD1DD6010B
S1133C808D936D018A12F9CFE92DFA2D28E02F0DBD
S1133C90D8018D918D0181932A13FACF8B2D9E2DFE
S1133CA00E947C1D882319F082E001C081E06096A7
S1133CB00FB6F894DEBF0FBECDBFDF91CF911F9139
S1133CC00F91FF90EF90DF90CF90BF90AF909F90B7
S1133CD08F900895CF92DF92EF92FF920F931F93EC
S1133CE0CF93DF93EC010E94EE1D882311F011E0C5
S1133CF03BC0419A2FE782E392E0215080409040FC
S1133D00E1F700C000006E017E01E8E0EE0EF11C58
S1133D108E01F80181918F010E94A91D0E151F05C6
S1133D20C1F78E01F80181918F010E94A91D0E1522
S1133D301F05C1F741980E94EE1D182F8111D7CF9E
S1133D400E94CD1D9991891711F012E00DC0CE1576
S1133D50DF05B1F70E94CD1DF60191916F01891322
S1133D60F4CFEE15FF05B1F7812FDF91CF911F91AD
S1133D700F91FF90EF90DF90CF90089590E001971E
S1133D8046E0489F9001499F300D112470E0615036
S1133D90710944E5469FC001479F900D1124820F8D
S1133DA0931F9093390480933804089590E0019709
S1133DB070E06150710944E5469F9001479F300DC2
S1133DC01124820F931F909339048093380408952B
S1133DD09AB190639AB95B98613011F45C9A01C00E
S1133DE05C9827E030E090E0AC01022E02C05595CB
S1133DF047950A94E2F740FF02C05D9A01C05D98BE
S1133E005F9A5F982150310978F75B9A8AB18F7C69
S1133E108AB98BB180638BB90895CF93C82F60E0C2
S1133E2081E20E94E81E60E08C2F80680E94E81EF8
S1133E3060E080E2CF910C94E81EEF92FF920F9322
S1133E401F93CF93E12CF12CC0E06C2F80E00E94F3
S1133E50D61E00E010E0F801EE0DFF1DE258FF4F02
S1133E60849161E00E94E81E0F5F1F4F0435110525
S1133E7091F7CF5F84E5E80EF11CC63031F7CF919E
S1133E801F910F91FF90EF900895CF9364E570E038
S1133E900E944337C62F60E080680E94E81E60E0FD
S1133EA08C2F8064CF910C94E81ECF93DF931092F3
S1133EB039041092380480E090E00E94451FC8EF56
S1133EC0D1E061E080E00E94E81E2197D1F7DF9104
S1133ED0CF9108955A9A8AB18C6B8AB98FE59AEE7C
S1133EE00197F1F700C000005A985A9A5B9A60E073
S1133EF081E20E94E81E60E088EC0E94E81E60E017
S1133F0086E00E94E81E60E083E10E94E81E60E013
S1133F1080E20E94E81E60E08CE00E94E81E0C949F
S1133F20551F0F931F93CF93DF93C82F80913804AD
S1133F30909139040E94451F85E0C89FE001112437
S1133F4000E010E0C05AD109FE01E00FF11FEA5869
S1133F50FD4F849161E0880F0E94E81E0F5F1F4FA0
S1133F600530110589F761E080E00E94E81E809128
S1133F703804909139040696909339048093380458
S1133F80DF91CF911F910F910895CF93DF93EC01AF
S1133F908991882319F00E94911FFACFDF91CF9164
S1133FA00895CF93DF93FC018491EF012196882338
S1133FB021F00E94911FFE01F7CFDF91CF91089568
S1133FC0CF93C82F82958F708A3010F4805D01C022
S1133FD0895C0E94911F8C2F8F708A3010F4805D51
S1133FE001C0895CCF910C94911F80913804909109
S1133FF039040E94451F61E084E40E94E81E61E0E8
S113400080E00E94E81E8091380490913904029661
S1134010909339048093380408951F920F920FB639
S11340200F9211242F933F934F935F936F937F933A
S11340308F939F93AF93BF93CF93EF93FF9384E5B5
S113404094E00E94F736811103C081E0809342041A
S1134050189B09C010920A0280910C02823029F543
S113406010920C0222C0C0910A0218990CC0C130EF
S113407051F482E080930A0287EB9AE00E945D3655
S1134080C0930C0212C0CD3368F0CD3371F48EE3CB
S113409080930A0285EB9AE00E945D3682E0809369
S11340A00C0203C0CF5FC0930A02FF91EF91CF913E
S11340B0BF91AF919F918F917F916F915F914F913C
S11340C03F912F910F900FBE0F901F90189520983D
S11340D0289A1092B00087E08093B10081E0809329
S11340E070007894089583EE80937A0010927B0098
S11340F080E680937C000895EF92FF920F931F93C4
S1134100CF93DF938B017A01E901BE01C8010E94BC
S11341105A1B8823B1F0B701CE010E94F938892BCC
S1134120A1F78DA19EA1AFA1B8A58093E0049093BF
S1134130E104A093E204B093E304C8010E94491B84
S113414081E0DF91CF911F910F91FF90EF9008953F
S11341500F931F93CF93DF93CDB7DEB7E1970FB6DD
S1134160F894DEBF0FBECDBF8C019E012F5F3F4F81
S11341700E947C20882339F0BE016F5F7F4FC80105
S11341800E94A81402C080E090E0E1960FB6F89473
S1134190DEBF0FBECDBFDF91CF911F910F91089568
S11341A00F93CF93DF93CDB7DEB7E1970FB6F894B3
S11341B0DEBF0FBECDBF0E941533811106C086E855
S11341C09AE00E94E83681E099C000E02DE935E3E9
S11341D041E854E363EF73E38AE092E30E94F22D33
S11341E090933F0480933E04892BB9F40FEF2DE99B
S11341F035E341E854E363EF73E38AE092E30E941A
S1134200F22D90933F0480933E04892B31F48BE686
S11342109AE00E94E83682E071C080913E04909159
S11342203F040E94401290933B0480933A04009709
S113423031F48FE49AE00E94E83683E05FC0AE0177
S11342404F5F5F4F64E271E00E947C1CBE016F5FB0
S11342507F4F80913A0490913B040E940B1B9093F2
S1134260410480934004009731F48FE29AE00E9465
S1134270E83684E043C044E051E0BC0180913A0454
S113428090913B040E94A82090933D0480933C04A9
S1134290892B99F4AE014F5F5F4F64E071E0809128
S11342A04004909141040E94051D811106C081E1E2
S11342B09AE00E94E83685E021C080913C04909108
S11342C03D040E94E61460914004709141044CE066
S11342D051E080913A0490913B040E94A82090936D
S11342E03D0480933C04009731F482EF99E00E94EE
S11342F0E83686E003C00E94E61480E0E1960FB63B
S1134300F894DEBF0FBECDBFDF91CF910F9108951A
S113431061E081E00E94BE1E8CEE99E00E94D11FF4
S113432085EE99E00E94E836E0910B028E2F90E032
S11343308B30910508F05BC0FC01EC5CFF4F0C94E2
S11343408D378EED99E00E94D11F87ED99E00E9490
S1134350E83684E994E00E943107882309F447C0D1
S113436080E90E94911F8AE20E94C03640C080ED1D
S113437099E00E94D11F8BEC99E037C085EC99E05D
S11343800E94D11F8FEB99E030C087EB99E00E9427
S1134390D11F8FEA99E029C086EA99E00E94D11FD3
S11343A089E999E022C081E999E00E94D11F85E85A
S11343B099E01BC08EE799E00E94D11F87E799E03E
S11343C014C08EE699E00E94D11F80E699E00DC0EA
S11343D086E599E00E94D11F89E499E006C080E453
S11343E099E00E94D11F87E399E00E94E83684E3B4
S11343F099E00C94E83608950F931F93CF93DF93BD
S113440062E081E00E94BE1E80910B02982F9D7F86
S1134410913039F098EF980F923018F0855082302F
S1134420D0F580919B040E94E01F89E299E00E94EC
S1134430D11F809194040E94E01F80913704882347
S113444051F180910B02833031F164E081E00E94EC
S1134450BE1E8FE199E00E94D11F8091370464E66B
S11344600E943737892FCAE06C2F0E943737805D4E
S11344700E94911F809137046C2F0E94373780E38C
S1134480890F0E94911F81E90E94911F83E70E9476
S1134490911F1092370463E081E00E94BE1E0AE976
S11344A014E0E80188810E94E01F802F8C1B853076
S11344B011F00E94F51F219784E0C439D80791F7C1
S11344C0CCE9D4E01C2F11508A910E94C736812F69
S11344D08C1B873019F08AE30E94C03684E0C4390B
S11344E0D80791F78CE199E0DF91CF911F910F915B
S11344F00C94E836CF93C82F0E94551F8DE099E0A5
S11345000E94D11F8EEF98E00E94D11F8FEE98E099
S11345100E94D11F80EE98E00E94D11F81ED98E0A7
S11345200E94D11F82EC98E00E94D11F6EEF6C0FA5
S113453081E00E94BE1E81E8CF910C94911F0E94DD
S1134540551F63E084E00E94BE1E88EB98E00E9441
S1134550D11F8BEA98E00C94E8360E94551F63E063
S113456081E00E94BE1E8DE998E00E94D11F86E87A
S113457098E00E94E83689EB9AE00E945D362FEFBE
S113458083ED90E3215080409040E1F700C00000AB
S113459008950E94551F63E081E00E94BE1E88E7D3
S11345A098E00E94D11F8AE698E00E94E8368BEBDF
S11345B09AE00E945D362FEF83ED90E32150804016
S11345C09040E1F700C00000089582E08093160156
S11345D0A4E9B4E0ECE4F4E088E08E0F91919D93BB
S11345E08E13FCCF85EC9AE00C945D361F93CF9329
S11345F0DF931F92CDB7DEB78CE494E00E943608B7
S11346008130A1F189830E949F22A4E9B4E0ECE403
S1134610F4E098E09E0F898131912D91321381E06D
S11346209E13FACF813019F00E94AD2260C014E0CD
S113463084E994E00E9430098823F9F0813009F478
S113464056C084E994E00E94DA088823C1F08130DE
S113465009F44DC084E994E00E948408882389F019
S1134660813009F444C0115019F702C011E040C070
S11346708230F1F50E94C9223BC012E003C011E070
S113468001C010E00E94551F63E081E00E94BE1E3D
S1134690111107C083E698E00E94D11F8CE598E0D1
S11346A00FC0113039F485E598E00E94D11F8EE4E3
S11346B098E006C087E498E00E94D11F80E498E067
S11346C00E94E83687E398E00E94D11F88E298E0D0
S11346D00E94E8368FEB9AE00E945D362FEF83ED5F
S11346E090E3215080409040E1F700C0000010E0CA
S11346F0812F0F90DF91CF911F9108952F923F92B8
S11347004F925F926F927F928F929F92AF92BF92DD
S1134710CF92DF92EF92FF920F931F93CF93DF9389
S11347208C0180E680937C008FE891E00197F1F79B
S113473000C00000809179008E3F08F092C0809103
S11347400902883008F489C020E080E090E0DC01B0
S1134750409178005091790076E0569547957A9586
S1134760E1F7840F951FA11DB11DE5E3EA95F1F76B
S113477000002F5F203861F76C017D0167E0F6943B
S1134780E794D794C7946A95D1F7F801C8010896BD
S11347901192E817F907E1F7A8EEB3E0A701960133
S11347A00E949337812C54E0952EA12CB12CA501A5
S11347B094012C193D094E095F090E946B37CA0107
S11347C0B901213335474105510528F02AE2F801A2
S11347D02083C1E001C0C0E0CF5FD1E03324339433
S11347E020EA822E26E8922EAA24A394B12C30E14A
S11347F0432E37E2532E612C712C40E2242EA50166
S113480094010E946B376B017C01A30192010E9409
S11348106B378FEF8C0F90E0211531054105510561
S113482051F4F1E03F1207C0D53029F0F801E80F48
S1134830F91F208206C0F801E80FF91F205D2083CC
S1134840312CAAE0B0E0A70196010E949337DF5F04
S1134850CF5FD630A1F680E007C08F5F8093090256
S113486002C01092090281E0DF91CF911F910F9154
S1134870FF90EF90DF90CF90BF90AF909F908F907C
S11348807F906F905F904F903F902F90089586EEA9
S113489080937C008FE99FE00197F1F700C000004E
S11348A0809179000895DC01FB0194919D933196E8
S11348B09111FBCF08952F923F924F925F926F9286
S11348C07F928F929F92AF92BF92CF92DF92EF929C
S11348D0FF920F931F93CF93DF93EC014A015B0187
S11348E00AE010E0312C212CC12C8AECD82E8AE964
S11348F0E82E8BE3F82E9AE0492E512C612C712C72
S1134900C501B401A70196010E946B37211108C0AB
S1134910211006C081E0C816D104E104F10449F471
S1134920FE01E30DF11D80E3820F80833394222482
S11349302394A22FB0E0A70196010E949337861A10
S1134940970AA80AB90AC701B601A30192010E94F5
S11349506B3769017A010150110991F6C30DD11D1C
S11349601882DF91CF911F910F91FF90EF90DF900C
S1134970CF90BF90AF909F908F907F906F905F90FB
S11349804F903F902F900895FC01962F92959F7021
S11349909A3010F4905D01C0995C90836F706A3016
S11349A010F4605D01C0695C618312820895CF9345
S11349B0DF93DC0190E0292F30E0FB01E20FF31FCD
S11349C04491442359F0ED01C20FD31F28812223BF
S11349D039F0E4912E1306C09F5FEDCF80E003C051
S11349E082E001C081E0DF91CF9108951F93CF93BE
S11349F0DF93EC011092420463E278E00E94D72432
S1134A00811103C0249613E00BC06DE178E0CE0160
S1134A100E94D724811103C0259612E001C010E042
S1134A20CE01EC01019628812032D9F366E178E0C9
S1134A30CE010E94D724811103C0269621E029C00B
S1134A4061E178E0CE010E94D724811103C024964D
S1134A5022E01FC06BE078E0CE010E94D7248111D0
S1134A6003C0259623E015C063E078E0CE010E94E0
S1134A70D724811103C0279624E00BC06CEF77E0A4
S1134A80CE010E94D724882311F020E002C026968C
S1134A9027E0DE0121968C918032D9F3CCE4D4E076
S1134AA0FE015C2F585F11925E13FDCF40E08D91A3
S1134AB0882321F1403111F1E42FE695F0E0E45B25
S1134AC0FB4F30813295307F803310F4308314C033
S1134AD08A3310F490ED05C08134C0F3873428F490
S1134AE099EC980F832F892B06C09FE9980F963075
S1134AF068F78755832B80834F5FD9CF112359F0F3
S1134B00123039F01093160120930B0287EB9AE0D0
S1134B1004C0211107C08BEB9AE0DF91CF911F9164
S1134B200C945D36E4E9F4E0899181935C13FCCF45
S1134B30E9CF0F931F93CF93DF936091400470915B
S1134B404104AC0180913A0490913B040E94A82056
S1134B5090933D0480933C0440E06CED74E00E942B
S1134B60A71A40E450E06CE974E080913C04909111
S1134B703D040E94EC14EC0180913C0490913D04AE
S1134B800E94E614209751F41092DC041092DD0484
S1134B901092DE041092DF0481E0BFC0ECE9F4E07F
S1134BA020E030E081918D3009F0AFC0F901E45686
S1134BB0FB4F10822E5F3F4F8091DC049091DD0407
S1134BC0A091DE04B091DF04820F931FA11DB11DDB
S1134BD08093DC049093DD04A093DE04B093DF049F
S1134BE0ECE9F4E090E020E030E067E070E0EF0111
S1134BF0CC59D4408191882379F0803221F08B33D1
S1134C0011F02230F9F4DB01A31BB109AC56BB4F00
S1134C109C933F5F8B3389F4219610920B028E0193
S1134C2004561B4F65EF77E0C8010E94D724811119
S1134C301DC081E080930B0219C0383068F790E002
S1134C4040E012C041E0420F213011F49295907F70
S1134C508A3310F4805307C0873410F4875303C099
S1134C60873610F48755982B242FC1CF6EEE77E04A
S1134C70C8010E94D724811103C082E080930B02F3
S1134C8067EE77E0C8010E94D724811103C087E052
S1134C9080930B026FED77E0C8010E94D724811145
S1134CA003C084E080930B0269ED77E0C8010E94A1
S1134CB0D724811103C083E080930B02FE01E456E4
S1134CC0FB4F808121968B33C9F70E94551F1092A8
S1134CD037040E9488210E94FC2165E081E00E9443
S1134CE0BE1EC456DB4F10E089918823A9F01C3105
S1134CF098F48B3319F00E94911F05C066E081E09F
S1134D000E94BE1E1DE01F5FEFCF2F5F3F4F2C1789
S1134D103D0709F047CF64CF80E0DF91CF911F9129
S1134D200F910895DF92EF92FF920F931F93CF9309
S1134D30DF9300D000D0CDB7DEB78CE9E82E84E055
S1134D40F82E0CE914E090E2D92EF70162917F016C
S1134D50C8010E94C424F801D2820D5F1F4FF4E9F8
S1134D60EF16F4E0FF0689F780910B028330A1F07F
S1134D7040F4813071F0823009F079C067EC77E05B
S1134D8010C0843061F0873009F071C06CEA77E0BC
S1134D9008C060ED77E005C06FEB77E002C065EB1B
S1134DA077E083EB94E00E94532419821A821B82D9
S1134DB01C82609140047091410444E051E0809170
S1134DC03A0490913B040E94A82090933D04809360
S1134DD03C0442E0BE016F5F7F4F0E94A71A882304
S1134DE009F43FC00CE914E0F80101900020E9F750
S1134DF03197CF018C5994407C016091E00470910B
S1134E00E1048091E2049091E30423E230E040E085
S1134E1050E00E946B37BA01A901C7019927845653
S1134E209B4F0E945B24F80101900020E9F7319721
S1134E30CF018C599440992769EA77E084569B4FB7
S1134E400E945324F80101900020E9F73197AF0143
S1134E504C595440B80180913C0490913D040E9407
S1134E60A81680913C0490913D040E94E6140F9092
S1134E700F900F900F90DF91CF911F910F91FF90A2
S1134E80EF90DF900895CF93DF931F92CDB7DEB7F5
S1134E900E946A1F8DE30E940D1F0E941D1F0E9425
S1134EA067200E9473200E94B1360E9455360E94EA
S1134EB020070E948C2E0E94631D0E94D0202FEF99
S1134EC049E658E1215040405040E1F700C000005D
S1134ED000E117E255E9252E54E0352E84E994E0EB
S1134EE067E0F62EF80E75E0E72EE20C80911601CD
S1134EF0823039F480910B02811111C083E08093D8
S1134F00160182E0782E98EEC92E93E0D92E24E67D
S1134F10A22EB12C3AE0632E47E0542E57C20E94D1
S1134F20551F0E9488210E94FC210E949226809194
S1134F300B028130C9F480910C02813021F410926B
S1134F400C0283E00FC080914204813029F484E58F
S1134F5094E00E94F62408C00E94F6228111EBCF4F
S1134F60809115018093160180910B02823009F023
S1134F703DC08CE494E0B8E0DB2ED80E80910C02A6
S1134F80813021F410920C0283E0D8C48091420451
S1134F90813029F484E594E00E94F62427C08CE44F
S1134FA094E00E943B3181110FC0A4E9B4E0ECE429
S1134FB0F4E021919D91291381E0DE12FACF811151
S1134FC003C00E94AD2212C024E084E994E0298346
S1134FD00E944B312981882309F493C4813071F2F2
S1134FE0215099F7823051F60E94C92280910B0218
S1134FF0833009F068C064E081E00E94BE1E88E747
S113500097E00E94D11F8CE494E0A8E0DA2ED80E39
S113501080910C02813031F410920C0283E0809371
S1135020160151C080914204813029F484E594E052
S11350300E94F62448C08CE494E00E94191E81303A
S113504039F389830E949F22898181110FC0A4E9C9
S1135050B4E0ECE4F4E021919D91291381E0DE12A7
S1135060FACF811103C00E94AD222DC024E084E94F
S113507094E029830E946A1E2981882349F08130A3
S113508011F12150A1F7823019F60E94C9221BC0E8
S11350900E94551F63E081E00E94BE1E8AE697E0ED
S11350A00E94D11F86E597E00E94E8368FEB9AE0D4
S11350B00E945D368FEF93EDE0E381509040E04035
S11350C0E1F700C0000080910B02843081F58091EB
S11350D00C028130D1F410920C0295E090930B02F3
S11350E0809394041092990410929A04F4E9CF2EB8
S11350F0F4E0DF2E80E0F60161916F010E94230746
S1135100FC10F9CF80939B0412C080910C02823072
S113511031F483E08093160110920C0208C0809150
S113512042048130A1F684E594E00E94F624809143
S11351300B028550823008F052C080910C028130FD
S1135140B9F510920C0240910B0220919504309114
S1135150980480919604909197044530E9F446E0D0
S113516040930B02309395042093980490939604F3
S113517080939704E4E9CE2EE4E0DE2E20E030E0D4
S1135180F60161916F01822F0E942307282FFC10E2
S1135190F7CF80939B0423C044E040930B023093E9
S11351A0950420939804909396048093970417C0D1
S11351B080910C02823031F483E0809316011092C6
S11351C00C020DC080914204813029F484E594E0FE
S11351D00E94F62404C00E94F6228111AECF809171
S11351E00B02873079F580910C028130C9F410925A
S11351F00C0298E090930B028093940474E9C72EF8
S113520074E0D72E20E030E0F60161916F01822F27
S11352100E942307282FFC10F7CF80939B0412C011
S113522080910C02823031F483E080931601109255
S11352300C0208C0809142048130A9F684E594E010
S11352400E94F62480910B028850823008F0ABC093
S11352500E94551F0E9488210E94FC2130910C025B
S1135260313009F089C010920C0280910B029091A8
S1135270950420919604883009F046C089E0809313
S11352800B02E92FEF70F0E0EB55F54F3491E92F65
S1135290F0E044E0F695E7954A95E1F7EB55F54FD4
S11352A09491F0E19F9FC0011124832B8093950476
S11352B0E22FEF70F0E0EB55F54F8491E22FF0E030
S11352C054E0F695E7955A95E1F7EB55F54FE491DF
S11352D040E1E49F90011124282B2093960480E858
S11352E08093970464E9C62E64E0D62E20E030E073
S11352F0F60161916F01822F0E942307282FFC1071
S1135300F7CF80939B044FC087E080930B02E92F73
S1135310EF70F0E0EB55F54F4491E92FF0E094E0A5
S1135320F695E7959A95E1F7EB55F54F9491F0E1F1
S11353309F9FC0011124842B80939504E22FEF706A
S1135340F0E0EB55F54F4491E22FF0E024E0F695C0
S1135350E7952A95E1F7EB55F54FE49120E1E29FBB
S1135360C0011124842B80939604109294043093EA
S1135370970410929B0417C080910C02823031F480
S113538083E08093160110920C020DC080914204B8
S1135390813029F484E594E00E94F62404C00E943C
S11353A0F62281115BCF80910B028A3008F49ECDE6
S11353B083E0809316019ACD8CE494E00E947830C7
S11353C0811177C070920B020E94E5228091160130
S11353D0833009F0DEC0709215010E94551F609160
S11353E04004709141044CE051E080913A04909162
S11353F03B040E94A82090933D0480933C04892B95
S113540029F484E497E00E94E83608C061E081E072
S11354100E94BE1E81E497E00E94D11F80913C044B
S113542090913D040E94E61461E08BE00E94BE1E50
S11354300E94472442EA849F40011124811491046C
S113544029F48DE397E00E94D11F1CC0C401B80168
S11354500E944337B6010E94433780E3860F0E94BF
S1135460911F8CE20E94911FC401B6010E94433730
S1135470B5010E94433780E3860F0E94911F82EE9C
S11354800E94911F63E084E00E94BE1E82E397E0C5
S11354900E94D11F81E297E00E94E8368CE494E0F8
S11354A00E943608982E51E0851709F485CF81E0D3
S11354B007C08CE494E00E94191E811104C083E0AB
S11354C080930B0281CF8CE494E00E94482D8111DB
S11354D002C084E0F5CF8CE494E00E949006811130
S11354E003C050920B0270CF8CE494E00E947E23A0
S11354F0811123C060920B020E94551F0E948821D3
S113550063E084E00E94BE1E8CE494E00E94C51F08
S11355108CE494E00E94DC368DE197E00E94D11F78
S113552086E197E00E94E83685EC9AE00E945D36B9
S113553080910C028823E1F349CF80910C028130E1
S113554019F410920C0242CF80910C02823029F49B
S113555010920C029092160139CF8091420481304E
S113556009F09CCF84E594E00E94F6242FCF2F5FAE
S11355703F4FEFE3FCE93197F1F700C00000253F0E
S1135580F1E03F07E8F09093160189EB9AE00E945E
S11355905D36809116018130B1F58091780090914B
S11355A079002091B200820F911D0E94D33810928D
S11355B0370483E00E947A2293E020E030E0D7CFE2
S11355C080910C02813069F410920C029F5F993033
S11355D008F093E0892F99830E947A2220E030E03A
S11355E0998180910C02823021F483E0809316012A
S11355F0D0CF80914204813009F0B9CF84E594E0A2
S11356000E94F624C6CFDD24D394B3E0CB2E82E0EF
S1135610B82E809116018430C9F4609140047091D1
S113562041044CE051E080913A0490913B040E9483
S1135630A82090933D0480933C04009771F484E087
S113564097E00E94E83683E080931601DD24D3942A
S1135650F3E0CF2EA2E0BA2E70C00E94E61410929E
S113566037041092DC041092DD041092DE041092D0
S1135670DF04D0920C0280E090E00196EFE3FCE9B5
S11356803197F1F700C00000853FF1E09F0738F043
S1135690B092160185EC9AE00E945D36BACF209153
S11356A00C02213069F410920C028CE091E00E940B
S11356B09925882319F0C0921601ABCF80E090E0C1
S11356C020910C02223079F48CE091E00E9499251B
S11356D02FEF41EE54E0215040405040E1F700C02C
S11356E0000080E090E020914204213031F684E50E
S11356F094E00E94F6248DCF0E94E61410923704A1
S11357001092DC041092DD041092DE041092DF0487
S1135710D0920C0280E090E00196EFE3FCE931972F
S1135720F1F700C00000853FF1E09F0730F1B0922F
S1135730160185EC9AE00E945D3680911601853051
S1135740C9F4609140047091410444E051E08091B7
S11357503A0490913B040E94A82090933D048093C6
S11357603C04009749F683EF96E00E94E83683E014
S113577080931601E3E0DE2E4BC020910C02213011
S113578069F410920C0284E091E00E949925882328
S113579019F0C0921601D1CF80E090E020910C0264
S11357A0223079F484E091E00E9499252FEF41EEB4
S11357B054E0215040405040E1F700C0000080E038
S11357C090E020914204213009F0A6CF84E594E0D2
S11357D00E94F624B2CF40E050E0BA010E94DD18E6
S11357E080913C0490913D040E94E6141092DC04E4
S11357F01092DD041092DE041092DF040E94551F03
S113580063E083E00E94BE1E86ED96E00E94D11FF5
S1135810809116018630C1F4D09216016091400443
S11358207091410444E051E080913A0490913B042A
S11358300E94A82090933D0480933C04009759F65D
S113584082EE96E00E94E836BB24B39454E0A52E81
S1135850A20C62E0962E77E0872E1FC00E94CE38FD
S1135860F60181936F01AE12F9CF10929904109250
S11358709A0434E9C32E34E0D32E80E0F60161911A
S11358806F010E942307FC10F9CF80939B04B09210
S11358900B029092160180921501809116018730B7
S11358A039F4B092940445E9C42E44E0D42ED6CF02
S11358B092E0B92E28E0A22E809116018830E1F4FE
S11358C010929504109296041092970410929804E2
S11358D01092990485E9C82E84E0D82E0E94CE380F
S11358E0F60181936F01EE12F9CFB0920B02B092E0
S11358F01601A0921501E0CF8250823008F058CDF5
S1135900F5CA0E94551F63E081E00E94BE1E8BE928
S113591097E00E94D11F87E897E00E94E8368FEB5A
S11359209AE00E945D36FFEF23ED40E3F150204002
S11359304040E1F700C000008091150180931601FA
S113594055CBEF92FF920F931F93CF93DF939C015C
S1135950285F3F4FFC011192E217F307E1F7E09152
S113596043042E2F207E203409F08AC020E030E04A
S1135970F0E0D9019396ED0163E0D595C7956A955A
S1135980E1F7CD5BDB4F488150E0A770BB2702C035
S1135990440F551FAA95E2F7DF01022E02C0AA0F99
S11359A0BB1F0A94E2F74A275B2747FD69C02F5FB4
S11359B03F4F28303105E9F623E030E0A0E8B0E0BD
S11359C0C4E0D0E04DEF420FF90153E0F595E795BF
S11359D05A95E1F7ED5BFB4FE0810E2F10E0F901E2
S11359E0E770FF277D0102C0F594E794EA95E2F79A
S11359F0F701E023F123EF2BA1F0542F5695569590
S1135A005695FE01E51BF109E80FF91F47708D015A
S1135A1002C0159507954A95E2F7A8015081452BD8
S1135A2040832F5F3F4F2332310561F6FC013496EA
S1135A3000E810E0FF24F3943081C32FD0E040E06D
S1135A4050E020E0D801042E02C0B595A7950A9431
S1135A50E2F7AC23BD23AB2B09F02F254F5F5F4F3B
S1135A604730510579F7632F617070E030E06217B9
S1135A70730731F43197E817F907F1F680E001C0B4
S1135A8081E0DF91CF911F910F91FF90EF900895E6
S1135A90CF93DF93EC0180E680937C003AE63A955D
S1135AA0F1F700C0E3E4F4E089E08E0F11928E1365
S1135AB0FDCF24E680E090E030917900830F911DC2
S1135AC065E36A95F1F700002150B1F764E670E0F0
S1135AD00E944337262F34E680E040E050E090E017
S1135AE060917900621730F4882321F0490F511D29
S1135AF080E011C060917900261730F4811104C050
S1135B00490F511D81E007C065E16A95F1F7000076
S1135B109F5F983C29F7315011F7CA0164E670E0A1
S1135B200E944337762F6550633108F057C09FEFCA
S1135B3085E38A95F1F7000080917900821718F0C7
S1135B409150B1F74BC080E035E33A95F1F700008E
S1135B5030917900231720F08F5F8436A9F702C0B3
S1135B60781770F790E0A0E8B0E030E08091790019
S1135B70821740F065E16A95F1F700003F5F37391D
S1135B80A9F704C0363951F1731790F4E92FE6955B
S1135B90E695E695F0E0ED5BFB4F892F8770AD014C
S1135BA002C0559547958A95E2F78081482B40833A
S1135BB030E080917900281778F085E18A95F1F733
S1135BC000003F5F3739A9F79F5F963471F6CE0125
S1135BD0DF91CF910C94A12C3639B1F781E0DF919C
S1135BE0CF9108955F926F927F928F929F92AF921E
S1135BF0BF92CF92DF92EF92FF920F931F93CF93B6
S1135C00DF93CDB7DEB760970FB6F894DEBF0FBE53
S1135C10CDBF009719F480E090E068C0611571056C
S1135C20D1F30430C4F7502E49013A015B016C01F1
S1135C3007FF05C0809115028111EDCF1DC090E1D1
S1135C400902A001112442545E4F952F990F990B1C
S1135C5080E1E82EF12C8E010F5F1F4F9A01492F2E
S1135C60592F692F792F892FF6010995882399F2E5
S1135C708D818111DFCFCFCF81E1EDE0F2E0DF0153
S1135C801D928A95E9F7D0920E02C0920D02B0924D
S1135C901002A0920F02709212026092110290926E
S1135CA014028092130257FC1CC08D81809315024C
S1135CB0CE0109960E94B7056093160270931702ED
S1135CC08093180290931902CE010D960E94B70595
S1135CD060931A0270931B0280931C0290931D021E
S1135CE003C08FEF809315028DE092E060960FB6AB
